:020000040800F2
:10000000C00400206501000869120008190C0008EE
:1000100067120008BD010008C118000800000000B8
:10002000000000000000000000000000E5120008D1
:1000300053040008000000006B120008E5140008DB
:100040007F0100087F0100087F0100087F01000890
:100050007F0100087F0100087F0100087F01000880
:100060007F0100087F0100087F0100087F01000870
:100070007F0100087F0100087F0100087F01000860
:100080007F0100087F0100087F0100087F01000850
:100090007F0100087F0100087F0100087F01000840
:1000A0007F010008451500087F0100087F01000856
:1000B0008D150008D51500087F0100087F01000894
:1000C0007F0100087F0100087F0100087F01000810
:1000D0007F0100087F0100087F0100087F01000800
:1000E0007F0100087F0100087F0100080000000078
:1000F0000000000000000000000000000000000000
:1001000000000000000000007F0100087F010008DF
:100110007F0100087F0100087F0100087F010008BF
:100120007F0100087F0100087F0100087F010008AF
:100130007F0100087F0100087F0100087F0100089F
:100140007F0100087F0100087F0100087F0100088F
:10015000DFF80CD000F020F800480047DD19000857
:10016000C00400200648804706480047FEE7FEE737
:10017000FEE7FEE7FEE7FEE7FEE7FEE7FEE7FEE757
:10018000E914000851010008421C10F8011B002965
:10019000FBD1801A70470000064C074D06E0E0686E
:1001A00040F0010394E8070098471034AC42F6D3BE
:1001B000FFF7D2FF80DC0308A0DC0308FEE70000A5
:1001C000044B01228240186809B1104300E09043BB
:1001D000186070470074004000B5012185B04807E1
:1001E00001F050F80121052001F064F82020ADF85D
:1001F000100018208DF8130003208DF8120004A9B8
:100200000C4800F0FBF900F023F80C2000900020CF
:100210000190022003906946102000F025F801218A
:100220001020FFF7CDFF0121102000F031F805B0BC
:1002300000BD000000080140044B9A148240186879
:1002400009B1104300E0904318607047007400400B
:1002500010B501214C07204601F020F82046BDE8EA
:100260001040002101F01AB830B5084C236840F660
:10027000FE7282409343D1E900252A43D1E902511D
:100280000D432A4382401A43226030BD007400406F
:100290000209054B012090400029196801D0014353
:1002A00000E0814319607047047400400029016830
:1002B00002D041F0010102E04FF6FE7211400160F0
:1002C0007047000010B58CB00121022000F0CEFF75
:1002D000154C204600F02EF814482022002100681A
:1002E0000090134801901020CDE902028020CDE952
:1002F0000410400006908000CDE90702C000CDE95F
:1003000009016946204600F087F801212046FFF7E1
:10031000CDFF01211020FFF753FF01211020FFF72F
:100320008BFF0CB010BD0000440402400000002010
:100330003000002001684FF6FE721140016000217C
:10034000016041608160C1603149314A08399042A1
:1003500003D1486840F00F0006E02D4A1432904265
:1003600004D1486840F0F00048607047284A2832BD
:10037000904203D1486840F47060F5E7244A3C326B
:10038000904203D1486840F47040EDE7204A503273
:10039000904203D1486840F47020E5E71C4A64327B
:1003A000904203D1486840F47000DDE7184A783283
:1003B000904203D1486840F07060D5E7154A111F9C
:1003C000904203D1086840F00F0006E0114A143251
:1003D000904204D1086840F0F000086070470D4A70
:1003E0002832904203D1086840F47060F5E7094A6A
:1003F0003C32904203D1086840F47040EDE7054A72
:1004000050329042EAD1086840F47020E5E70000DD
:10041000080002400804024030B5026847F6F07355
:100420009A430C6A8B682343D1E904452C43234348
:100430008C692343CC6923434C6A23438C6A23434E
:1004400013430360CA6842600A6882604968C160F9
:1004500030BD704710B56FF0040001F037F8074960
:100460000878C008487000EB4002C2EBC0104FF69D
:10047000FF7202EAC000488010BD000008000020A2
:100480000849498848434FF0E021486100238B61C7
:10049000012008610869C20701D0C003FAD50B61C9
:1004A0008B617047080000202DE9FE431D4C1F257D
:1004B00080460095002122881423084600F020FC85
:1004C000009563882288A3F1140081B2002000F017
:1004D00017FC15484FF6FF75012605801027CDF84B
:1004E0000080CDE901761F232A460221002000F07A
:1004F0006FFB0EA0CDE90007029660881F2312381B
:1005000081B22A46002000F063FB00200090608842
:100510002288143883B21421002000F0F1FBBDE8DA
:10052000FE830000B000002020000020C4CFBABD30
:10053000204E55414120435320B0E6C8A8CBF9D303
:10054000D00000002DE9F84301213C2000F0B2FE6C
:100550009C20ADF8000003208DF80200DFF88C80AD
:1005600010268DF803606946404600F047F8802069
:10057000ADF8000069461E4800F040F84FF4C05046
:10058000ADF8000048248DF803406946404600F06D
:1005900035F87002ADF80000164F8DF8034069463B
:1005A000384600F02BF80125ADF800508DF80360B7
:1005B0006946384600F022F8ADF800508DF8034047
:1005C00069460D4800F01AF80421404600F06DF825
:1005D0000821404600F069F81021404600F065F817
:1005E0008021404600F061F8BDE8F8830014014026
:1005F000000C01400010014000080140F0B5CC782B
:10060000002204F00F03E40601D58C7823430C7814
:100610004FF00F0C14F0FF0F4FF0010E1BD00568C8
:100620000E880EFA02F42640A64210D196000CFA6B
:1006300006F725EA070703FA06F5CE783D43282E8C
:1006400002D0482E02D002E0446100E00461521C56
:10065000082AE5D305600A88FF2A1CD944680022CD
:1006600002F108060EFA06F50E882E40AE420ED1B3
:1006700096000CFA06F7BC4303FA06F7CE783C4323
:10068000282E00D14561CE78482E00D10561521C3C
:10069000082AE5D34460F0BD0246002092680A4271
:1006A00000D0012070474161704701617047000030
:1006B0002DE9FF4F82B005468346B0209246894619
:1006C0004FF00008019030490F9A08EB081011F81C
:1006D0001030127893423CD101EB400000904178F9
:1006E0000F984078814234D109F10F0083B205F1AF
:1006F0000F0082B24946284600F0C8FC0026009848
:1007000000248719109890B120498020E040A1F87A
:1007100000A0B978014203D04946284600F0C8FA43
:100720006D1CADB2A5EB0B00102827D009E0B978FD
:100730008020E040014201D0504600E0059800F0E2
:1007400057FD641CE4B2082CDCD3761CF6B2202ED4
:10075000D5D308F1010001991FFA80F88845B2D37A
:100760000B494888401E83B2088806B0401EBDE889
:10077000F04F82B20021084600F088BC09F1010068
:100780005D461FFA80F9E0E73E9E03082000002046
:10079000B00000202DE9FF4F82B0054683460F20B0
:1007A0000190002092468946804600EB800101EBD3
:1007B00048102F490F9A11F81030127893423CD10B
:1007C00001EB4000009041780F984078814234D18D
:1007D00009F1170083B205F1170082B24946284695
:1007E00000F054FC0026009800248719109890B15E
:1007F00020498020E040A1F800A0B978014203D050
:100800004946284600F054FA6D1CADB2A5EB0B002A
:10081000182827D009E0B9788020E040014201D0B3
:10082000504600E0059800F0E3FC641CE4B2082C9C
:10083000DCD3761CF6B2482ED5D308F1010080B285
:10084000019980468842B0D30B494888401E83B244
:10085000088806B0401EBDE8F04F82B2002108466D
:1008600000F014BC09F101005D461FFA80F9E0E7D1
:100870009EB5030820000020B00000202DE9FF4FA6
:1008800082B0054683460420924689464FF0000810
:10089000019030490F9A08EB881011F81030127847
:1008A00093423CD101EB4000009041780F98407892
:1008B000814234D109F11F0083B205F11F0082B2D9
:1008C0004946284600F0E2FB0026009800248719DC
:1008D000109890B120498020E040A1F800A0B9789C
:1008E000014203D04946284600F0E2F96D1CADB242
:1008F000A5EB0B00202827D009E0B9788020E04044
:10090000014201D0504600E0059800F071FC641CE3
:10091000E4B2082CDCD3761CF6B2802ED5D308F1D5
:10092000010001991FFA80F88845B2D30B49488825
:10093000401E83B2088806B0401EBDE8F04F82B268
:100940000021084600F0A2BB09F101005D461FFA34
:1009500080F9E0E7F4B9030820000020B00000208F
:100960002DE9FF4F82B00546834605209246894611
:100970004FF000080190652108FB01F02F490F9A04
:1009800011F81030127893423CD101EB40000090F6
:1009900041780F984078814234D109F1270083B221
:1009A00005F1270082B24946284600F06FFB002679
:1009B000009800248719109890B121498020E040C8
:1009C000A1F800A0B978014203D04946284600F0BA
:1009D0006FF96D1CADB2A5EB0B00282827D009E0FC
:1009E000B9788020E040014201D0504600E00598EF
:1009F00000F0FEFB641CE4B2082CDCD3761CF6B2DB
:100A0000C82ED5D308F1010001991FFA80F8884556
:100A1000B1D30C494888401E83B2088806B0401EF6
:100A2000BDE8F04F82B20021084600F02FBB09F16B
:100A300001005D461FFA80F9E0E70000FCBB0308F7
:100A400020000020B00000202DE9FF4F82B00546B5
:100A500083460820924689464FF0000801903149AC
:100A60000F9A08EB082011F81030127893423DD10C
:100A700001EB4000009041780F984078814235D1D9
:100A800009F13F0083B205F13F0082B24946284692
:100A900000F0FCFA0026009800248719109890B105
:100AA00021498020E040A1F800A0B978014203D09C
:100AB0004946284600F0FCF86D1CADB2A5EB0B00D2
:100AC000402828D009E0B9788020E040014201D0D8
:100AD000504600E0059800F08BFB641CA4B2082C83
:100AE000DCD3761CB6B2B6F5007FD4D308F1010092
:100AF00001991FFA80F88845B1D30C494888401EF7
:100B000083B2088806B0401EBDE8F04F82B20021D3
:100B1000084600F0BBBA09F101005D461FFA80F9F2
:100B2000DFE70000EEBF030820000020B000002037
:100B300070B5154601F1970293B200F1EF0292B23F
:100B400000F0A4FA002448F6806605EB440115F88D
:100B50001400497840EA012000F04AFB641CB442CA
:100B6000F3DB06494888401E83B20888BDE8704020
:100B7000401E82B20021084600F088BAB000002072
:100B800070B5154601F1970293B200F1EF0292B2EF
:100B900000F07CFA00244FF4164605EB440115F8EA
:100BA0001400497840EA012000F022FB641CB442A2
:100BB000F3DB064841880088491E401EBDE87040AE
:100BC0008BB282B20021084600F060BAB00000206B
:100BD0002DE9FE4F0546DDE90C47984691468A46C9
:100BE00020460E9EFFF7D0FA0A4980B2404209889B
:100BF000CDE9004701EBC00000EBD07005EB5000E1
:100C000080B243464A465146029600F0D5FBBDE805
:100C1000FE8F0000B0000020FEE72DE9FE4F002609
:100C2000A2EB000882465F1A701E35468946B8F16D
:100C3000000F02DD4FF0010102E003D14FF000018F
:100C4000019102E0C8F100080190002F02DD4FF091
:100C5000010002E003D14FF00000009002E0C7F174
:100C6000000700904046B84501DD044600E03C46E0
:100C7000601C4FF0000B029015E01FFA89F11FFA7B
:100C80008AF000F015F846443D44A64202DD019981
:100C9000361B8A44A54202DD00992D1B89440BF1C5
:100CA00001001FFA80FB02998B45E6DDBDE8FE8F4F
:100CB00000B500F0BBF9034800885DF804EB00F0D4
:100CC00097BA000020000020F0B51C4615460E46DD
:100CD00007460B46FFF7A1FF3A462346314610462A
:100CE000FFF79BFF23462A4619463846FFF795FF34
:100CF0002A4623463146BDE8F0401046FFF78DBF37
:100D00002DE9F041141A641CA6B25C1A641C5B1E27
:100D1000521EA7B29BB292B2DDF8188000F0B6F96D
:100D200000250AE0002404E0404600F061FA641C5B
:100D3000A4B2B442F8D36D1CADB2BD42F2D30648A2
:100D400041880088491EBDE8F041401E8BB282B246
:100D50000021084600F09AB9B000002038B5012102
:100D6000792000F0A7FA4FF4EB54ADF800401020C2
:100D70008DF803000320194D8DF8020069462846BE
:100D8000FFF73CFC21462846FFF78FFC144D4FF43B
:100D90006044ADF8004069462846FFF72FFC214625
:100DA0002846FFF782FC0F4D4FF48044ADF8004019
:100DB00069462846FFF722FC21462846FFF775FCC6
:100DC000094D4FF6FF74ADF8004069462846FFF71D
:100DD00015FC21462846FFF768FC38BD001001408D
:100DE00000140140000C01400018014010B5FFF74D
:100DF000B5FFCF2000F012FA002000F0F9F9C12071
:100E000000F0F6F9302000F0F3F9ED2000F006FADA
:100E1000642000F0EDF9032000F0EAF9122000F060
:100E2000E7F9812000F0E4F9E82000F0F7F98520E7
:100E300000F0DEF9102000F0DBF97A2000F0D8F99C
:100E4000CB2000F0EBF9392000F0D2F92C2000F093
:100E5000CFF9002000F0CCF9342000F0C9F90220CD
:100E600000F0C6F9F72000F0D9F9202000F0C0F911
:100E7000EA2000F0D3F9002000F0BAF9002000F0D9
:100E8000B7F9C02000F0CAF91B2000F0B1F9C12069
:100E900000F0C4F9012000F0ABF9C52000F0BEF964
:100EA000302000F0A5F9302000F0A2F9C72000F0B2
:100EB000B5F9B72000F09CF9362000F0AFF94820D2
:100EC00000F096F93A2000F0A9F9552000F090F9C9
:100ED000B12000F0A3F9002000F08AF91A2000F0F8
:100EE00087F9B62000F09AF90A2000F081F9A220D3
:100EF00000F07EF9F22000F091F9002000F078F97E
:100F0000262000F08BF9012000F072F9E02000F0BB
:100F100085F90F2000F06CF92A2000F069F92820EB
:100F200000F066F9082000F063F90E2000F060F987
:100F3000082000F05DF9542000F05AF9A92000F0D3
:100F400057F9432000F054F90A2000F051F90F201E
:100F500000F04EF9002000F04BF9002000F048F9B5
:100F6000002000F045F9002000F042F9E12000F0F7
:100F700055F9002000F03CF9152000F039F9172050
:100F800000F036F9072000F033F9112000F030F9B5
:100F9000062000F02DF92B2000F02AF9562000F051
:100FA00027F93C2000F024F9052000F021F9102059
:100FB00000F01EF90F2000F01BF93F2000F018F997
:100FC0003F2000F015F90F2000F012F92B2000F05F
:100FD00025F9002000F00CF9002000F009F90120AB
:100FE00000F006F93F2000F003F92A2000F016F97E
:100FF000002000F0FDF8002000F0FAF8002000F0DA
:10100000F7F8EF2000F0F4F8112000F007F978204D
:10101000FFF736FA292000F001F900F023F8024921
:101020000120C1F8A80110BD0000224270B50C4E8D
:1010300005460C46708900F0F1F8280A00F0D8F84F
:10104000E8B200F0D5F8B08900F0E8F8200A00F026
:10105000CFF8E0B200F0CCF8BDE8704000F0F4B892
:10106000B000002008482C21018100218171F0216D
:1010700001804FF4A07141802A2141812B2181817F
:10108000C921362000F0E6B8B00000202DE9F0417B
:10109000DFF8508007461C4615460E46B8F80A0091
:1010A00000F0BCF8380A00F0A3F8F8B200F0A0F89D
:1010B000280A00F09DF8E8B200F09AF8B8F80C00A1
:1010C00000F0ACF8300A00F093F8F0B200F090F8BD
:1010D000200A00F08DF8E0B200F08AF8BDE8F04197
:1010E00000F0B2B8B00000202DE9FF4F81B091466A
:1010F0000EAA834692E83100203800F0FF080298DB
:101100009A4620443649401E83B20BEB54000988AE
:10111000401E009182B258460299FFF7B7FF4FF088
:1011200000067DBB2F4908EB480001EB800B01F264
:10113000744101EB081817E00C2C03D018F8065086
:1011400000270CE01BF80650FAE7E80701D04846F4
:1011500000E0504600F04CF86D087F1CFFB2B7EB82
:10116000540FF2D3761CF6B2A642E5D327E00C2C3E
:1011700009D01D4800EB08100025875D029800EBA0
:10118000060A15E019E0174808EB480100EB81005A
:10119000F2E71349F807A1F8009006D00BEB050021
:1011A0001FFA8AF180B2FFF783FD7F086D1CEDB254
:1011B000B5EB540FEDD3761CF6B2A642D7D308494F
:1011C0000098088009494888401E83B2088805B005
:1011D000401EBDE8F04F82B200210846FFF756BF1F
:1011E00020000020DA9303084E980308B000002086
:1011F000074A10B54FF400511160064940234B6176
:10120000054C20601802141D206010600B6110BD99
:1012100010140140001001400C180140074A10B59D
:101220004FF400511160064B40215961054C20607C
:1012300008021060121F1060196110BD14140140E3
:10124000001001400C18014001480089FFF7E6BF7B
:10125000B000002010B50C46FFF7E0FF2046BDE8C7
:101260001040FFF7C5BFFEE770477047044A0029EA
:10127000516901D0014300E0814351617047000092
:1012800000100240044A0029D16901D0014300E066
:101290008143D1617047000000100240044A0029D8
:1012A000116901D0014300E08143116170470000E2
:1012B00000100240044A0029916901D0014300E076
:1012C000814391617047000000100240044A0029E8
:1012D000D16801D0014300E08143D1607047000034
:1012E00000100240704700000CB500222E4800920A
:1012F0000192016841F4803101604FF4A0630168FC
:1013000001F4003101910099491C0091019911B932
:1013100000999942F3D10168890342D501210191D5
:1013200022490A6842F010020A600A6822F00302A9
:101330000A600A6842F002020A604168416041683E
:101340004160416841F480614160C16A184A1140BE
:10135000C162C16A174A1143C162016841F08061EC
:10136000016001680901FCD5416821F47C114160EC
:10137000416841F4E8114160016841F08071016009
:1013800001688901FCD5416821F003014160416891
:1013900041F0020141604168C1F381010229FAD1A3
:1013A0000CBD01920CBD0000001002400020024064
:1013B00000F0FEFF440601002DE9FF4F83B0884690
:1013C000DDE91054064682464FF00009DFF8F8B018
:1013D000129F21E0B9F1000F24D0BBF80010091BC7
:1013E000B1421CDBBBF80200011B414517DB4FF08B
:1013F0000009402C4AD0282C51D0202C58D0CDE9BF
:101400000057DDE90523182C4146304659D0FFF737
:101410004FF9301986B2AD1C28780028DAD107B010
:10142000BDE8F08FBBF80020A2EB5402B242F6DB1D
:10143000BBF802100A1B41464245F0DB802802D966
:101440004FF00109E8E70D280DD0102C12D910211A
:101450008DE88300DDE9052341463046FFF744FE71
:101460000836B6B210E008EB04001FFA80F85646C2
:101470006D1C09E08DE89100DDE905233046FFF79A
:1014800033FE06EB540086B26D1CC5E7CDE900576C
:10149000DDE9052341463046FFF7D6FAB9E7CDE945
:1014A0000057DDE9052341463046FFF759FAB0E71A
:1014B000CDE90057DDE9052341463046FFF7DEF967
:1014C000A7E7FFF767F9A4E7B00000204FF0E0219D
:1014D0000428086903D020F004000861704740F038
:1014E0000400FAE770470000124810B5016841F0A7
:1014F000010101604168104A1140416001680F4AD2
:1015000011400160016821F480210160416821F4EB
:10151000FE014160016821F0A05101604FF47F019C
:1015200081600021C162FFF7DFFE05494FF00060D6
:10153000086010BD001002400000FFF0FFFFF6FE43
:1015400008ED00E010B50E4C0121204600F056F9E0
:10155000002814D00121204600F060F809490878DD
:10156000401C0870C10708484FF0040103D0BDE8D3
:101570001040FFF798B8BDE81040FFF796B810BDCF
:10158000002C0140040000200014014010B501218E
:101590008C07204600F032F9002815D001212046A2
:1015A00000F03CF809484178491C41700078C107B7
:1015B00007484FF0080103D0BDE81040FFF773B8AB
:1015C000BDE81040FFF771B810BD00000400002016
:1015D0000014014010B50E4C0121204600F00EF918
:1015E000002814D00121204600F018F80949887815
:1015F000401C8870C10708484FF0100103D0BDE8B7
:101600001040FFF750B8BDE81040FFF74EB810BDCE
:10161000000400400400002000140140C94301827E
:1016200070470029018802D041F0010101E021F05A
:1016300001010180704700003EB5044601210220EF
:10164000FFF720FE0F4D284600F020F80E486946AF
:1016500000684009B0FBF4F0401EADF80400002023
:10166000ADF80000ADF80600ADF80200284600F025
:10167000D9F82021284600F0CDF801212846FFF7AF
:10168000D0FF3EBD000400400C0000204B4910B5C7
:10169000884202D10121C41486E0B0F1804F09D004
:1016A000474988420DD101210220FFF7F7FD0021B3
:1016B000022064E001210846FFF7F0FD002101202F
:1016C0005DE04049884206D101210420FFF7E6FD94
:1016D0000021042053E03C49884206D10121082022
:1016E000FFF7DCFD0021082049E03849884206D197
:1016F00001211020FFF7D2FD002110203FE03449E6
:10170000884206D101212020FFF7C8FD00212020BA
:1017100035E03049884202D10121441444E02E4989
:10172000884202D10121CC043EE02C49884202D1FA
:1017300001210C0538E02A49884202D101214C05DB
:1017400032E02849884206D101214020FFF7A6FD5A
:101750000021402013E02449884206D10121802045
:10176000FFF79CFD0021802009E0204988420AD132
:10177000841501212046FFF791FD00212046BDE898
:101780001040FFF78BBD1A49884202D101210C0499
:101790000AE01849884202D101214C0404E01649AC
:1017A00088420AD101218C042046FFF78FFD204694
:1017B000BDE810400021FFF789BD10BD002C01409D
:1017C0000004004000080040000C004000100040F1
:1017D0000014004000340140004C01400050014022
:1017E0000054014000180040001C00400020004050
:1017F00000400140004401400048014002460020F2
:10180000138A92890B4202EA010202D0002A00D018
:1018100001207047828822F07002828082880A4309
:101820008280704730B502881B4C1C4DA0420DD001
:10183000A8420BD0B0F1804F08D0194B984205D088
:10184000184B984202D0184B984203D122F07003F3
:101850004A881A43154B984206D0154B984203D03C
:1018600022F44073CA881A4302808A8882850A88D3
:101870000285A0420AD0A84208D00E4A904205D064
:101880000D4A904202D00D4A904201D1097A018658
:101890000121818230BD0000002C01400034014054
:1018A0000004004000080040000C00400010004010
:1018B0000014004000400140004401400048014045
:1018C000FEE700002DE9FE431CA0FEF7EDFD00251C
:1018D000102422A08DE831004FF6E07843464FF601
:1018E0001F0219212846FFF773F9182021A1CDE91D
:1018F0000010012600234FF4FC6202962D211E20C9
:10190000FFF75AFD1FA08DE831004FF6FF774FF427
:1019100078453B462A464C210020FFF759F920A084
:101920008DE8510000233A4664211846FFF750F92C
:101930002148A0F800804580BDE8FE83444143D3A0
:10194000A6D3C32DB6A8CAB1C6F7B4A5B7A2444D55
:1019500041B4ABCAE4CAB5D1E9000000C4CFBABDF6
:10196000204E5541415F434D335F313037204B4965
:1019700054000000C7B6C8EBCABDCFB5CDB3CAB5D9
:10198000D1E90000444143CAE4B3F6D5FDCFD2B259
:10199000A8D1DDD7E0B6ABB7BDBAECC0D6C7FA0068
:1019A0004B455931BCFCD7E0C0D6204B455932BC21
:1019B000FCCDA3D6B92100002000002002E008C819
:1019C000121F08C1002AFAD170477047002001E0B9
:1019D00001C1121F002AFBD1704700000024FFF74D
:1019E00083FDFEF737FDFEF7ADFDFEF7F5FBFFF7D4
:1019F000FDF9FFF767FF9D4F04213846FEF755FEBE
:101A000008213846FEF751FE10213846FEF74DFEFC
:101A100080213846FEF749FE9548964B002130F864
:101A2000112002EB024243F82120491CC9B22029AF
:101A3000F5D3FEF747FC40F20B20FFF7FDFDFEF764
:101A4000CBFB4FF4967845464046FEF719FD40F231
:101A50009320FFF7F1FD2846FEF712FD4FF4447086
:101A6000FFF7EAFD2846FEF70BFD40F21640FFF7B0
:101A7000E3FD2846FEF704FD00217F48FFF7D1FD76
:101A80007E4A81210020FFF753F8DFF8F4B14FF6CA
:101A9000E0705D46ABF8000040F21B13F0227D21A0
:101AA0000020FFF711F94FF48D73EE227E21012003
:101AB000FFF70AF94FF47840288040F21913ED221D
:101AC0007F210220FFF700F94FF48C73EC22802174
:101AD0000320FFF7F9F8654E4FF480590C364FF4A8
:101AE00000613846FEF7D8FD80B149463846FEF71A
:101AF000D3FDB0B34FF400516248FEF7CDFD88B37B
:101B000001216148FEF7C8FD68B337E001245F4A50
:101B100081210020FFF70CF84FF6E070ABF80000D1
:101B20005D4640F21B13F0227D210020FFF7CCF828
:101B30004FF48D73EE227E210120FFF7C5F84FF49C
:101B40007840288040F21913ED227F210220FFF710
:101B5000BBF84FF48C73EC2280210320FFF7B4F81C
:101B60000CE001E002E008E0022407E00324484A18
:101B700081210020FFF704F800E00424012C21D08B
:101B8000022C67D0032C46D0042CA8D1DFF804A186
:101B9000002549463846FEF77FFD88B33AF8150020
:101BA000FFF74AFD306880F0040030604046FEF7E1
:101BB00067FC08213846FEF778FD6D1CEDB2042D58
:101BC000E7D38CE7DFF8A8A000250AF1400A4946D0
:101BD0003846FEF761FD98B13AF81500FFF72CFD85
:101BE000306880F0040030604046FEF749FC082170
:101BF0003846FEF75AFD6D1CEDB2442DE7D36EE773
:101C0000FFE7022400211C48FFF70BFD04213846A2
:101C1000FEF74BFD63E7DFF858A000250AF1C80A7C
:101C200049463846FEF738FD0028EAD03AF8150054
:101C3000FFF702FD306880F0040030604046FEF798
:101C40001FFC08213846FEF730FD6D1CEDB2702DEB
:101C5000E6D344E700210848FFF7E3FC306880F052
:101C6000080030604046FEF70BFC38E700140140E6
:101C7000989103083000002000040040981C0008E0
:101C80002000002000100140000801409874020864
:101C9000984801084093030800F800F800F800F89D
:101CA00000F800F800F800F800F800F800F800F874
:101CB00000F800F800F800F800F800F800F800F864
:101CC00000F800F800F800F800F800F800F800F854
:101CD00000F8E0FF00F800F800F800F800F800F85D
:101CE00000F800F800F800F800F800F800F800F834
:101CF00000F800F800F800F800F800F800F800F824
:101D000000F800F800F800F8E0FF00F800F800F82C
:101D100000F800F800F800F800F800F800F800F803
:101D200000F800F800F800F800F800F800F800F8F3
:101D300000F800F800F800F800F800F800F800F8E3
:101D400000F800F800F800F800F800F800F800F8D3
:101D500000F800F800F8E0FF00F800F800F800F8DC
:101D600000F800F800F800F800F800F800F800F8B3
:101D700000F800F800F8E0FF00F800F800F800F8BC
:101D800000F800F800F800F800F800F800F800F893
:101D900000F800F8E0FFE0FF00F800F800F800F8B5
:101DA00000F800F800F800F800F800F800F800F873
:101DB00000F800F8E0FFE0FF00F800F800F800F895
:101DC00000F800F800F800F800F800F800F800F853
:101DD00000F800F800F800F800F800F800F800F843
:101DE00000F800F800F800F800F800F800F800F833
:101DF00000F800F800F800F800F800F800F800F823
:101E000000F800F800F800F800F800F800F800F812
:101E100000F800F800F800F800F800F800F800F802
:101E200000F800F800F800F800F800F800F800F8F2
:101E300000F800F800F8E0FF00F800F800F800F8FB
:101E400000F800F800F800F800F800F800F800F8D2
:101E500000F800F800F800F800F800F800F800F8C2
:101E600000F800F800F800F800F800F800F800F8B2
:101E700000F800F800F800F800F800F800F800F8A2
:101E800000F800F800F800F800F800F800F800F892
:101E900000F800F800F800F800F800F800F800F882
:101EA00000F800F800F800F800F800F800F800F872
:101EB00000F800F8E0FF00F800F800F800F800F87B
:101EC00000F800F800F800F800F800F800F800F852
:101ED00000F800F800F800F800F800F800F800F842
:101EE00000F800F800F800F800F8E0FF00F800F84B
:101EF00000F800F800F800F800F800F800F800F822
:101F000000F800F800F800F800F800F800F800F811
:101F100000F800F800F800F800F800F800F800F801
:101F200000F800F800F800F800F800F800F800F8F1
:101F300000F800F800F8E0FF00F800F800F800F8FA
:101F400000F800F800F800F800F800F800F800F8D1
:101F500000F800F800F8E0FF00F800F800F800F8DA
:101F600000F800F800F800F800F800F800F800F8B1
:101F700000F800F8E0FFE0FF00F800F800F800F8D3
:101F800000F800F800F800F800F800F800F800F891
:101F900000F800F8E0FF00F800F800F800F800F89A
:101FA00000F800F800F800F800F800F800F800F871
:101FB00000F800F800F800F800F800F800F800F861
:101FC00000F800F800F800F800F800F800F800F851
:101FD00000F800F800F800F800F800F800F800F841
:101FE00000F800F800F800F800F800F800F800F831
:101FF00000F800F800F800F800F800F800F800F821
:1020000000F800F800F800F800F800F800F800F810
:1020100000F8E0FFE0FF00F800F800F800F800F832
:1020200000F800F800F800F800F800F800F800F8F0
:1020300000F800F800F800F800F800F800F800F8E0
:1020400000F800F800F800F800F800F800F800F8D0
:1020500000F800F800F800F800F800F800F800F8C0
:1020600000F800F800F800F800F800F800F800F8B0
:1020700000F800F800F800F800F800F800F800F8A0
:1020800000F800F800F800F800F800F800F800F890
:1020900000F800F800F8E0FF008400F800F800F80D
:1020A00000F800F800F800F800F800F800F800F870
:1020B00000F800F800F800F800F800F800F800F860
:1020C00000F800F800F800F800F8E0FF00F800F869
:1020D00000F800F800F800F800F800F800F800F840
:1020E00000F800F800F800F800F800F800F800F830
:1020F00000F800F8E0FF00F800F800F800F800F839
:1021000000F800F800F800F800F800F800F800F80F
:1021100000F800F800F8E0FFE0FF00F800F800F831
:1021200000F800F800F800F800F800F800F800F8EF
:1021300000F800F800F8E0FF00F800F800F800F8F8
:1021400000F800F800F800F800F800F800F800F8CF
:1021500000F800F8E0FF00F800F800F800F800F8D8
:1021600000F800F800F800F800F800F800F800F8AF
:1021700000F800F8E0FF00F800F800F800F800F8B8
:1021800000F800F800F800F800F800F800F800F88F
:1021900000F800F800F8E0FF00F800F800F800F898
:1021A00000F800F800F800F800F800F800F800F86F
:1021B00000F800F800F800F800F800F800F800F85F
:1021C00000F800F800F800F800F800F800F800F84F
:1021D00000F800F800F800F800F800F800F800F83F
:1021E00000F800F800F800F800F800F800F800F82F
:1021F000E0FFE0FF00F800F800F800F800F800F851
:1022000000F800F800F800F800F800F800F800F80E
:1022100000F800F800F800F800F800F800F800F8FE
:1022200000F800F800F800F800F800F800F800F8EE
:1022300000F800F800F800F800F800F800F800F8DE
:1022400000F800F800F800F800F800F800F800F8CE
:1022500000F800F800F800F800F800F800F800F8BE
:1022600000F800F800F800F800F800F800F800F8AE
:1022700000F800F800F800F8E0FF00F800F800F8B7
:1022800000F800F800F800F800F800F800F800F88E
:1022900000F800F800F800F800F800F800F800F87E
:1022A00000F800F800F800F800F800F8E0FF00F887
:1022B00000F800F800F800F800F800F800F800F85E
:1022C00000F800F800F800F800F800F800F800F84E
:1022D00000F800F800F8E0FF00F800F800F800F857
:1022E00000F800F800F800F800F800F800F800F82E
:1022F00000F800F800F800F8E0FF00F800F800F837
:1023000000F800F800F800F800F800F800F800F80D
:1023100000F800F800F8E0FF00F800F800F800F816
:1023200000F800F800F800F800F800F800F800F8ED
:1023300000F800F8E0FF00F800F800F800F800F8F6
:1023400000F800F800F800F800F800F800F800F8CD
:1023500000F800F8E0FF00F800F800F800F800F8D6
:1023600000F800F800F800F800F800F800F800F8AD
:1023700000F800F800F8E0FF00F800F800F800F8B6
:1023800000F800F800F800F800F800F800F800F88D
:1023900000F800F800F800F800F800F800F800F87D
:1023A00000F800F800F800F800F800F800F800F86D
:1023B00000F800F800F800F800F800F800F800F85D
:1023C00000F800F800F800F800F800F800F8E0FF66
:1023D000E0FF00F800F800F800F800F800F800F856
:1023E00000F800F800F800F800F800F800F800F82D
:1023F00000F800F800F800F800F800F800F800F81D
:1024000000F800F800F800F800F800F800F800F80C
:1024100000F800F800F800F800F800F800F800F8FC
:1024200000F800F800F800F800F800F800F800F8EC
:1024300000F800F800F800F800F800F800F800F8DC
:1024400000F800F800F800F800F800F800F800F8CC
:1024500000F800F800F800F800F8E0FFE0FF00F8EE
:1024600000F800F800F800F800F800F800F800F8AC
:1024700000F800F800F800F800F800F800F800F89C
:1024800000F800F800F800F800F800F800F800F88C
:1024900000F800F800F800F800F800F800F800F87C
:1024A00000F800F800F800F800F800F800F800F86C
:1024B00000F800F800F8E0FF00F800F800F800F875
:1024C00000F800F800F800F800F800F800F800F84C
:1024D00000F800F800F800F8E0FF00F800F800F855
:1024E00000F800F800F800F800F800F800F800F82C
:1024F00000F800F800F8E0FFE0FF00F800F800F84E
:1025000000F800F800F800F800F800F800F800F80B
:1025100000F800F8E0FF00F800F800F800F800F814
:1025200000F800F800F800F800F800F800F800F8EB
:1025300000F8E0FFE0FF00F800F800F800F800F80D
:1025400000F800F800F800F800F800F800F800F8CB
:1025500000F800F8E0FF00F800F800F800F800F8D4
:1025600000F800F800F800F800F800F800F800F8AB
:1025700000F800F800F800F800F800F800F800F89B
:1025800000F800F800F800F800F800F800F800F88B
:1025900000F800F800F800F800F800F800F800F87B
:1025A00000F800F800F800F800F800F8E0FFE0FF9D
:1025B00000F800F800F800F800F800F800F800F85B
:1025C00000F800F800F800F800F800F800F800F84B
:1025D00000F800F800F800F800F800F800F800F83B
:1025E00000F800F800F800F800F800F800F800F82B
:1025F00000F800F800F800F800F800F800F800F81B
:1026000000F800F800F800F800F800F800F800F80A
:1026100000F800F800F800F800F800F800F800F8FA
:1026200000F800F800F800F800F800F800F800F8EA
:1026300000F800F800F800F800F800F8E0FFE0FF0C
:1026400000F800F800F800F800F800F800F800F8CA
:1026500000F800F800F800F800F800F800F800F8BA
:1026600000F800F800F800F800F800F800F800F8AA
:1026700000F800F800F800F800F800F800F800F89A
:1026800000F800F800F800F800F800F800F800F88A
:1026900000F800F800F800F8E0FF00F800F800F893
:1026A00000F800F800F800F800F800F800F800F86A
:1026B00000F800F800F800F8E0FF008400F800F8E7
:1026C00000F800F800F800F800F800F800F800F84A
:1026D00000F800F800F8E0FFE0FF00F800F800F86C
:1026E00000F800F800F800F800F800F800F800F82A
:1026F00000F800F8E0FF00F800F800F800F800F833
:1027000000F800F800F800F800F800F800F800F809
:1027100000F8E0FF00F800F800F800F800F800F812
:1027200000F800F800F800F800F800F800F800F8E9
:1027300000F8E0FFE0FF00F800F800F800F800F80B
:1027400000F800F800F800F800F800F800F800F8C9
:1027500000F800F800F800F800F800F800F800F8B9
:1027600000F800F800F800F800F800F800F800F8A9
:1027700000F800F800F800F800F800F800F800F899
:1027800000F800F800F800F800F8E0FFE0FF00F8BB
:1027900000F800F800F800F800F800F800F800F879
:1027A00000F800F800F800F800F800F800F800F869
:1027B00000F800F800F800F800F800F800F800F859
:1027C00000F800F800F800F800F800F800F800F849
:1027D00000F800F800F800F800F800F800F800F839
:1027E00000F800F800F800F800F800F800F800F829
:1027F00000F800F800F800F800F800F800F800F819
:1028000000F800F800F800F800F800F800F800F808
:1028100000F800F800F800F800F800F800F8E0FF11
:10282000E0FF00F800F800F800F800F800F800F801
:1028300000F800F800F800F800F800F800F800F8D8
:1028400000F800F800F800F800F800F800F800F8C8
:1028500000F800F800F800F800F800F800F800F8B8
:1028600000F800F800F800F800F800F800F800F8A8
:1028700000F800F800F800F8E0FF00F800F800F8B1
:1028800000F800F800F800F800F800F800F800F888
:1028900000F800F800F800F8E0FFE0FF00F800F8AA
:1028A00000F800F800F800F800F800F800F800F868
:1028B00000F800F800F8E0FFE0FF00F800F800F88A
:1028C00000F800F800F800F800F800F800F800F848
:1028D00000F800F8E0FF00F800F800F800F800F851
:1028E00000F800F800F800F800F800F800F800F828
:1028F00000F8E0FF00F800F800F800F800F800F831
:1029000000F800F800F800F800F800F800F800F807
:1029100000F8E0FF00F800F800F800F800F800F810
:1029200000F800F800F800F800F800F800F800F8E7
:1029300000F800F800F800F800F800F800F800F8D7
:1029400000F800F800F800F800F800F800F800F8C7
:1029500000F800F800F800F800F800F800F800F8B7
:1029600000F800F800F800F8E0FF00F800F800F8C0
:1029700000F800F800F800F800F800F800F800F897
:1029800000F800F800F800F800F800F800F800F887
:1029900000F800F800F800F800F800F800F800F877
:1029A00000F800F800F800F800F800F800F800F867
:1029B00000F800F800F800F800F800F800F800F857
:1029C00000F800F800F800F800F800F800F800F847
:1029D00000F800F800F800F800F800F800F800F837
:1029E00000F800F800F800F800F800F800F800F827
:1029F00000F800F800F800F800F800F800F800F817
:102A0000E0FFE0FF00F800F800F800F800F800F838
:102A100000F800F800F800F800F800F800F800F8F6
:102A200000F800F800F800F800F800F800F800F8E6
:102A300000F800F800F800F800F800F800F800F8D6
:102A400000F800F800F800F800F800F800F800F8C6
:102A500000F800F800F800F800F8E0FF00F800F8CF
:102A600000F800F800F800F800F800F800F800F8A6
:102A700000F800F800F800F800F8E0FF00F800F8AF
:102A800000F800F800F800F800F800F800F800F886
:102A900000F800F800F800F8E0FF00F800F800F88F
:102AA00000F800F800F800F800F800F800F800F866
:102AB00000F800F8E0FF00F800F800F800F800F86F
:102AC00000F800F800F800F800F800F800F800F846
:102AD000E0FFE0FF00F800F800F800F800F800F868
:102AE00000F800F800F800F800F800F800F800F826
:102AF000E0FFE0FF00F800F800F800F800F800F848
:102B000000F800F800F800F800F800F800F800F805
:102B100000F800F800F800F800F800F800F800F8F5
:102B200000F800F800F800F800F800F800F800F8E5
:102B300000F800F800F800F800F800F800F800F8D5
:102B400000F800F800F8E0FF00F800F800F800F8DE
:102B500000F800F800F800F800F800F800F800F8B5
:102B600000F800F800F800F800F800F800F800F8A5
:102B700000F800F800F800F800F800F800F800F895
:102B800000F800F800F800F800F800F800F800F885
:102B900000F800F800F800F800F800F800F800F875
:102BA00000F800F800F800F800F800F800F800F865
:102BB00000F800F800F800F800F800F800F800F855
:102BC00000F800F800F800F800F800F800F800F845
:102BD00000F800F800F800F800F800F800F800F835
:102BE00000F8E0FFE0FF00F800F800F800F800F857
:102BF00000F800F800F800F800F800F800F800F815
:102C000000F800F800F800F800F800F800F800F804
:102C100000F800F800F800F800F800F800F800F8F4
:102C200000F800F800F800F800F800F800F800F8E4
:102C300000F800F800F800F800F8E0FFE0FF00F806
:102C400000F800F800F800F800F800F800F800F8C4
:102C500000F800F800F800F800F8E0FF00F800F8CD
:102C600000F800F800F800F800F800F800F800F8A4
:102C700000F800F800F800F8E0FF00F800F800F8AD
:102C800000F800F800F800F800F800F800F800F884
:102C900000F800F8E0FF00F800F800F800F800F88D
:102CA00000F800F800F800F800F800F800F800F864
:102CB000E0FF00F800F800F800F800F800F800F86D
:102CC00000F800F800F800F800F800F800F800F844
:102CD000E0FF00F800F800F800F800F800F800F84D
:102CE00000F800F800F800F800F800F800F800F824
:102CF00000F800F800F800F800F800F800F800F814
:102D000000F800F800F800F800F800F800F800F803
:102D100000F800F800F800F800F800F800F800F8F3
:102D200000F8E0FFE0FF00F800F800F800F800F815
:102D300000F800F800F800F800F800F800F800F8D3
:102D400000F800F800F800F800F800F800F800F8C3
:102D500000F800F800F800F800F800F800F800F8B3
:102D600000F800F800F800F800F800F800F800F8A3
:102D700000F800F800F800F800F800F800F800F893
:102D800000F800F800F800F800F800F800F800F883
:102D900000F800F800F800F800F800F800F800F873
:102DA00000F800F800F800F800F800F800F800F863
:102DB00000F800F800F800F800F800F800F800F853
:102DC00000F800F8E0FFE0FF00F800F800F800F875
:102DD00000F800F800F800F800F800F800F800F833
:102DE00000F800F800F800F800F800F800F800F823
:102DF00000F800F800F800F800F800F800F800F813
:102E000000F800F800F800F800F800F800F800F802
:102E100000F800F800F800F800F800F8E0FF00F80B
:102E200000F800F800F800F800F800F800F800F8E2
:102E300000F800F800F800F800F8E0FFE0FF00F804
:102E400000F800F800F800F800F800F800F800F8C2
:102E500000F800F800F800F8E0FF00F800F800F8CB
:102E600000F800F800F800F800F800F800F800F8A2
:102E700000F800F8E0FF00F800F800F800F800F8AB
:102E800000F800F800F800F800F800F800F800F882
:102E9000E0FF00F800F800F800F800F800F800F88B
:102EA00000F800F800F800F800F800F800F8E0FF7B
:102EB000E0FF00F800F800F800F800F800F800F86B
:102EC00000F800F800F800F800F800F800F800F842
:102ED00000F800F8E0FF00F800F800F800F800F84B
:102EE00000F800F800F800F800F800F800F800F822
:102EF00000F800F800F800F800F800F800F800F812
:102F0000E0FFE0FF00F800F800F800F800F800F833
:102F100000F800F800F800F800F800F800F800F8F1
:102F200000F800F800F800F800F800F800F800F8E1
:102F300000F800F800F800F800F800F800F800F8D1
:102F400000F800F800F800F800F800F800F800F8C1
:102F500000F800F800F800F800F800F800F800F8B1
:102F600000F800F800F800F800F800F800F800F8A1
:102F700000F800F800F800F800F800F800F800F891
:102F800000F800F800F800F800F800F800F800F881
:102F900000F800F800F800F800F800F800F800F871
:102FA00000F800F800F800F8E0FF00F800F800F87A
:102FB00000F800F800F800F800F800F800F800F851
:102FC00000F800F800F800F800F800F800F800F841
:102FD00000F800F800F800F8E0FF00F800F800F84A
:102FE00000F800F800F800F800F800F800F800F821
:102FF00000F800F800F800F800F800F8E0FFE0FF43
:1030000000F800F800F800F800F800F800F800F800
:1030100000F800F800F800F800F800F8E0FF00F809
:1030200000F800F800F800F800F800F800F800F8E0
:1030300000F800F800F800F800F800F800F800F8D0
:1030400000F800F800F800F800F800F800F800F8C0
:1030500000F800F800F800F800F800F800F800F8B0
:1030600000F800F800F800F800F800F800F800F8A0
:10307000E0FF00F800F800F800F800F800F800F8A9
:1030800000F800F800F800F800F800F800F8E0FF99
:1030900000F800F800F800F800F800F800F800F870
:1030A00000F800F800F800F800F800F800F800F860
:1030B00000F8E0FF00F800F800F800F800F800F869
:1030C00000F800F800F800F800F800F800F800F840
:1030D00000F800F800F800F800F800F800F8E0FF49
:1030E000E0FF00F800F800F800F800F800F800F839
:1030F00000F800F800F800F800F800F800F800F810
:1031000000F800F800F800F800F800F800F800F8FF
:1031100000F800F800F800F800F800F800F800F8EF
:1031200000F800F800F800F800F800F800F800F8DF
:1031300000F800F800F800F800F800F800F800F8CF
:1031400000F800F800F800F800F800F800F800F8BF
:1031500000F800F800F800F800F800F800F800F8AF
:1031600000F800F800F800F800F800F800F800F89F
:1031700000F800F800F800F800F800F800F800F88F
:1031800000F800F800F800F800F8E0FF00F800F898
:1031900000F800F800F800F800F800F800F800F86F
:1031A00000F800F800F800F800F800F800F800F85F
:1031B00000F800F800F800F800F8E0FF00F800F868
:1031C00000F800F800F800F800F800F800F800F83F
:1031D00000F800F800F800F800F800F800F8E0FF48
:1031E00000F800F800F800F800F800F800F800F81F
:1031F00000F800F800F800F800F800F8E0FF00F828
:1032000000F800F800F800F800F800F800F800F8FE
:1032100000F800F800F800F800F800F800F800F8EE
:1032200000F800F800F800F800F800F800F800F8DE
:1032300000F800F800F800F800F800F800F800F8CE
:1032400000F800F800F800F800F800F800F8E0FFD7
:1032500000F800F800F800F800F800F800F800F8AE
:1032600000F800F800F800F800F800F8E0FFE0FFD0
:1032700000F800F800F800F800F800F800F800F88E
:1032800000F800F800F800F800F800F800F800F87E
:10329000E0FF00F800F800F800F800F800F800F887
:1032A00000F800F800F800F800F800F800F800F85E
:1032B00000F800F800F800F800F800F8E0FFE0FF80
:1032C00000F800F800F800F800F800F800F800F83E
:1032D00000F800F800F800F800F800F800F800F82E
:1032E00000F800F800F800F800F800F800F800F81E
:1032F00000F800F800F800F800F800F800F800F80E
:1033000000F800F800F800F800F800F800F800F8FD
:1033100000F800F800F800F800F800F800F800F8ED
:1033200000F800F800F800F800F800F800F800F8DD
:1033300000F800F800F800F800F800F800F800F8CD
:1033400000F800F800F800F800F800F800F800F8BD
:1033500000F800F800F800F800F800F800F800F8AD
:1033600000F800F800F800F800F800F8E0FF00F8B6
:1033700000F800F800F800F800F800F800F800F88D
:1033800000F800F800F800F800F800F800F800F87D
:1033900000F800F800F800F800F8E0FFE0FF00F89F
:1033A00000F800F800F800F800F800F800F800F85D
:1033B00000F800F800F800F800F800F800F8E0FF66
:1033C000E0FF00F800F800F800F800F800F800F856
:1033D00000F800F800F800F800F800F800F800F82D
:1033E00000F800F800F800F800F800F800F800F81D
:1033F00000F800F800F800F800F800F800F800F80D
:1034000000F800F800F800F800F800F800F800F8FC
:1034100000F800F800F800F800F800F800F800F8EC
:1034200000F800F800F800F800F800F800F800F8DC
:1034300000F800F800F800F800F800F800F800F8CC
:1034400000F800F800F800F800F800F8E0FF00F8D5
:1034500000F800F800F800F800F800F800F800F8AC
:1034600000F800F800F800F800F800F800F8E0FFB5
:10347000E0FF00F800F800F800F800F800F800F8A5
:1034800000F800F800F800F800F800F800F800F87C
:1034900000F800F800F800F800F800F800F800F86C
:1034A00000F800F800F800F800F800F800F800F85C
:1034B00000F800F800F800F800F800F800F800F84C
:1034C00000F800F800F800F800F800F800F800F83C
:1034D00000F800F800F800F800F8008400F800F8A0
:1034E00000F800F800F800F800F800F800F800F81C
:1034F00000F800F800F800F800F800F800F800F80C
:1035000000F800F800F800F800F800F800F800F8FB
:1035100000F800F800F800F800F800F800F800F8EB
:1035200000F800F800F800F800F800F800F800F8DB
:1035300000F800F800F800F800F800F800F800F8CB
:1035400000F800F800F800F800F800F800F8E0FFD4
:1035500000F800F800F800F800F800F800F800F8AB
:1035600000F800F800F800F800F800F800F800F89B
:1035700000F800F800F800F800F800F8E0FFE0FFBD
:1035800000F800F800F800F800F800F800F800F87B
:1035900000F800F800F800F800F800F800F800F86B
:1035A000E0FF00F800F800F800F800F800F800F874
:1035B00000F800F800F800F800F800F800F800F84B
:1035C00000F800F800F800F800F800F800F800F83B
:1035D00000F800F800F800F800F800F800F800F82B
:1035E00000F800F800F800F800F800F800F800F81B
:1035F00000F800F800F800F800F800F800F800F80B
:1036000000F800F800F800F800F800F800F800F8FA
:1036100000F800F800F800F800F800F800F800F8EA
:1036200000F800F800F800F800F8E0FFE0FF00F80C
:1036300000F800F800F800F800F800F800F800F8CA
:1036400000F800F800F800F800F800F8E0FFE0FFEC
:1036500000F800F800F800F800F800F800F800F8AA
:1036600000F800F800F800F800F800F800F800F89A
:1036700000F800F800F800F800F800F800F800F88A
:1036800000F800F800F800F800F800F800F800F87A
:1036900000F800F800F800F800F800F800F800F86A
:1036A00000F800F800F800F800F800F800F800F85A
:1036B00000F800F800F8E0FFE0FF00F800F800F87C
:1036C00000F800F800F800F800F800F800F800F83A
:1036D00000F800F800F800F800F800F800F800F82A
:1036E00000F800F800F800F800F800F800F800F81A
:1036F00000F800F800F800F800F800F800F800F80A
:1037000000F800F800F800F800F800F800F800F8F9
:1037100000F800F800F800F800F800F800F800F8E9
:1037200000F800F800F800F800F800F800F800F8D9
:10373000E0FF00F800F800F800F800F800F800F8E2
:1037400000F800F800F800F800F800F800F800F8B9
:1037500000F800F800F800F800F800F800F8E0FFC2
:1037600000F800F800F800F800F800F800F800F899
:1037700000F800F800F800F800F800F800F800F889
:10378000E0FFE0FF00F800F800F800F800F800F8AB
:1037900000F800F800F800F800F800F800F800F869
:1037A00000F800F800F800F800F800F800F800F859
:1037B00000F800F800F800F800F800F800F800F849
:1037C00000F800F800F800F800F800F800F800F839
:1037D00000F800F800F800F800F800F800F800F829
:1037E00000F800F800F800F800F800F800F800F819
:1037F00000F800F800F800F800F800F800F800F809
:1038000000F800F800F800F800F8E0FF00F800F811
:1038100000F800F800F800F800F800F800F800F8E8
:1038200000F800F800F800F800F800F8E0FF00F8F1
:1038300000F800F800F800F800F800F800F800F8C8
:1038400000F800F800F800F800F800F800F800F8B8
:1038500000F800F800F800F800F800F800F800F8A8
:1038600000F800F800F800F800F800F800F800F898
:1038700000F800F800F800F800F800F800F800F888
:1038800000F800F800F800F800F800F800F800F878
:1038900000F8E0FFE0FF00F800F800F800F800F89A
:1038A00000F800F800F800F800F800F800F800F858
:1038B00000F800F800F800F800F800F800F800F848
:1038C00000F800F800F800F800F800F800F800F838
:1038D00000F800F8E0FF00F800F800F800F800F841
:1038E00000F800F800F800F800F800F800F800F818
:1038F00000F800F800F800F800F800F800F800F808
:1039000000F800F800F800F800F800F800F800F8F7
:1039100000F800F800F800F800F800F800F800F8E7
:1039200000F800F800F800F800F800F800F800F8D7
:1039300000F800F800F800F800F800F800F800F8C7
:10394000E0FF00F800F800F800F800F800F800F8D0
:1039500000F800F800F800F800F800F800F800F8A7
:1039600000F8E0FF00F800F800F800F800F800F8B0
:1039700000F800F800F800F800F800F800F800F887
:1039800000F800F800F800F800F800F800F800F877
:1039900000F800F800F800F800F800F800F800F867
:1039A00000F800F800F800F800F800F800F800F857
:1039B00000F800F800F800F800F800F800F800F847
:1039C00000F800F800F800F800F800F800F800F837
:1039D00000F800F800F800F800F800F800F800F827
:1039E00000F800F800F800F8E0FF00F800F800F830
:1039F00000F800F800F800F800F800F800F800F807
:103A000000F800F800F800F800F8E0FF00F800F80F
:103A100000F800F800F800F800F800F800F800F8E6
:103A200000F800F800F800F800F800F800F800F8D6
:103A300000F800F800F800F800F800F800F800F8C6
:103A400000F800F800F800F800F800F800F800F8B6
:103A500000F800F800F800F800F800F800F800F8A6
:103A600000F800F800F800F800F800F800F800F896
:103A7000E0FFE0FF00F800F800F800F800F800F8B8
:103A800000F800F800F800F800F800F800F800F876
:103A900000F800F800F800F800F800F800F800F866
:103AA00000F800F800F800F800F800F800F800F856
:103AB00000F800F800F8E0FFE0FF00F800F800F878
:103AC00000F800F800F800F800F800F800F800F836
:103AD00000F800F800F800F800F800F800F800F826
:103AE00000F800F800F800F800F800F800F800F816
:103AF00000F800F800F800F800F800F800F800F806
:103B000000F800F800F800F800F800F800F800F8F5
:103B100000F800F800F800F800F800F800F800F8E5
:103B2000E0FFE0FF00F800F800F800F800F800F807
:103B300000F800F800F800F800F800F800F800F8C5
:103B400000F800F800F800F800F800F800F800F8B5
:103B500000F800F800F800F800F800F800F800F8A5
:103B600000F800F800F800F800F800F800F800F895
:103B700000F800F800F800F800F800F800F800F885
:103B800000F800F800F800F800F800F800F800F875
:103B900000F800F800F800F800F800F800F800F865
:103BA00000F800F800F800F800F800F800F800F855
:103BB00000F800F800F800F800F800F800F800F845
:103BC00000F800F800F800F800F800F800F800F835
:103BD00000F800F800F800F800F800F800F800F825
:103BE00000F800F800F800F8E0FF00F800F800F82E
:103BF00000F800F800F800F800F800F800F800F805
:103C000000F800F800F800F800F800F800F800F8F4
:103C100000F800F800F800F800F800F800F800F8E4
:103C200000F800F800F800F800F800F800F800F8D4
:103C300000F800F800F800F800F800F800F800F8C4
:103C400000F800F800F800F800F800F8E0FFE0FFE6
:103C500000F800F800F800F800F800F800F800F8A4
:103C600000F800F800F800F800F800F800F800F894
:103C700000F800F800F800F800F800F800F800F884
:103C800000F800F800F800F800F800F800F800F874
:103C900000F800F800F800F800F8E0FFE0FF00F896
:103CA00000F800F800F800F800F800F800F800F854
:103CB00000F800F800F800F800F800F800F800F844
:103CC00000F800F800F800F800F800F800F800F834
:103CD00000F800F800F800F800F800F800F800F824
:103CE00000F800F800F800F800F800F800F800F814
:103CF00000F800F800F800F800F800F800F800F804
:103D000000F8E0FFE0FF00F800F800F800F800F825
:103D100000F800F800F800F800F800F800F800F8E3
:103D200000F800F800F800F800F800F800F800F8D3
:103D300000F800F800F800F800F800F800F800F8C3
:103D400000F800F800F800F800F800F800F800F8B3
:103D500000F800F800F800F800F800F800F800F8A3
:103D600000F800F800F800F800F800F800F800F893
:103D700000F800F800F800F800F800F800F800F883
:103D800000F800F800F800F800F800F800F800F873
:103D900000F800F800F800F800F800F800F800F863
:103DA00000F800F800F8008400840080108000F81B
:103DB00000F800F800F800F800F800F800F800F843
:103DC00000F800F800F8E0FFE0FF00F800F800F865
:103DD00000F800F800F800F800F800F800F800F823
:103DE00000F800F800F800F800F800F800F800F813
:103DF00000F800F800F800F800F800F800F800F803
:103E000000F800F800F800F800F800F800F800F8F2
:103E100000F800F800F800F800F800F800F800F8E2
:103E200000F800F800F800F800F8E0FFE0FF00F804
:103E300000F800F800F800F800F800F800F800F8C2
:103E400000F800F800F800F800F800F800F800F8B2
:103E500000F800F800F800F800F800F800F800F8A2
:103E600000F800F800F800F800F800F800F800F892
:103E700000F800F800F800F800F800F8E0FFE0FFB4
:103E8000E0FF00F800F800F800F800F800F800F88B
:103E900000F800F800F800F800F800F800F800F862
:103EA00000F800F800F800F800F800F800F800F852
:103EB00000F800F800F800F800F800F800F800F842
:103EC00000F800F800F800F800F800F800F800F832
:103ED00000F800F800F800F800F800F800F800F822
:103EE00000F800F8E0FFE0FF00F800F800F800F844
:103EF00000F800F800F800F800F800F800F800F802
:103F000000F800F800F800F800F800F800F800F8F1
:103F100000F800F800F800F800F800F800F800F8E1
:103F200000F800F800F800F800F800F800F800F8D1
:103F300000F800F800F800F800F8E0FF00F800F8DA
:103F400000F800F800F800F800F800F800F800F8B1
:103F500000F8E0FF00F800F800F800F800F800F8BA
:103F600000F800F800F800F800F800F800F800F891
:103F700000F800F800F800F800F800F80080008071
:103F8000008000001000000000040080008000801D
:103F900010841084008000F800F800F800F800F8A1
:103FA00000F800F8E0FFE0FF00F800F800F800F883
:103FB00000F800F800F800F800F800F800F800F841
:103FC00000F800F800F800F800F800F800F8E0FF4A
:103FD00000F800F800F800F800F800F800F800F821
:103FE00000F800F800F800F800F800F800F800F811
:103FF00000F800F800F800F800F800F800F800F801
:1040000000F800F800F8E0FFE0FF00F800F800F822
:1040100000F800F800F800F800F800F800F800F8E0
:1040200000F800F800F800F800F800F800F800F8D0
:1040300000F800F800F800F800F800F800F800F8C0
:1040400000F800F800F800F800F800F800F800F8B0
:1040500000F800F800F800F800F800F800F800F8A0
:10406000E0FFE0FF00F800F800F800F800F800F8C2
:1040700000F800F800F800F800F800F800F800F880
:1040800000F800F800F800F800F800F800F800F870
:1040900000F800F800F800F800F800F800F800F860
:1040A00000F800F800F800F800F800F800F800F850
:1040B00000F800F800F800F800F800F800F800F840
:1040C00000F800F800F8E0FF00F800F800F800F849
:1040D00000F800F800F800F800F800F800F800F820
:1040E00000F800F800F800F800F800F800F800F810
:1040F00000F800F800F800F800F800F800F800F800
:1041000000F800F800F800F800F800F800F800F8EF
:1041100000F800F800F800F800F8E0FF00F800F8F8
:1041200000F800F800F800F800F800F800F800F8CF
:1041300000F8E0FF00F800F800F800F800F800F8D8
:1041400000F800F800F800F800F800F800F800F8AF
:1041500000F800F800F800F80080000000000000FF
:10416000000000000000000000000000000000004F
:10417000000000001080008000F800F800F800F84F
:1041800000F800F8E0FF00F800F800F800F800F888
:1041900000F800F800F800F800F800F800F800F85F
:1041A00000F800F800F800F800F800F8E0FF00F868
:1041B00000F800F800F800F800F800F800F800F83F
:1041C00000F800F800F800F800F800F800F800F82F
:1041D00000F800F800F800F800F800F800F800F81F
:1041E00000F8E0FFE0FFE0FF00F800F800F800F85A
:1041F00000F800F800F800F800F800F800F800F8FF
:1042000000F800F800F800F800F800F800F800F8EE
:1042100000F800F800F800F800F800F800F800F8DE
:1042200000F800F800F800F800F800F800F800F8CE
:1042300000F800F800F800F800F800F800F800F8BE
:1042400000F800F8E0FFE0FF00F800F800F800F8E0
:1042500000F800F800F800F800F800F800F800F89E
:1042600000F800F800F800F800F800F800F81084F2
:1042700000F800F800F800F800F800F800F800F87E
:10428000E0FF00F800F800F800F800F800F800F887
:1042900000F800F800F800F800F800F800F800F85E
:1042A00000F800F800F800F8E0FF00F800F800F867
:1042B00000F800F800F800F800F800F800F800F83E
:1042C00000F800F800F800F800F800F800F800F82E
:1042D00000F800F800F800F800F800F800F800F81E
:1042E00000F8E0FF00F800F800F800F800F800F827
:1042F00000F800F800F800F800F8E0FF00F800F817
:1043000000F800F800F800F800F800F800F800F8ED
:1043100000F8E0FF00F800F800F800F800F800F8F6
:1043200000F800F800F800F800F8E0FF00F800F8E6
:1043300000F8008000840000000000000000000081
:10434000000000000000000000000000000000006D
:1043500000000000000010000000008000F800F8DD
:1043600000F8E0FF00F800F800F800F800F800F8A6
:1043700000F800F800F800F800F800F800F800F87D
:1043800000F800F800F800F8E0FFE0FF00F800F89F
:1043900000F800F800F800F800F800F800F800F85D
:1043A00000F800F800F800F800F800F800F800F84D
:1043B00000F800F800F800F800F800F800F800F83D
:1043C000E0FFE0FF00F800F800F800F800F800F85F
:1043D00000F800F800F800F800F800F800F800F81D
:1043E00000F800F800F800F800F800F800F800F80D
:1043F00000F800F800F800F800F800F800F800F8FD
:1044000000F800F800F800F800F800F800F800F8EC
:1044100000F800F800F800F800F800F800F800F8DC
:1044200000F800F800F8E0FFE0FF00F800F800F8FE
:1044300000F800F800F800F800F800F800F800F8BC
:1044400010841084108400F800F800F810841084A0
:10445000108400F800F800F800F800F800F800F800
:10446000E0FFE0FF00F800F800F800F800F800F8BE
:1044700000F800F800F800F800F800F800F800F87C
:1044800000F800F800F800F8E0FFE0FF00F800F89E
:1044900000F800F800F800F800F800F800F800F85C
:1044A00000F800F800F800F800F800F800F800F84C
:1044B00000F800F800F800F800F800F800F800F83C
:1044C00000F800F8E0FF00F800F800F800F800F845
:1044D00000F800F800F800F800F8E0FF00F800F835
:1044E00000F800F800F800F800F800F800F800F80C
:1044F00000F8E0FF00F800F800F800F800F800F815
:1045000000F800F800F800F800F8E0FF00F8008478
:104510001084000000000000000000000000000007
:10452000000000000000000000000000000000008B
:10453000000000000000000000000000008000F803
:10454000E0FF00F800F800F800F800F800F800F8C4
:1045500000F800F800F800F800F800F800F800F89B
:1045600000F800F800F8E0FFE0FF00F800F800F8BD
:1045700000F800F800F800F800F800F800F800F87B
:1045800000F800F800F800F800F800F800F800F86B
:1045900000F800F800F800F800F800F8E0FFE0FF8D
:1045A00000F800F800F800F800F800F800F800F84B
:1045B00000F800F800F800F800F800F800F800F83B
:1045C00000F800F800F800F800F800F800F800F82B
:1045D00000F800F800F800F800F800F800F800F81B
:1045E00000F800F800F800F800F800F800F800F80B
:1045F00000F800F800F800F800F800F800F800F8FB
:1046000000F800F800F800F800F8E0FFE0FF00F81C
:1046100000F800F800F800F800F800F800F800F8DA
:10462000108410841084108400F800F800F81084BE
:104630001084108400F800F800F800F800F800F882
:1046400000F800F8E0FF00F800F800F800F800F8C3
:1046500000F800F800F800F800F800F800F800F89A
:1046600000F800F800F800F800F8E0FF00F800F8A3
:1046700000F800F800F800F800F800F800F800F87A
:1046800000F800F800F800F800F800F800F800F86A
:1046900000F800F800F800F800F800F800F800F85A
:1046A00000F800F8E0FF00F800F800F800F800F863
:1046B00000F800F800F800F800F8E0FFE0FF00F86C
:1046C00000F800F800F800F800F800F800F800F82A
:1046D00000F8E0FF00F800F800F800F800F800F833
:1046E00000F800F800F800F8E0FF1084108410844F
:1046F000108410841084108410841084008400803E
:1047000000000000000000000000000000000000A9
:104710000000000000000000000000000000008415
:1047200000F800F800F800F800F800F800F800F8C9
:1047300000F800F800F800F800F800F800F800F8B9
:1047400000F800F8E0FFE0FF00F800F800F800F8DB
:1047500000F800F800F800F800F800F800F800F899
:1047600000F800F800F800F800F800F800F800F889
:1047700000F800F800F800F800F8E0FFE0FF00F8AB
:1047800000F800F800F800F800F800F800F800F869
:1047900000F800F800F800F800F800F800F800F859
:1047A00000F800F800F800F800F800F800F800F849
:1047B00000F800F800F800F800F800F800F800F839
:1047C00000F800F800F800F800F800F800F800F829
:1047D00000F800F800F800F800F800F800F800F819
:1047E00000F800F800F800F800F800F8E0FFE0FF3B
:1047F00000F800F800F800F800F800F800F800F8F9
:104800000084108410841084108400F800F8108450
:1048100010841084108400F800F800F800F800F804
:1048200000F800F80084E0FF00F800F800F800F855
:1048300000F800F800F800F800F800F800F800F8B8
:1048400000F800F800F800F800F800F800F800F8A8
:1048500000F800F800F800F800F800F800F800F898
:1048600000F800F800F800F800F800F800F800F888
:1048700000F800F800F800F800F800F800F800F878
:1048800000F800F8E0FF00F800F800F800F800F881
:1048900000F800F800F800F800F8E0FFE0FF00F88A
:1048A00000F800F800F800F800F800F800F800F848
:1048B000E0FFE0FF00F800F800F800F800F800F86A
:1048C00000F800F810841084108410841084108480
:1048D0001084108410841084108410841084108438
:1048E0000084008000000080000000000000000044
:1048F00000000000000000000000000000000000B8
:10490000008000F800F800F800F800F800F800F85F
:1049100000F800F800F800F800F800F800F800F8D7
:1049200000F8E0FFE0FF00F800F800F800F800F8F9
:1049300000F800F800F800F800F800F800F800F8B7
:1049400000F800F800F800F800F800F800F800F8A7
:1049500000F800F800F8E0FFE0FF00F800F800F8C9
:1049600000F800F800F800F800F800F800F800F887
:1049700000F800F800F800F800F800F800F800F877
:1049800000F800F800F800F800F800F800F800F867
:1049900000F800F800F800F800F800F800F800F857
:1049A00000F800F800F800F800F800F800F800F847
:1049B00000F800F800F800F800F800F800F800F837
:1049C00000F800F800F800F800F800F800F800F827
:1049D000E0FFE0FF00F800F800F800F81084108411
:1049E00010841084108410841084108400F800F85F
:1049F000108410841084108400F800F800F800F887
:104A000000F800F800F800F8E0FFE0FF00F800F818
:104A100000F800F800F800F800F800F800F800F8D6
:104A200000F800F800F800F800F800F800F800F8C6
:104A300000F800F800F800F800F800F800F800F8B6
:104A400000F800F800F800F800F800F8E0FF00F8BF
:104A500000F800F800F800F800F800F800F800F896
:104A600000F800F8E0FFE0FF00F800F800F800F8B8
:104A700000F800F800F800F800F800F8E0FF00F88F
:104A800000F800F800F800F800F800F800F800F866
:104A9000E0FFE0FF00F800F800F800F81084108450
:104AA00018C610841084108410841084108410841C
:104AB0001084108410841084108410841084008466
:104AC00000840080008000000080000000000000E2
:104AD00000000000000000000000000000000000D6
:104AE0000000008000F800F800F800F800F800F876
:104AF00000F800F800F800F800F800F800F800F8F6
:104B0000E0FFE0FF00F800F800F800F800F800F817
:104B100000F800F800F800F800F800F800F800F8D5
:104B200000F800F800F800F800F800F800F800F8C5
:104B300000F800F8E0FF00F800F800F800F800F8CE
:104B400000F800F800F800F800F800F800F800F8A5
:104B500000F800F800F800F800F800F800F800F895
:104B600000F800F800F800F800F800F800F800F885
:104B700000F800F800F800F800F800F800F800F875
:104B800000F800F800F800F800F800F800F800F865
:104B900000F800F800F800F800F800F800F800F855
:104BA00000F800F800F800F800F800F800F800F845
:104BB00000F800F8E0FF008400F800F8108410848A
:104BC000108410841084108410841084008400F8F1
:104BD00000F8108410841084108400F800F800F8A5
:104BE00000F800F800F800F800F8E0FFE0FF00F837
:104BF00000F800F800F800F800F800F800F800F8F5
:104C000000F800F800F800F800F800F800F800F8E4
:104C100000F800F800F800F800F800F800F800F8D4
:104C200000F800F800F800F800F800F8E0FFE0FFF6
:104C300000F800F800F800F800F800F800F800F8B4
:104C400000F800F800F8E0FF00F800F800F800F8BD
:104C500000F800F800F800F800F800F8E0FF00F8AD
:104C600000F800F800F800F800F800F800F800F884
:104C7000E0FFE0FF00F800F800F8108410841084D2
:104C80001084108410841084108410841084108484
:104C90001084108418C618C61084108410840084F0
:104CA0000080000000000000000000000000000084
:104CB00000000000000000000000000000000000F4
:104CC0000000008000F800F800F800F800F800F894
:104CD00000F800F800F800F800F800F800F8E0FF2D
:104CE000E0FF00F800F800F800F800F800F800F81D
:104CF00000F800F800F800F800F800F800F800F8F4
:104D000000F800F800F800F800F800F800F800F8E3
:104D100000F800F800F800F800F800F800F800F8D3
:104D200000F800F800F800F800F800F800F800F8C3
:104D300000F800F800F800F800F800F800F800F8B3
:104D400000F800F800F800F800F800F800F800F8A3
:104D500000F800F800F800F800F800F800F800F893
:104D600000F800F800F800F800F800F800F800F883
:104D700000F800F800F800F800F800F800F800F873
:104D800000F800F800F800F800F800F800F800F863
:104D900000F800F800F800F8E0FF00F800F81084D0
:104DA0001084108400841084108410841084108473
:104DB00000F800F81084108410841084108418C641
:104DC000108400F800F800F800F800F8E0FFE0FFB9
:104DD00000F800F800F800F800F800F800F800F813
:104DE00000F800F800F800F800F800F800F800F803
:104DF00000F800F800F800F800F800F800F800F8F3
:104E000000F800F800F800F800F800F800F8E0FFFB
:104E100000F800F800F800F800F800F800F800F8D2
:104E200000F800F800F8E0FF00F800F800F800F8DB
:104E300000F800F800F800F800F800F8E0FF00F8CB
:104E400000F800F800F800F800F800F800F800F8A2
:104E5000E0FF00F800F8108410841084108410849F
:104E6000108410841084108418C6108418C618C6C4
:104E700018C6108410841084108410840080008070
:104E80000000000000000000000000000000000022
:104E90000000000000000000000000000000000012
:104EA00000000000008000F800F800F800F800F8AA
:104EB00000F800F800F800F800F800F8E0FF00F84B
:104EC00000F800F800F800F800F800F800F800F822
:104ED00000F800F800F800F800F800F800F800F812
:104EE00000F800F800F800F800F800F800F800F802
:104EF00000F800F800F800F800F800F800F800F8F2
:104F000000F800F800F800F800F800F800F800F8E1
:104F100000F800F800F800F800F800F800F800F8D1
:104F200000F800F800F800F800F800F800F800F8C1
:104F300000F800F800F800F800F800F800F800F8B1
:104F400000F800F800F800F800F800F800F800F8A1
:104F500000F800F800F800F800F800F800F800F891
:104F600000F800F800F800F800F800F800F800F881
:104F700000F800F800F800F800F800F800F800F871
:104F80001084108410841084108410841084108481
:104F9000008400F8008410841084108418C618C699
:104FA000108400F800F800F800F800F800F8E0FFBE
:104FB000E0FF00F800F800F800F800F800F800F84A
:104FC00000F800F800F800F800F800F800F800F821
:104FD00000F800F800F800F800F800F800F800F811
:104FE00000F800F800F800F800F800F800F8E0FF1A
:104FF000E0FF00F800F800F800F800F800F800F80A
:1050000000F800F800F8E0FF00F800F800F800F8F9
:1050100000F800F800F800F800F800F8E0FF00F8E9
:1050200000F800F800F800F800F800F800F800F8C0
:10503000E0FF00F810841084108410841084108421
:10504000108410841084108418C618C618C618C698
:1050500018C618C618C6108410840084008000800A
:105060000000000000000000000000000000000040
:105070000000000000000000000000000000000030
:1050800000000000000000F800F800F800F800F848
:1050900000F800F800F800F800F8E0FF00F800F869
:1050A00000F800F800F800F800F800F800F800F840
:1050B00000F800F800F800F800F800F800F800F830
:1050C00000F800F800F800F800F800F800F800F820
:1050D00000F800F800F800F800F800F800F800F810
:1050E00000F800F800F800F800F800F800F800F800
:1050F00000F800F800F800F800F800F800F800F8F0
:1051000000F800F800F800F800F800F800F800F8DF
:1051100000F800F800F800F800F800F800F800F8CF
:1051200000F800F800F800F800F800F800F800F8BF
:1051300000F800F800F800F800F800F800F800F8AF
:1051400000F800F800F800F800F800F800F800F89F
:1051500000F800F800F800F800F800F800F800F88F
:1051600000F800F8108410840084108410841084E7
:105170001084008000F8108410841084108418C6F5
:1051800018C600F800F800F800F800F800F800F879
:10519000E0FFE0FF00F800F800F800F800F800F881
:1051A00000F800F800F800F800F800F800F800F83F
:1051B00000F800F800F800F800F800F800F800F82F
:1051C00000F800F800F800F800F800F800F800F81F
:1051D000E0FF00F800F800F800F800F800F800F828
:1051E00000F800F800F8E0FFE0FF00F800F800F831
:1051F00000F800F800F800F800F800F8E0FF00F808
:1052000000F800F800F800F800F800F800F800F8DE
:10521000E0FF1084108410841084108410841084A3
:1052200010841084108418C618C618C618C618C66C
:1052300018C618C610840084008400840080000012
:1052400000000000008400000000000000000000DA
:10525000000000000000000000000000000000004E
:10526000008000000084108400F800F800F800F8C6
:1052700000F800F800F800F8E0FF00F800F800F887
:1052800000F800F800F800F800F800F800F800F85E
:1052900000F800F800F800F800F800F800F800F84E
:1052A00000F800F800F800F800F800F800F800F83E
:1052B00000F800F800F800F800F800F800F800F82E
:1052C00000F800F800F800F800F800F800F800F81E
:1052D00000F800F800F800F800F800F800F800F80E
:1052E00000F800F800F800F800F800F800F800F8FE
:1052F00000F800F800F800F800F800F800F800F8EE
:1053000000F800F800F800F800F800F800F800F8DD
:1053100000F800F800F800F800F800F800F800F8CD
:1053200000F800F800F800F800F800F800F800F8BD
:1053300000F800F800F800F800F800F800F8108411
:1053400010841084108410841084108410841084BD
:105350001084008400F81084108410841084108459
:1053600018C618C600F800F800F800F800F800F8B1
:1053700000F8E0FFE0FF00F800F800F800F800F89F
:1053800000F800F800F800F800F800F800F800F85D
:1053900000F800F800F800F800F800F800F800F84D
:1053A00000F800F800F800F800F800F800F800F83D
:1053B000E0FFE0FF00F800F800F800F800F800F85F
:1053C00000F800F800F800F8E0FF00F800F800F836
:1053D00000F800F800F800F800F800F800F800F80D
:1053E00000F800F800F800F800F800F800F800F8FD
:1053F000108410841084108410841084108410840D
:105400001084108418C618C618C618C618C618C640
:1054100018C618C610841084108400840080008090
:10542000000000000000000000000000000000007C
:10543000000000000000000000000000000000006C
:105440000084000000841080008000F800F800F85C
:1054500000F800F800F8E0FF00F800F800F800F8A5
:1054600000F800F800F800F800F800F800F800F87C
:1054700000F800F800F800F800F800F800F800F86C
:1054800000F800F8008400F800F800F800F800F8D0
:1054900000F800F800F800F800F800F800F800F84C
:1054A00000F800F800F800F800F800F800F800F83C
:1054B00000F800F800F800F800F800F800F800F82C
:1054C00000F800F800F800F800F800F800F800F81C
:1054D00000F800F800F800F800F800F800F800F80C
:1054E00000F800F800F800F800F800F800F800F8FC
:1054F00000F800F800F800F800F800F800F800F8EC
:1055000000F800F800F800F800F800F800F800F8DB
:1055100000F800F800F800F800F800F800F810842F
:1055200010841084108410841084108410841084DB
:1055300010841084108410841084108410841084CB
:1055400018C618C6108400F800F800F800F800F833
:1055500000F800F800F8E0FF00F800F800F800F8A4
:1055600000F800F800F800F800F800F800F800F87B
:1055700000F800F800F800F8E0FF00F800F800F884
:1055800000F800F800F800F800F800F800F800F85B
:1055900000F8E0FF00F800F800F800F800F800F864
:1055A00000F800F800F800F8E0FF00F800F800F854
:1055B00000F800F800F800F800F800F800F800F82B
:1055C00000F800F800F800F800F800F800F810847F
:1055D000108410841084108410841084108410842B
:1055E000108418C618C618C618C618C618C618C615
:1055F00018C618C610841084008400800000008043
:10560000008000000000000000000000000000001A
:10561000000000000000000000000000000000008A
:1056200000000080008000841004008400F800F86E
:1056300000F800F800F800F800F800F800F800F8AA
:1056400000F800F800F800F800F800F800F800F89A
:1056500000F800F800F800F800F800F800F800F88A
:10566000E0FFE0FF00F800F800F800F800F800F8AC
:1056700000F800F800F800F800F800F800F800F86A
:1056800000F800F800F800F800F800F800F800F85A
:1056900000F800F800F800F800F800F800F800F84A
:1056A00000F800F800F800F800F800F8E0FFE0FF6C
:1056B00000F800F800F800F800F800F800F800F82A
:1056C00000F800F800F800F800F800F800F800F81A
:1056D00000F800F800F800F800F800F800F800F80A
:1056E00000F800F800F800F800F800F800F800F8FA
:1056F00000F800F800F800F800F800F800F800F8EA
:105700001084108410841084108410840084108409
:105710001084108410841084108418C6108410849F
:1057200018C61084108400F800F800F800F800F89B
:1057300000F800F800F800F800F800F800F800F8A9
:1057400000F800F800F800F800F800F800F800F899
:1057500000F800F800F800F800F8E0FF00F800F8A2
:1057600000F800F800F800F800F800F800F800F879
:1057700000F8E0FFE0FF00F800F800F800F800F89B
:1057800000F800F800F800F800F800F800F800F859
:1057900000F800F800F800F800F800F800F800F849
:1057A00000F800F800F800F800F800F800F818C653
:1057B0001084108410841084108410841084108449
:1057C000108418C618C618C618C618C618C618C633
:1057D00018C610841084008400840080008000803B
:1057E0000080000000000000000000000000000039
:1057F00000000000000000000000000000000000A9
:1058000000000000000000001080008000F800F898
:1058100000F800F800F800F800F800F800F800F8C8
:1058200000F800F800F800F800F800F800F800F8B8
:1058300000F800F800F800F800F800F800F8E0FFC1
:10584000E0FF00F800F800F800F800F800F800F8B1
:1058500000F800F800F800F800F800F800F800F888
:1058600000F800F800F800F800F800F800F800F878
:1058700000F800F800F800F800F800F800F800F868
:1058800000F800F800F8E0FFE0FFE0FF00F800F8A3
:1058900000F800F800F800F800F800F800F800F848
:1058A00000F800F800F800F800F800F800F800F838
:1058B00000F800F800F800F800F800F800F800F828
:1058C00000F800F800F800F800F800F800F800F818
:1058D00000F800F800F800F800F800F800F800F808
:1058E0001084108410840084108410840084008448
:1058F00018C618C618C618C618C618C618C6108402
:1059000018C610841084008400F800F800F800F82D
:1059100000F800F800F800F800F800F800F800F8C7
:1059200000F800F800F800F800F800F800F800F8B7
:1059300000F800F800F800F800F8E0FFE0FF00F8D9
:1059400000F800F800F800F800F800F800F800F897
:1059500000F800F8E0FF00F800F800F800F800F8A0
:1059600000F800F800F800F800F800F800F800F877
:1059700000F800F800F800F800F800F800F800F867
:1059800000F800F800F800F800F800F8108410841F
:105990001084108410841084108410841084108467
:1059A00018C618C618C618C618C618C618C618C607
:1059B00018C61084008400840084008400840000E1
:1059C0000000000000000000008000000000000057
:1059D00000000000000000000000000000000000C7
:1059E000000000000000000000000080008400F8BB
:1059F00000F800F800F800F800F800F800F800F8E7
:105A000000F800F800F800F800F800F800F800F8D6
:105A100000F800F800F800F800F8E0FFE0FF00F8F8
:105A200000F800F800F800F800F800F800F800F8B6
:105A300000F800F800F800F800F800F800F800F8A6
:105A400000F800F800F800F800F800F800F800F896
:105A500000F800F800F800F800F800F800F800F886
:105A600000F8E0FFE0FFE0FF00F800F800F800F8C1
:105A700000F800F800F800F800F800F800F800F866
:105A8000E0FFE0FF00F800F800F800F800F800F888
:105A900000F800F800F800F800F800F800F800F846
:105AA00000F800F800F800F800F800F800F800F836
:105AB00000F800F800F800F800F800F800F800F826
:105AC00000F81084108410840084108410841084E2
:105AD00018C618C6108418C618C618C618C618C620
