:020000040800F2
:10000000A00800206501000895110008850A000875
:1000100093110008AD010008ED1700080000000072
:1000200000000000000000000000000011120008A5
:100030004304000800000000971100081114000894
:100040007F0100087F0100087F0100087F01000890
:100050007F0100087F0100087F0100087F01000880
:100060007F0100087F0100087F0100087F01000870
:100070007F0100087F0100087F0100087F01000860
:100080007F0100087F0100087F0100087F01000850
:100090007F0100087F0100087F0100087F01000840
:1000A0007F010008711400087F0100087F0100082B
:1000B000B9140008011500087F0100087F0100083D
:1000C0007F0100087F0100087F0100087F01000810
:1000D0007F0100087F0100087F0100087F01000800
:1000E0007F0100087F0100087F0100080000000078
:1000F0000000000000000000000000000000000000
:1001000000000000000000007F0100087F010008DF
:100110007F0100087F0100087F0100087F010008BF
:100120007F0100087F0100087F0100087F010008AF
:100130007F0100087F0100087F0100087F0100089F
:100140007F0100087F0100087F0100087F0100088F
:10015000DFF80CD000F018F80048004761190008DB
:10016000A00800200648804706480047FEE7FEE753
:10017000FEE7FEE7FEE7FEE7FEE7FEE7FEE7FEE757
:100180001514000851010008064C074D06E0E06810
:1001900040F0010394E8070098471034AC42F6D3CE
:1001A000FFF7DAFF2071000840710008FEE7000049
:1001B000044B01228240186809B1104300E09043CB
:1001C000186070470074004000B5012185B04807F1
:1001D00000F0EEFF0121052001F002F82020ADF82B
:1001E000100018208DF8130003208DF8120004A9C8
:1001F0000C4800F0ADF900F023F80C20009000202E
:100200000190022003906946102000F025F801219A
:100210001020FFF7CDFF0121102000F031F805B0CC
:1002200000BD000000080140044B9A148240186889
:1002300009B1104300E0904318607047007400401B
:1002400010B501214C07204600F0BEFF2046BDE856
:100250001040002100F0B8BF30B5084C236840F6CC
:10026000FE7282409343D1E900252A43D1E902512D
:100270000D432A4382401A43226030BD007400407F
:100280000209054B012090400029196801D0014363
:1002900000E0814319607047047400400029016840
:1002A00002D041F0010102E04FF6FE721140016000
:1002B0007047000010B58CB00121022000F06CFFE7
:1002C000154C204600F02EF814482022002100682A
:1002D0000090134801901020CDE902028020CDE962
:1002E0000410400006908000CDE90702C000CDE96F
:1002F00009016946204600F087F801212046FFF7F2
:10030000CDFF01211020FFF753FF01211020FFF73F
:100310008BFF0CB010BD0000440402400000002020
:100320004400002001684FF6FE7211400160002178
:10033000016041608160C1603149314A08399042B1
:1003400003D1486840F00F0006E02D4A1432904275
:1003500004D1486840F0F00048607047284A2832CD
:10036000904203D1486840F47060F5E7244A3C327B
:10037000904203D1486840F47040EDE7204A503283
:10038000904203D1486840F47020E5E71C4A64328B
:10039000904203D1486840F47000DDE7184A783293
:1003A000904203D1486840F07060D5E7154A111FAC
:1003B000904203D1086840F00F0006E0114A143261
:1003C000904204D1086840F0F000086070470D4A80
:1003D0002832904203D1086840F47060F5E7094A7A
:1003E0003C32904203D1086840F47040EDE7054A82
:1003F00050329042EAD1086840F47020E5E70000EE
:10040000080002400804024030B5026847F6F07365
:100410009A430C6A8B682343D1E904452C43234358
:100420008C692343CC6923434C6A23438C6A23435E
:1004300013430360CA6842600A6882604968C16009
:1004400030BD704710B56FF0040000F0D5FF0749CC
:100450000878C008487000EB4002C2EBC0104FF6AD
:10046000FF7202EAC000488010BD00001C0000209E
:100470000849498848434FF0E021486100238B61D7
:10048000012008610869C20701D0C003FAD50B61D9
:100490008B6170471C0000202DE9F84301213C20AE
:1004A00000F09EFE9C20ADF8000003208DF80200B5
:1004B000DFF88C8010268DF803606946404600F016
:1004C00047F88020ADF8000069461E4800F040F86B
:1004D0004FF4C050ADF8000048248DF80340694641
:1004E000404600F035F87002ADF80000164F8DF868
:1004F00003406946384600F02BF80125ADF800505E
:100500008DF803606946384600F022F8ADF80050D7
:100510008DF8034069460D4800F01AF80421404662
:1005200000F06DF80821404600F069F810214046BF
:1005300000F065F88021404600F061F8BDE8F883DE
:1005400000140140000C014000100140000801406F
:10055000F0B5CC78002204F00F03E40601D58C78C6
:1005600023430C784FF00F0C14F0FF0F4FF0010EE7
:100570001BD005680E880EFA02F42640A64210D160
:1005800096000CFA06F725EA070703FA06F5CE7877
:100590003D43282E02D0482E02D002E0446100E004
:1005A0000461521C082AE5D305600A88FF2A1CD979
:1005B0004468002202F108060EFA06F50E882E4065
:1005C000AE420ED196000CFA06F7BC4303FA06F7CA
:1005D000CE783C43282E00D14561CE78482E00D1FC
:1005E0000561521C082AE5D34460F0BD0246002094
:1005F00092680A4200D00120704741617047016152
:10060000704700002DE9FF4F82B005468346E82081
:10061000924689464FF00008019030490F9A08EB46
:10062000081011F81030127893423CD101EB4000D1
:10063000009041780F984078814234D109F10F0041
:1006400083B205F10F0082B24946284600F072FCE1
:100650000026009800248719109890B12049802026
:10066000E040A1F800A0B978014203D049462846ED
:1006700000F072FA6D1CADB2A5EB0B00102827D06C
:1006800009E0B9788020E040014201D0504600E006
:10069000059800F043FD641CE4B2082CDCD3761C02
:1006A000F6B2202ED5D308F1010001991FFA80F887
:1006B0008845B2D30B494888401E83B2088806B0EB
:1006C000401EBDE8F04F82B20021084600F032BC67
:1006D00009F101005D461FFA80F9E0E7702B000880
:1006E000340000208C0400202DE9FF4F82B0054625
:1006F00083460F200190002092468946804600EBF9
:10070000800101EB48102F490F9A11F81030127830
:1007100093423CD101EB4000009041780F98407823
:10072000814234D109F1170083B205F1170082B27A
:100730004946284600F0FEFB002600980024871951
:10074000109890B120498020E040A1F800A0B9782D
:10075000014203D04946284600F0FEF96D1CADB2B7
:10076000A5EB0B00182827D009E0B9788020E040DD
:10077000014201D0504600E0059800F0CFFC641C17
:10078000E4B2082CDCD3761CF6B2482ED5D308F19F
:10079000010080B2019980468842B0D30B49488855
:1007A000401E83B2088806B0401EBDE8F04F82B2FA
:1007B0000021084600F0BEBB09F101005D461FFAAA
:1007C00080F9E0E7404A0008340000208C04002053
:1007D0002DE9FF4F82B005468346042092468946A4
:1007E0004FF00008019030490F9A08EB881011F87B
:1007F0001030127893423CD101EB400000904178D8
:100800000F984078814234D109F11F0083B205F17D
:100810001F0082B24946284600F08CFB0026009853
:1008200000248719109890B120498020E040A1F859
:1008300000A0B978014203D04946284600F08CF95F
:100840006D1CADB2A5EB0B00202827D009E0B978CC
:100850008020E040014201D0504600E0059800F0C1
:100860005DFC641CE4B2082CDCD3761CF6B2802E4E
:10087000D5D308F1010001991FFA80F88845B2D359
:100880000B494888401E83B2088806B0401EBDE868
:10089000F04F82B20021084600F04CBB09F1010084
:1008A0005D461FFA80F9E0E7964E0008340000200C
:1008B0008C0400202DE9FF4F82B0054683460520B9
:1008C000924689464FF000080190652108FB01F02F
:1008D0002F490F9A11F81030127893423CD101EB56
:1008E0004000009041780F984078814234D109F15E
:1008F000270083B205F1270082B24946284600F05E
:1009000019FB0026009800248719109890B12149FE
:100910008020E040A1F800A0B978014203D0494608
:10092000284600F019F96D1CADB2A5EB0B00282884
:1009300027D009E0B9788020E040014201D050463C
:1009400000E0059800F0EAFB641CE4B2082CDCD35C
:10095000761CF6B2C82ED5D308F1010001991FFA12
:1009600080F88845B1D30C494888401E83B2088876
:1009700006B0401EBDE8F04F82B20021084600F0EC
:10098000D9BA09F101005D461FFA80F9E0E70000DD
:100990009E500008340000208C0400202DE9FF4FF9
:1009A00082B0054683460820924689464FF00008EB
:1009B000019031490F9A08EB082011F81030127895
:1009C00093423DD101EB4000009041780F98407870
:1009D000814235D109F13F0083B205F13F0082B277
:1009E0004946284600F0A6FA0026009800248719F8
:1009F000109890B121498020E040A1F800A0B9787A
:100A0000014203D04946284600F0A6F86D1CADB25D
:100A1000A5EB0B00402828D009E0B9788020E04001
:100A2000014201D0504600E0059800F077FB641CBD
:100A3000A4B2082CDCD3761CB6B2B6F5007FD4D3B2
:100A400008F1010001991FFA80F88845B1D30C49DB
:100A50004888401E83B2088806B0401EBDE8F04FAB
:100A600082B20021084600F065BA09F101005D4636
:100A70001FFA80F9DFE700009054000834000020DE
:100A80008C040020FEE7000070B50C4D06460024E3
:100A900068882146401E83B22888401E82B22046C4
:100AA00000F048FA03E0304600F038FB641C288868
:100AB00069884843A042F6D870BD00008C0400202D
:100AC0002DE9FE4F0026A2EB000882465F1A701E39
:100AD00035468946B8F1000F02DD4FF0010102E012
:100AE00003D14FF00001019102E0C8F1000801902C
:100AF000002F02DD4FF0010002E003D14FF00000B3
:100B0000009002E0C7F1000700904046B84501DDC3
:100B1000044600E03C46601C4FF0000B029015E0DC
:100B20001FFA89F11FFA8AF000F016F846443D4496
:100B3000A64202DD0199361B8A44A54202DD0099D6
:100B40002D1B89440BF101001FFA80FB02998B4594
:100B5000E6DDBDE8FE8F000000B500F0BBF90348FC
:100B600000885DF804EB00F0D9BA000034000020E2
:100B7000F0B51C4615460E4607460B46FFF7A0FF8C
:100B80003A46234631461046FFF79AFF23462A4647
:100B900019463846FFF794FF2A4623463146BDE8FA
:100BA000F0401046FFF78CBF2DE9F041141A641C89
:100BB000A6B25C1A641C5B1E521EA7B29BB292B214
:100BC000DDF8188000F0B6F900250AE0002404E002
:100BD000404600F0A3FA641CA4B2B442F8D36D1CE2
:100BE000ADB2BD42F2D3064841880088491EBDE837
:100BF000F041401E8BB282B20021084600F09AB943
:100C00008C04002038B50121792000F0E9FA4FF476
:100C1000EB54ADF8004010208DF803000320194D6F
:100C20008DF8020069462846FFF792FC21462846C7
:100C3000FFF7E5FC144D4FF46044ADF80040694601
:100C40002846FFF785FC21462846FFF7D8FC0F4DC4
:100C50004FF48044ADF8004069462846FFF778FC21
:100C600021462846FFF7CBFC094D4FF6FF74ADF83F
:100C7000004069462846FFF76BFC21462846FFF7EF
:100C8000BEFC38BD0010014000140140000C0140C2
:100C90000018014010B5FFF7B5FFCF2000F054FA5F
:100CA000002000F03BFAC12000F038FA302000F0BC
:100CB00035FAED2000F048FA642000F02FFA032006
:100CC00000F02CFA122000F029FA812000F026FA18
:100CD000E82000F039FA852000F020FA102000F01A
:100CE0001DFA7A2000F01AFACB2000F02DFA3920F4
:100CF00000F014FA2C2000F011FA002000F00EFA97
:100D0000342000F00BFA022000F008FAF72000F07F
:100D10001BFA202000F002FAEA2000F015FA002069
:100D200000F0FCF9002000F0F9F9C02000F00CFA06
:100D30001B2000F0F3F9C12000F006FA012000F0BA
:100D4000EDF9C52000F000FA302000F0E7F930207E
:100D500000F0E4F9C72000F0F7F9B72000F0DEF961
:100D6000362000F0F1F9482000F0D8F93A2000F0E0
:100D7000EBF9552000F0D2F9B12000F0E5F90020A0
:100D800000F0CCF91A2000F0C9F9B62000F0DCF927
:100D90000A2000F0C3F9A22000F0C0F9F22000F010
:100DA000D3F9002000F0BAF9262000F0CDF9012097
:100DB00000F0B4F9E02000F0C7F90F2000F0AEF920
:100DC0002A2000F0ABF9282000F0A8F9082000F054
:100DD000A5F90E2000F0A2F9082000F09FF9542098
:100DE00000F09CF9A92000F099F9432000F096F951
:100DF0000A2000F093F90F2000F090F9002000F095
:100E00008DF9002000F08AF9002000F087F9002019
:100E100000F084F9E12000F097F9002000F07EF95D
:100E2000152000F07BF9172000F078F9072000F07A
:100E300075F9112000F072F9062000F06FF92B20EF
:100E400000F06CF9562000F069F93C2000F066F9DA
:100E5000052000F063F9102000F060F90F2000F089
:100E60005DF93F2000F05AF93F2000F057F90F20BC
:100E700000F054F92B2000F067F9002000F04EF943
:100E8000002000F04BF9012000F048F93F2000F06D
:100E900045F92A2000F058F9002000F03FF9002021
:100EA00000F03CF9002000F039F9EF2000F036F9AD
:100EB000112000F049F97820FFF7DAFA292000F034
:100EC00043F900F023F802490120C1F8A80110BD40
:100ED0000000224270B50C4E05460C46708900F0A9
:100EE00033F9280A00F01AF9E8B200F017F9B089CE
:100EF00000F02AF9200A00F011F9E0B200F00EF932
:100F0000BDE8704000F036B98C04002008482C2160
:100F1000018100218171F02101804FF4A071418095
:100F20002A2141812B218181C921362000F028B955
:100F30008C0400202DE9F041DFF8508007461C4664
:100F400015460E46B8F80A0000F0FEF8380A00F020
:100F5000E5F8F8B200F0E2F8280A00F0DFF8E8B2AD
:100F600000F0DCF8B8F80C0000F0EEF8300A00F001
:100F7000D5F8F0B200F0D2F8200A00F0CFF8E0B2D5
:100F800000F0CCF8BDE8F04100F0F4B88C0400208B
:100F90002DE9FF4F81B091460EAA834692E83100B9
:100FA000203800F0FF0802989A4620443649401E37
:100FB00083B20BEB54000988401E009182B2584660
:100FC0000299FFF7B7FF4FF000067DBB2F4908EBF2
:100FD000480001EB800B01F2744101EB081817E0A7
:100FE0000C2C03D018F8065000270CE01BF8065014
:100FF000FAE7E80701D0484600E0504600F08EF8D6
:101000006D087F1CFFB2B7EB540FF2D3761CF6B21B
:10101000A642E5D327E00C2C09D01D4800EB0810B0
:101020000025875D029800EB060A15E019E01748D5
:1010300008EB480100EB8100F2E71349F807A1F83B
:10104000009006D00BEB05001FFA8AF180B2FFF783
:1010500083FD7F086D1CEDB2B5EB540FEDD3761C0C
:10106000F6B2A642D7D308490098088009494888B3
:10107000401E83B2088805B0401EBDE8F04F82B222
:1010800000210846FFF756BF340000200C2100085D
:10109000802500088C0400202DE9FF4F83B0002735
:1010A000DDF840801D4681463C46BB464FEA580667
:1010B000DFF864A02BE0281B401EC1B20A2000F01C
:1010C00063FD0599B1FBF0F00A21B0FBF1F201FBE1
:1010D000120027B9691E8C4201DA48B1012730306D
:1010E000C0B28DE8010906FB049080B2514606E0CB
:1010F000202206FB04908DE8040980B25146BAF81C
:1011000000204B880499FFF743FF641CE4B2AC4213
:10111000D1D307B0BDE8F08F34000020074A10B5E6
:101120004FF400511160064940234B61054C20608B
:101130001802141D206010600B6110BD10140140D6
:10114000001001400C180140074A10B54FF400513F
:101150001160064B40215961054C20600802106067
:10116000121F1060196110BD1414014000100140DD
:101170000C18014001480089FFF7E6BF8C040020ED
:1011800010B50C46FFF7E0FF2046BDE81040FFF722
:10119000C5BFFEE770477047044A0029516901D076
:1011A000014300E08143516170470000001002409C
:1011B000044A0029D16901D0014300E08143D16193
:1011C0007047000000100240044A0029116901D054
:1011D000014300E0814311617047000000100240AC
:1011E000044A0029916901D0014300E081439161E3
:1011F0007047000000100240044A0029D16801D065
:10120000014300E08143D1607047000000100240BC
:10121000704700000CB500222E4800920192016830
:1012200041F4803101604FF4A063016801F40031A2
:1012300001910099491C0091019911B900999942B5
:10124000F3D10168890342D50121019122490A683D
:1012500042F010020A600A6822F003020A600A687B
:1012600042F002020A6041684160416841604168A1
:1012700041F480614160C16A184A1140C162C16A8B
:10128000174A1143C162016841F080610160016841
:101290000901FCD5416821F47C114160416841F4A9
:1012A000E8114160016841F08071016001688901C5
:1012B000FCD5416821F003014160416841F0020121
:1012C00041604168C1F381010229FAD10CBD01924C
:1012D0000CBD0000001002400020024000F0FEFFA4
:1012E000440601002DE9FF4F83B08846DDE9105424
:1012F000064682464FF00009DFF8F8B0129F21E061
:10130000B9F1000F24D0BBF80010091BB1421CDB5F
:10131000BBF80200011B414517DB4FF00009402CD0
:101320004AD0282C51D0202C58D0CDE90057DDE9E7
:101330000523182C4146304659D0FFF763F9301980
:1013400086B2AD1C28780028DAD107B0BDE8F08F4E
:10135000BBF80020A2EB5402B242F6DBBBF802104D
:101360000A1B41464245F0DB802802D94FF00109B3
:10137000E8E70D280DD0102C12D910218DE883003C
:10138000DDE9052341463046FFF702FE0836B6B2D6
:1013900010E008EB04001FFA80F856466D1C09E0C7
:1013A0008DE89100DDE905233046FFF7F1FD06EBFE
:1013B000540086B26D1CC5E7CDE90057DDE9052371
:1013C00041463046FFF7EAFAB9E7CDE90057DDE9D3
:1013D000052341463046FFF76DFAB0E7CDE90057E7
:1013E000DDE9052341463046FFF7F2F9A7E7FFF7AD
:1013F0007BF9A4E78C0400204FF0E0210428086961
:1014000003D020F004000861704740F00400FAE7C0
:1014100070470000124810B5016841F001010160F9
:101420004168104A1140416001680F4A1140016053
:10143000016821F480210160416821F4FE014160CE
:10144000016821F0A05101604FF47F01816000210B
:10145000C162FFF7DFFE05494FF00060086010BD74
:10146000001002400000FFF0FFFFF6FE08ED00E074
:1014700010B50E4C0121204600F056F9002814D07A
:101480000121204600F060F809490878401C0870E6
:10149000C10708484FF0040103D0BDE81040FFF732
:1014A000ACB8BDE81040FFF7AAB810BD002C014051
:1014B000180000200014014010B501218C072046BF
:1014C00000F032F9002815D00121204600F03CF848
:1014D00009484178491C41700078C10707484FF01E
:1014E000080103D0BDE81040FFF787B8BDE8104001
:1014F000FFF785B810BD000018000020001401405F
:1015000010B50E4C0121204600F00EF9002814D031
:101510000121204600F018F809498878401C88709D
:10152000C10708484FF0100103D0BDE81040FFF795
:1015300064B8BDE81040FFF762B810BD0004004079
:101540001800002000140140C9430182704700299F
:10155000018802D041F0010101E021F00101018088
:10156000704700003EB5044601210220FFF720FE2F
:101570000F4D284600F020F80E48694600684009E3
:10158000B0FBF4F0401EADF804000020ADF8000000
:10159000ADF80600ADF80200284600F0D9F8202189
:1015A000284600F0CDF801212846FFF7D0FF3EBDC8
:1015B00000040040200000204B4910B5884202D1B1
:1015C0000121C41486E0B0F1804F09D04749884218
:1015D0000DD101210220FFF7F7FD0021022064E078
:1015E00001210846FFF7F0FD002101205DE04049A0
:1015F000884206D101210420FFF7E6FD00210420E6
:1016000053E03C49884206D101210820FFF7DCFD68
:101610000021082049E03849884206D101211020E4
:10162000FFF7D2FD002110203FE03449884206D167
:1016300001212020FFF7C8FD0021202035E030499E
:10164000884202D10121441444E02E49884202D14B
:101650000121CC043EE02C49884202D101210C0535
:1016600038E02A49884202D101214C0532E028495C
:10167000884206D101214020FFF7A6FD002140202D
:1016800013E02449884206D101218020FFF79CFD08
:101690000021802009E0204988420AD184150121D7
:1016A0002046FFF791FD00212046BDE81040FFF7DE
:1016B0008BBD1A49884202D101210C040AE0184965
:1016C000884202D101214C0404E0164988420AD123
:1016D00001218C042046FFF78FFD2046BDE8104015
:1016E0000021FFF789BD10BD002C0140000400401F
:1016F00000080040000C00400010004000140040B2
:1017000000340140004C01400050014000540140B1
:1017100000180040001C0040002000400040014034
:10172000004401400048014002460020138A92898B
:101730000B4202EA010202D0002A00D001207047C9
:10174000828822F07002828082880A4382807047F9
:1017500030B502881B4C1C4DA0420DD0A8420BD0C6
:10176000B0F1804F08D0194B984205D0184B9842E1
:1017700002D0184B984203D122F070034A881A43D2
:10178000154B984206D0154B984203D022F4407373
:10179000CA881A4302808A8882850A880285A04204
:1017A0000AD0A84208D00E4A904205D00D4A904275
:1017B00002D00D4A904201D1097A0186012181822D
:1017C00030BD0000002C0140003401400004004006
:1017D00000080040000C00400010004000140040D1
:1017E000004001400044014000480140FEE702E0A3
:1017F00008C8121F08C1002AFAD17047704700209C
:1018000001E001C1121F002AFBD1704708B500EBAF
:1018100080000A2303EB400001EB81011E2303EB50
:101820004101009201F1080300F10802401C491C2B
:10183000FFF7BAF908BD00003EB51549042008704D
:1018400000211448FFF783FE0024AA23D22264213A
:101850001E200094FFF7A8F90F4D4FF4784218208E
:101860002A800EA1CDE90010002302946C213E20B5
:10187000FFF738FD4FF6FF722A8010200AA1CDE94C
:1018800000100023029488212E20FFF72BFD3EBD7F
:1018900004000020000400403400002047414D4572
:1018A000204F5645520000004B343A52455452598D
:1018B000204B333A4D454E550000000010B5012134
:1018C0000948FEF793FE0949002210B18A720020F0
:1018D00010BD887AFF2801D2401C8872C0B2192836
:1018E000F5D38A72012010BD0008014004000020D9
:1018F00070B5174C4FF400612046FEF777FE154D8A
:1019000078B1A1142046FEF771FE60B1611412484F
:10191000FEF76CFE48B101211048FEF767FE30B1BA
:1019200011E0012404E0022402E0032400E0042486
:10193000687A08B13CB108E00C20FEF799FD01205F
:101940006872204670BD00206872002070BD0000E3
:101950000014014004000020001001400008014074
:101960000EB50025FFF756FDFEF76CFDFEF794FD62
:10197000FFF790F9784A794B002032F8101001EB0C
:10198000014143F82010401CC0B22028F5D3FEF7D7
:101990001BFCFEF78FFC724E4FF0000A86F800A089
:1019A00000F0FAF80327DFF8BCB14FF002084FF05F
:1019B0000109FFF79DFF0446307850B101280DD092
:1019C000022843D003287DD00428F2D1042C7AD0F9
:1019D000B2E0002CEDD086F800902AE0012C10D067
:1019E000022C10D0032C01D0042CE2D18DB1012D9A
:1019F00016D0022DDDD1B07808B30020B07000B34E
:101A000017E0AD1C00E06D1CB5FBF7F007FB1055AF
:101A10000FE0042CCDD100F0DBF986F80080C8E798
:101A20007078042C09D0801CB0FBF7F107FB110083
:101A30007070284600F006F9BBE7401CF4E701206F
:101A4000DCE700215846FFF782FDF2E7FFF736FF9B
:101A5000012C06D0022C0AD0032C0DD0042C11D05E
:101A600014E03179012911D086F805A00EE0317912
:101A700061B186F8059009E03179032906D086F82E
:101A8000058003E03179022900D0777120B13770E9
:101A900000215846FFF75BFDF079401CC0B2F071A1
:101AA000B17988421ED3544686F807A000F0D0F9D9
:101AB000B07810B13078022806D000215846FFF7E0
:101AC00046FD0FE010E03FE02348317A403030F827
:101AD0001100FFF747FD307A401CC0B23072102869
:101AE00000D33472142034E018211FA2CDE9002164
:101AF0000023CDF808A04FF6E0726E214620FFF7D4
:101B0000F1FB10211AA2CDE900210023CDF808A095
:101B10004FF6FF728C211820FFF7E4FBFFF7CEFE93
:101B200050B186F80080AA23DC2264211420CDF86D
:101B300000A0FFF739F80BE0032C09D186F80090DC
:101B4000284600F07FF803E000F042F986F80080B4
:101B50001E20FEF78DFC2CE7AC200008440000207E
:101B6000040000200004004050415553454400004B
:101B70004B3420484F4C443A434F4E54204B333A59
:101B80004D454E55000000000346012000E058433B
:101B9000491EC9B2FBD27047FEB50020FEF774FFA4
:101BA000194D47F6FF7220202A8018A1CDE90010B8
:101BB0000024234602943C212320FFF793FB4FF699
:101BC000FF762E80102514A0CDE9000500233246B3
:101BD000782102941420FFF785FB12A0CDE90005BF
:101BE00000233246912102941420FFF77BFB11A0C1
:101BF000CDE9000500234FF6E072BE2102941420C7
:101C0000FFF770FBFEBD000034000020534E414B37
:101C1000452047414D4500004B312F4B32204D4F61
:101C2000564500004B33204241434B2020204B348B
:101C3000204F4B00505245535320414E59204B45A5
:101C4000590000002DE9FE4306460020FEF71CFF68
:101C500036484FF6FF7736A107801820CDE90010EF
:101C600000243A462346029414214620FFF73AFB0B
:101C7000102532A0CDE900054FF6E078029496B326
:101C80003A46002346211E20FFF72CFB2DA0CDE96C
:101C900000050294012E29D03A4600235F211E2020
:101CA000FFF720FB2BA0CDE900050294022E1FD0E8
:101CB0003A46002378211E20FFF714FB274E4FF4ED
:101CC000FC677078B0B1012816D025A0CDE90005D9
:101CD00000233A465F210294AA20FFF703FBB07865
:101CE00060B121A00BE0FFE74246CAE74246D4E7D5
:101CF0004246DEE71DA0E9E71EA0E7E71FA0CDE909
:101D0000000500233A4678210294AA20FFF7EAFA58
:101D10001BA0CDE90005002347F6FF72D2210294F3
:101D20001420FFF7DFFABDE8FE8300003400002036
:101D30004D41494E204D454E550000003E20535424
:101D4000415254003E20444946464943554C54595B
:101D5000000000003E204D55534943000400002080
:101D600048415244000000004F4E00004541535985
:101D7000000000004E4F524D414C00004F464600BF
:101D80004B312F4B322053454C204B332F4B3420BB
:101D90004348414E4745000030B50C4C00220A4BE9
:101DA000248A0CE013F81250854206D103EB420559
:101DB0006D788D4201D1012030BD521C92B2A242F9
:101DC000F0D3002030BD0000C4000020040000203B
:101DD0002DE9F0410020FEF757FE1A494FF6FF703B
:101DE000FB230880E7221D210920FEF7C1FE164DC6
:101DF000164E03202882052131700A2104227170B9
:101E0000B270F170307171712871687100244FF4F3
:101E1000FC6706EB44003A46417816F81400FFF7D9
:101E2000F5FC641C288AA4B28442F2D30020A88165
:101E30000120E87000F020F900F0C8F8BDE8F0419A
:101E400000F086B83400002004000020C400002008
:101E50002DE9FC413D4E3C4F308A396807EB40008C
:101E600030F8020CADF80400707930710091C8B1FF
:101E700001281BD002289DF800001DD0401C8DF8C1
:101E800000009DF80050162D08D29DF80140162C38
:101E900004D221462846FFF77FFF78B1BDE8FC4118
:101EA000FFF7CABC9DF80100401E02E09DF801004A
:101EB000401C8DF80100E4E7401EE0E7308A02464E
:101EC00006E007EB4001401E31F8023C0B8080B277
:101ED0000028F6D1BDF8000038801C481230017887
:101EE0008D4221D1407884421ED1B2F5F17F01D8D4
:101EF000521C3282B0890A3080B2B081F1898842A6
:101F000000D9F0816421B0FBF1F201FB120020B98D
:101F1000F078142801D2401CF07000F0ADF800F009
:101F200055F800F015F806E09DF805109DF804003E
:101F30000022FFF76BFC02B021462846BDE8F041C5
:101F40004FF4FC62FFF762BCC400002004000020D4
:101F50002DE9F0411C4943F219664FF016088889B3
:101F600000EB800202EB4012C87800EB0010024444
:101F7000088A00EB400101EBC000104484B246F235
:101F8000552000FB046081B24046B1FBF0F208FB33
:101F9000121546F2552201FB02618CB2B4FBF8F136
:101FA00008FB114739462846FFF7F6FE0028E6D120
:101FB0000548394612304FF478420570477028467C
:101FC000BDE8F041FFF722BC04000020FEB500256B
:101FD0001823EF22294628460095FEF7E5FD1E4806
:101FE0001E4F4FF6E07605803E8010241CA08DE841
:101FF00031000221002332460846FFF773F91AA088
:102000008DE831000023324602216220FFF76AF991
:1020100016A08DE831000023324602219620FFF7FA
:1020200061F94FF6FF703880124D00940423AA899D
:1020300002213220FFF730F802230094EA78194693
:102040007A20FFF729F800940423EA890221BE20B0
:10205000FFF722F8FEBD000036000020340000200B
:1020600053434F52450000004C5600004245535424
:1020700000000000040000200B4A507868B10128DD
:102080000DD00520D17801290CD9491EC9B28B1C6D
:10209000984206D9401AC0B204E00920F2E70720AE
:1020A000F0E702209071704704000020FF078F09BD
:1020B0000F0B710CAA0DA60E630FD80FFF0FD80FD0
:1020C000630FA60EA70D710C0F0B8F09FF076F068C
:1020D000EF048D03570258019B00260000002600E4
:1020E0009B00580157028D03EF046F0626059604E6
:1020F00026052006E00620062C08E0062006260518
:102100002006200620062006E006E006000000006B
:1021100000000000000000000000040404040404A7
:102120000004000000140A0A000000000000000083
:10213000000014143F140A3F0A0A000000041E1590
:1021400005060C14150F0400000012150D0A142CBE
:102150002A1200000000040A0A1E151509360000A4
:102160000002020100000000000000000020100832
:1021700008080808081020000002040808080808D9
:102180000804020000000004150E0E1504000000F3
:1021900000000404041F0404040000000000000008
:1021A000000000000002020100000000001F00000B
:1021B000000000000000000000000000000200001D
:1021C00000100808080404020202010000000E11B9
:1021D00011111111110E0000000004060404040482
:1021E000040E000000000E1111080402011F00007F
:1021F00000000E11100C1010110E00000000080C51
:102200000A0A091E0818000000001F01010F101023
:10221000110E000000000E09010F1111110E000037
:1022200000001F09080404040404000000000E114B
:10223000110E1111110E000000000E1111111E10CF
:10224000120E000000000000040000000004000066
:10225000000000000004000000040400002010083A
:102260000402040810200000000000001F00001FEE
:102270000000000000020408102010080402000002
:1022800000000E11110804040004000000000E11EB
:102290001915151D011E0000000004040C0A0A1E79
:1022A0001233000000000F12120E1212120F000063
:1022B00000001E1101010101110E000000000F12AB
:1022C00012121212120F000000001F120A0E0A0250
:1022D000121F000000001F120A0E0A02020700006F
:1022E00000001C1201013911120C00000000331211
:1022F000121E12121233000000001F040404040412
:10230000041F000000003E0808080808080907002C
:10231000000037120A060A0A1237000000000702FE
:1023200002020202223F000000001B1B1B1B1515AE
:102330001515000000003B1216161A1A121700009D
:1023400000000E1111111111110E000000000F12EA
:10235000120E02020207000000000E1111111117E7
:10236000190E180000000F12120E0A121237000088
:1023700000001E1101060810110F000000001F15BB
:1023800004040404040E000000003312121212129E
:10239000120C000000003312120A0A0C04040000A0
:1023A00000001515150E0A0A0A0A000000001B0A93
:1023B0000A04040A0A1B000000001B0A0A040404A1
:1023C000040E000000001F0908040402121F000090
:1023D000001C04040404040404041C00000202029F
:1023E0000404080808100000000E0808080808087F
:1023F00008080E0000040A000000000000000000B1
:1024000000000000000000000000003F0004000089
:10241000000000000000000000000000000C121C82
:10242000123C000000000302020E1212120E000005
:1024300000000000001C1202021C00000000181026
:10244000101C1212123C000000000000000C121EB2
:10245000021C000000003804041E0404041E0000D6
:1024600000000000003C120C021E221C00000302AF
:10247000020E1212123700000000040000060404CD
:10248000040E000000000800000C080808080807F7
:1024900000000302023A0A0E12370000000007048F
:1024A00004040404041F000000000000000F1515C0
:1024B0001515000000000000000F12121237000076
:1024C00000000000000C1212120C000000000000BE
:1024D000000F1212120E020700000000001C121260
:1024E000121C103800000000001B0602020700004A
:1024F00000000000001E020C101E0000000000047E
:10250000040E04040418000000000000001B121256
:10251000123C0000000000000037120A0C0400000A
:10252000000000000015150E0A0A0000000000005F
:10253000001B0A040A1B0000000000000037120AFA
:102540000C04040300000000001E0804041E000028
:1025500000180808080408080808180008080808EF
:102560000808080808080808000604040408040409
:10257000040406000225180000000000000000000E
:10258000000000000000000000000000000000004B
:1025900000000008080808080808000018180000D3
:1025A00000486C2412000000000000000000000041
:1025B0000000002424247F1212127F121212000045
:1025C0000000081C2A2A0A0C1828282A2A1C080895
:1025D00000000022251515152A58545454220000D5
:1025E0000000000C1212120A76252911916E0000CB
:1025F00000060604030000000000000000000000C8
:10260000004020101008080808080810102040009A
:10261000000204080810101010101008080402002E
:102620000000000008086B1C1C6B0808000000007C
:1026300000000000080808087F08080808000000DB
:102640000000000000000000000000000606040377
:102650000000000000000000FE000000000000007C
:10266000000000000000000000000000060600005E
:1026700000008040402020101008080404020200DE
:102680000000001824424242424242422418000004
:10269000000000080E08080808080808083E0000A6
:1026A0000000003C4242422020100804427E00000C
:1026B0000000003C4242201820404042221C000002
:1026C000000000203028242422227E2020780000D0
:1026D0000000007E0202021A26404042221C000036
:1026E000000000382402021A264242422418000048
:1026F0000000007E222210100808080808080000C8
:102700000000003C4242422418244242423C000065
:10271000000000182442424264584040241C00003B
:102720000000000000001818000000001818000049
:10273000000000000000000800000000000808047D
:10274000000000402010080402040810204000008F
:102750000000000000007F0000007F00000000007B
:1027600000000002040810204020100804020000AD
:102770000000003C424246402010100018180000A3
:102780000000001C225A555555552D42221C0000B0
:102790000000000808181414243C224242E70000FC
:1027A0000000001F2222221E22424242221F00005D
:1027B0000000007C4242010101010142221C000094
:1027C0000000001F2242424242424242221F0000B9
:1027D0000000003F4212121E12120242423F00004D
:1027E0000000003F4212121E1212020202070000F5
:1027F0000000003C2222010101712122221C000064
:10280000000000E7424242427E42424242E700006C
:102810000000003E0808080808080808083E0000F4
:102820000000007C10101010101010101010110F6C
:102830000000007722120A0E0A12122222770000EC
:10284000000000070202020202020202427F0000B0
:1028500000000077363636362A2A2A2A2A6B0000EC
:10286000000000E346464A4A525252626247000064
:102870000000001C2241414141414141221C000015
:102880000000003F424242423E02020202070000B4
:102890000000001C2241414141414D53321C600067
:1028A0000000003F4242423E1212222242C7000074
:1028B0000000007C4242020418204042423E0000D8
:1028C0000000007F4908080808080808081C0000E4
:1028D000000000E74242424242424242423C000083
:1028E000000000E7424222242414141808080000C3
:1028F0000000006B49494949555536222222000003
:10290000000000E7422424181818242442E700009D
:10291000000000772222141408080808081C000090
:102920000000007E2120101008040442423F0000F5
:102930000078080808080808080808080808780047
:102940000000020204040808081010202020404063
:10295000001E1010101010101010101010101E007B
:1029600000384400000000000000000000000000EB
:10297000000000000000000000000000000000FF58
:102980000006080000000000000000000000000039
:10299000000000000000003C4278444242FC00007D
:1029A000000000030202021A26424242261A0000D8
:1029B0000000000000000038440202024438000019
:1029C00000000060404040784442424264D8000029
:1029D000000000000000003C427E0202423C000079
:1029E000000000F08808087E08080808083E00007B
:1029F000000000000000007C22221C023C42423CFD
:102A0000000000030202023A4642424242E700004E
:102A10000000000C0C00000E08080808083E00002A
:102A20000000003030000038202020202020221E0E
:102A30000000000302020272120A1612227700003E
:102A40000000000E0808080808080808083E0000F2
:102A5000000000000000007F9292929292B7000066
:102A6000000000000000003B4642424242E70000F6
:102A7000000000000000003C42424242423C000094
:102A8000000000000000001B26424242221E0207F6
:102A9000000000000000007844424242447840E0D8
:102AA00000000000000000774C040404041F000034
:102AB000000000000000007C42023C40423E00005A
:102AC000000000000008083E080808080830000060
:102AD00000000000000000634242424262DC00004D
:102AE00000000000000000E7422424140808000051
:102AF00000000000000000EB49495555222200006B
:102B0000000000000000007624181818246E000051
:102B100000000000000000E7422424141808080701
:102B2000000000000000007E22100808447E000023
:102B300000C0202020202010202020202020C000A5
:102B40001010101010101010101010101010101085
:102B50000006080808080810080808080808060001
:102B60000C32C20000000000000000000000000065
:102B7000B4AE010001003FF8210821083FF8010030
:102B800001007FFC410441047FFC4104010001007D
:102B90000100D0D0080009FC100020004800080007
:102BA00013FE3020502090201020102010201020E4
:102BB00010A01040CEDE00003FF002000200020034
:102BC00002007FFC04800480048008800880108458
:102BD0002084407C8000CCE1100011FC1104110421
:102BE000FDFC1104110415FC180033FED020112047
:102BF000113C112052A0247EB8DF02000100FFFE2C
:102C000000000FE0082008200FE000007FFC4004D7
:102C10004FE4482448244FE4400CCAFD08204920D2
:102C20002A20083EFF442A44494488A41028FE284C
:102C300022104210642818283444C282BEDD2000CD
:102C400023FC22042204FBFC222022202BFE322023
:102C5000E22022FC228422842484A4FC4884CFD451
:102C600000001FF0101010101FF0101010101FF0B7
:102C7000044044442444144814500440FFFE00001F
:102C8000CABE00003FF80000000000000000FFFE88
:102C90000100010011101108210441028102050008
:102CA0000200CEC808401CF8F108121011FCFC0408
:102CB000100439FC3404540451FC9040102412A236
:102CC000128A1478B6A8020001007FFE4002800438
:102CD00000003FF801000100110011F8110011007F
:102CE000290047FE8000D0D4102010201120112090
:102CF00019FC552052205020902011FC102010204B
:102D00001020102013FE1000D6F702000100000072
:102D10007FFC01000100010001003FF801000100FB
:102D2000010001000100FFFE0000D2AA00007FFCAC
:102D3000044004403FF8244824483FF802007FFC48
:102D4000042008401C80038006703808CFEE000085
:102D500001FE0020FC4011FC110411241124112457
:102D6000112411241D44E050408801040202C4BF14
:102D700000003FF82008200820083FF8200820081D
:102D800020083FF820082008200820083FF82008E5
:102D9000C8E7100010001000107CFE4422442244BA
:102DA000224442442444144408441444227C4244AF
:102DB0008000CFC20000FFFE0200020002000200FD
:102DC0000240022002100208020802000200020073
:102DD00002000200BACD04000E007800087C08440E
:102DE000FF44084418441C442A442A444844887C2C
:102DF000084408000800B5BD0004FF84080410243E
:102E000022244124FFA408A4082408247F240824A1
:102E100008040F84F8144008D6C37FFC44447FFCA8
:102E200001007FFC01001FF010101FF010101FF0B8
:102E300010101FF01010FFFE0000D3EB1000100068
:102E400010001FFC1000200020003FF800080008C0
:102E50000008FFC80008000800500020C7EB004031
:102E6000404027FC204003F80040E7FE200023F804
:102E7000220823F822082BF8320822280210D0B4A6
:102E800000007FFE4002900410001FF81000200098
:102E90003FF800080008FFC80008000800500020A4
:102EA000D7D40100020004001FF010101010101001
:102EB0001FF0101010101FF01010101010101FF045
:102EC0001010BCBA00003FF00010001000100010FD
:102ED00000103FF0200020002000200420042004E7
:102EE0001FFC0000BDAB088008F809084A1028A0A4
:102EF000284008900B1018102BFEC81009100890DD
:102F0000081008500820B0D1100011FC1124112421
:102F1000FD241124112415FC19043100D1001100E5
:102F20001102110250FE2000C8A10000FF8022FC07
:102F300022443E44224422443E442228222827A8F8
:102F4000FA104210022802440282CFC20000FFFEA3
:102F500002000200020002000240022002100208E9
:102F6000020802000200020002000200D4DA02009D
:102F700002000400FFFE080008401040304057FCEB
:102F8000904010401040104010401FFE1000CACA70
:102F9000007823C01040104007FE0040F04013F8B6
:102FA00012081208120813F81208280047FE000041
:102FB000C8A10000FF8022FC22443E442244224457
:102FC0003E442228222827A8FA1042100228024450
:102FD0000282CFC20000FFFE0200020002000200D7
:102FE0000240022002100208020802000200020051
:102FF00002000200B8F9100013F812081208FBF8DA
:10300000120832083BF856445248923012201210EF
:10301000128813061200BEDD200023FC22042204C5
:10302000FBFC222022202BFE3220E22022FC2284E4
:1030300022842484A4FC4884BFBC020002083FD040
:1030400002200240FFFE010002000FF812002400DF
:1030500047F08010001000A00040BACB10201010E4
:10306000101013FEFC201042308439F85410542202
:1030700090C413081010102810C41302D7DB10409E
:10308000102023FE22024800F9FC1000200043FE1D
:10309000F820412801241A22E42240A00040BACF9F
:1030A000010001000280044008203018CFE6000033
:1030B00000001FF010101010101010101FF0101052
:1030C000D1A722081108111000207FFE40028004C1
:1030D0001FE000400180FFFE01000100010005002B
:1030E0000200BAC500001FF01010101010101FF0E1
:1030F0000000FFFE080010001FF00010001000107C
:1031000000A00040D0D51020102011201120FDFC7F
:10311000252026202420242049FC28201020282097
:10312000442083FE0000C3FB0200020007F00810E9
:10313000142062400280010006001FF8E808080819
:10314000080808080FF80808CAD6001000F83F0061
:10315000010001003FF8010001000100FFFE010035
:1031600001000100010005000200BBFA100011F08F
:1031700011101110FD10111031103910551055108B
:103180009110111211121212120E1400C0B6082062
:103190000820FFFE08200480248024FC24A02510A1
:1031A00000003FF8244824482448FFFE0000D1C016
:1031B00000003FFC004000401040104020403FFE17
:1031C000014002400440084010406040014000803F
:1031D000BFD810401020102013FEFA0214941108DA
:1031E0001A043000D1FC102010201020102057FEAF
:1031F0002000D6C60404240424043FA44424042448
:10320000FFE4042404243FA424A424A42684250445
:1032100004140408B2D923F82208220823F8F8007D
:1032200027BC24A42CA437BCE0402FFE21602250F0
:103230002448B8464040D7F709000900090011FEAC
:1032400012803280348050F890801080108010FC02
:103250001080108010801080D4CB000023F8100064
:103260001000000007FCF04010801110120817FC3D
:1032700012041000280047FE0000D5FD00007FFC6E
:103280000100010001000100110011F811001100FE
:103290001100110011001100FFFE0000D7AA20202C
:1032A00020202020FDFC4020504093FEFC40108058
:1032B00011FC1C04F0885050102010101010B7B4EE
:1032C000001000F83F00200020003FF824082410E0
:1032D0002210222021402080414042208C183006BC
:1032E000D7AA202020202020FDFC4020504093FE23
:1032F000FC40108011FC1C04F0885050102010106D
:103300001010CDA31080104017FC200023F8620895
:1033100063F8A0002FFE280223F820402040204020
:1033200021402080D6B901000100010001001100F8
:10333000110011F81100110011001100110011000D
:103340001100FFFE0000CABC102010201020104009
:10335000FC48248425FE2482240048FC2884108410
:103360002884448480FC0084B9A6004000400040CA
:10337000FE4011FC1044104410441044108410848A
:103380001E84F104410402280410C4DC10402444CB
:103390004248FF70014000427E42423E42007E446D
:1033A000424842707E4042424A42443EBCFC2010A9
:1033B00020103B7C211441FE7A14A27C2710F97C5A
:1033C000251025FE22102A10350028FE0000A3AC8F
:1033D00000000000000000000000000000000000ED
:1033E000000000000000300030001000200000004D
:1033F000BAEC1000100021FC24204420F8201020FA
:1034000020204020FC20402000201C20E02043FE03
:103410000000CDE210401040104010403E402260BD
:1034200042504248A4441444084008401040204000
:1034300040408040D2A3003C23C010041244012825
:1034400001FCF220102013FE10201124112411245D
:1034500011FC280047FEBFD810401020102013FE9A
:10346000FA02149411081A043000D1FC1020102024
:103470001020102057FE2000D6B1010001007FFC73
:1034800001001FF0101010101FF010101FF010108E
:103490001FF010101010FFFE0000C1F70080204048
:1034A00017FE10808110420847FC100410002248CB
:1034B000E24822482248224A244A0846B5E7010049
:1034C000010001003FF82108210821083FF82108E8
:1034D000210821083FF8210A0102010200FEBBFA7F
:1034E000100011F011101110FD10111031103910D1
:1034F000551055109110111211121212120E1400C3
:10350000CBAE010001000100010801087D9005A07B
:1035100009400940112011102108410681000500D1
:103520000200C9EE000027FC140414A48110420814
:103530004040104017FC2040E0E0215022482C463B
:1035400020400040B3AC080009FC08447E44084415
:103550000894FF0808FC288428842E8428FC28006E
:1035600058004FFE8000CEC2000023F81208120857
:1035700083F84208420813F8100027FCE4A424A4AE
:1035800024A424A42FFE0000CEB4010001000100F9
:103590003FF8010001000100FFFE03800540092003
:1035A00011102108C10601000100C1AC00402040FB
:1035B00017FE108000A00120F3FC10201020102026
:1035C00017FE10201020282047FE0000BDD31080D9
:1035D000104013FC1000FD08109017FE104018401A
:1035E00037FED08811081090106051982604C4DA74
:1035F0000100010001007FFC4104410441044284B8
:1036000042444424481450144004400440144008E8
:10361000CDE210401040104010403E402260425029
:103620004248A44414440840084010402040404010
:103630008040B2BF1000083E7FA20024212412283F
:10364000FFE4002400223F222122213421283F20B0
:1036500021200020A1E6600091F4960C6C0408047F
:1036600018001800180018001800180008000C04B2
:10367000060801F00000D6AE0200010001000000C3
:103680007FF80010002000400080010002000400CC
:103690001800240043FE0000CEC2000023F81208E8
:1036A000120883F84208420813F8100027FCE4A42B
:1036B00024A424A424A42FFE0000B1BB20101010C9
:1036C0000010F9FE09121114151039FC55449144EB
:1036D000112811281110122812441482B0B410407D
:1036E0001020102013FEFA02144410401BFE3088F4
:1036F000D088110810D01020105050882304BCFC32
:10370000201020103B7C211441FE7A14A27C27104B
:10371000F97C251025FE22102A10350028FE000015
:10372000B5C002082110100017FC008003F8F20851
:1037300013F8120813F8120813F81208280047FEAD
:103740000000BBF9082008207FFC08200FE00820BB
:103750000FE00820FFFE082011102108CFE601002D
:1037600001003FF8D7BC01404120212023FE022068
:1037700016201BFC1220222023FCE22022202220E3
:1037800023FE22000200B5E70100010001003FF81E
:103790002108210821083FF82108210821083FF8C5
:1037A000210A0102010200FED1B900003FFE200003
:1037B00020802080208020802FFC2080208020906E
:1037C0002088208840805FFE8000B6E00200020072
:1037D00007F008203840048003400C8071F802088C
:1037E0000C103220014001800E007000CDA80000B6
:1037F00047F8201021A0004007FCE444244427FCA3
:103800002444244427FC2444245454088FFEB5C087
:1038100002082110100017FC008003F8F20813F8CA
:10382000120813F8120813F81208280047FE0000C7
:10383000B7BD020001000100FFFE04000400040007
:1038400007F004100410041008100810101020A035
:103850004040CABD0048004400440040FFFE004014
:1038600000403E4008400840082008220F12780A15
:1038700020060002B5E70100010001003FF8210821
:10388000210821083FF82108210821083FF8210AD2
:103890000102010200FECEBB088008400840100073
:1038A00017FC300030085208920811101110111046
:1038B000112010201FFE1000C6F700003E7C22449D
:1038C00022443E7C01200110FFFE02800C60301873
:1038D000C0063E7C224422443E7CB6D40010001038
:1038E00000107E1002FE02102410149008500850A0
:1038F000141012102210401000500020BDE11020C2
:103900001020202027FE4420F82011FC2000400039
:10391000FDFC410401041D04E10441FC0104B9FB68
:1039200000001FF0111011101FF0111011101FF0E6
:1039300011100100FFFE054009203118C1060100E9
:10394000B1E402000100FFFE044014502448444446
:1039500000003FF0082004400280010006C018303B
:10396000E00EBBBB1080108010F81108FA1015FC97
:10397000112419243124D12417FE1050105010881E
:1039800051042602B5E70100010001003FF82108BB
:10399000210821083FF82108210821083FF8210AC1
:1039A0000102010200FED1B900003FFE200020808C
:1039B0002080208020802FFC208020802090208864
:1039C000208840805FFE8000D6B5084008400FFC8C
:1039D0001040104033F8320853F8920813F81208D8
:1039E00013F8120812081FFE1000CAFD0820492013
:1039F0002A20083EFF442A44494488A41028FE286F
:103A000022104210642818283444C282D7D60200FB
:103A100001007FFE400280041FE0004000800100A2
:103A2000FFFE010001000100010005000200C1BF0E
:103A300000001FF010101FF01010FFFE00001FF01C
:103A400011101FF011101FF001001FF001007FFC8A
:103A5000CDA8000047F8201021A0004007FCE44456
:103A6000244427FC2444244427FC2444245454089C
:103A70008FFEB5C002082110100017FC008003F86B
:103A8000F20813F8120813F8120813F812082800A5
:103A900047FE0000C4A31110111017FC1110FC0008
:103AA00013F832083BF8560853F8904017FC10A062
:103AB000111012081406C4E21008108810481228C9
:103AC000FA28120812081A083208D208121012989E
:103AD0001324122450422082CAE4204020A0211046
:103AE000FA0825F6400053C49254FA5413D41A54D9
:103AF000F25453D41244125412C8C8EB040002000A
:103B000001000100010002800280028004400440A4
:103B1000082008201010201040088006CAE4204029
:103B200020A02110FA0825F6400053C49254FA54FC
:103B300013D41A54F25453D41244125412C8B3F684
:103B40000100010021082108210821083FF801088F
:103B50000100010041044104410441047FFC0004D0
:103B6000BDD31080104013FC1000FD08109017FE0C
:103B70001040184037FED0881108109010605198FE
:103B80002604BFDA000000003FF8200820082008C3
:103B900020082008200820082008200820083FF8D6
:103BA00020080000CEB9000003F87A484A484BF8D4
:103BB0004A484A484BF848004FFE7A404A44022897
:103BC000029003080206CEAA010021001100110094
:103BD00001007FF802080208028804480448080827
:103BE0001008200840508020C3EB08201C20F02043
:103BF00010A810A4FCA2112231203A2454245428E5
:103C000090081010102010C01300BFB400F87F00FF
:103C100001003FF80200FFFE040008001FF028101A
:103C20004FF088100FF008100FF00810C3C52000E7
:103C300013FC1004400440044004400440044004C9
:103C40004004400440044004400440144008B9B714
:103C500000804480290011FC2A044C0489E40924D2
:103C60001924292449E48924080408045028201030
:103C7000D2E7020821081110100087FC4000411013
:103C80001208140423F8E2A822A822A822A82FFED2
:103C90000000B3F6010001002108210821082108D5
:103CA0003FF80108010001004104410441044104BE
:103CB0007FFC0004B8FC0000FFFE010001003FF89B
:103CC000210821083FF8210821083FF811000A00C7
:103CD000060019C0E03ED0C2100008047F78004002
:103CE00022401440FF7E084808487F4808482A4878
:103CF0004948888828881108B6A8020001007FFE7C
:103D00004002800400003FF801000100110011F89A
:103D100011001100290047FE8000CAB10008000808
:103D20007C08440845FE440844087C08448844480C
:103D3000444844087C08440800280010C6F70000E6
:103D40003E7C224422443E7C01200110FFFE028082
:103D50000C603018C0063E7C224422443E7CBCE409
:103D6000200013FC1004400447C444444444444429
:103D700047C444444444444447C4400440144008B5
:103D8000D5E60060004000FC03C000F00310039083
:103D9000039003D0031007FF39000210060C000443
:103DA0000000B2CA000000860106064C0BC80C8356
:103DB00003C61F0C23C305030906310C031C003086
:103DC00000600000D2BA000000600460067C01C000
:103DD00009B8197C1368159015F015CE0907000075
:103DE000000000000000BEA7000000E0033003B0A8
:103DF000023003B002700F3C094C1D6C094C0F6C73
:103E0000001C000000000000C6C10000007C018C06
:103E10000178018C03D804BC07D808FF1FE8248868
:103E200000880188000800080000C0B608200820AB
:103E3000FFFE08200480248024FC24A0251000001C
:103E40003FF8244824482448FFFE0000D1C0000069
:103E50003FFC004000401040104020403FFE014029
:103E60000240044008401040604001400080BFD83C
:103E700010401020102013FEFA02149411081A04A6
:103E80003000D1FC102010201020102057FE200000
:103E9000D6C60404240424043FA444240424FFE4D8
:103EA000042404243FA424A424A426842504041464
:103EB0000408CDA8000047F8201021A0004007FC0E
:103EC000E444244427FC2444244427FC244424546C
:103ED00054088FFEB9FD00102010101017FE0010BE
:103EE0000010F210111011101010101010501020AE
:103EF000280047FE0000BDD31080104013FC1000C6
:103F0000FD08109017FE1040184037FED0881108A9
:103F10001090106051982604CAD5084008404840C7
:103F2000488048FE49084A88488848885850685060
:103F300048200850088809040A02B5C410401040FF
:103F400020407E7C42844284430442447E244224B6
:103F50004204420442047E0442280010C3FC0100D3
:103F6000010002800440082037D8C00600003EF857
:103F70002288228822883EA8229000800080C1EEFC
:103F800001000100028004400A2011102108C0062F
:103F90001FF000100020044002800100008000801B
:103FA000CAFD082049202A20083EFF442A444944EB
:103FB00088A41028FE2822104210642818283444AF
:103FC000C282BEDD200023FC22042204FBFC22204E
:103FD00022202BFE3220E22022FC22842284248410
:103FE000A4FC4884CDA8000047F8201021A0004080
:103FF00007FCE444244427FC2444244427FC2444B0
:10400000245454088FFED0C5084008200BFE100031
:10401000100031FC3000500091FC1000100011FC29
:104020001104110411FC1104BBB600800080FC8057
:1040300004FC050449082A401440104028A024A08C
:1040400045108110020804040802D3AD000020804E
:10405000133C122402240224F2241224122412B447
:10406000132812201020282047FE0000CAB9104053
:1040700010401FFE2040204067FC6444A44427FCFD
:104080002040224021402080214022302C0ED3C3EA
:1040900000003FF82108210821083FF821082108E5
:1040A00021083FF8210821082108410841288010F3
:1040B000C4CF01000100FFFE010001007FFC482485
:1040C00044444FE4410441045FF441044104411479
:1040D0004008BEA902000100FFFE000000001FF022
:1040E0001010101010101FF0010011101108210401
:1040F00045040200BABD104020207C0045FC64004D
:10410000540054F0FC904490649054905492449223
:104110004512550E8A00BFD5020001007FFE400205
:1041200088241010200800001FF001000100010089
:10413000010001007FFC0000CCEC00003FF8010012
:10414000010001000100FFFE010002800280044026
:104150000440082010102008C006B4F3010001003C
:10416000010001000100FFFE010001000280028049
:1041700004400440082010102008C006D1A72208DF
:104180001108111000207FFE400280041FE0004053
:104190000180FFFE01000100010005000200C7B61A
:1041A0000100210821083FF800202220223EFF4282
:1041B000229422103E10221022283E2822440082FF
:1041C000C8EB04000200010001000100028002802F
:1041D00002800440044008200820101020104008ED
:1041E0008006CABD0048004400440040FFFE004075
:1041F00000403E4008400840082008220F12780A7C
:1042000020060002CFB500F83F000400082010404F
:104210003F800100061018087FFC010409201110DE
:10422000210845040200CDB310401020202023FEB9
:104230004840F888110423FE4092F8904090009086
:104240001912E112420E0400D4AD00003FFE20809E
:10425000210027F02410241027F02410241027F028
:1042600020802490488852848100C0ED000001FC29
:10427000FD24112411FC112411247DFC1020102098
:1042800011FC10201C20E02043FE0000BCB0000008
:104290003FE008200820084008400CF80A080A08F7
:1042A0000910111010A0204020A043188C06D3A69E
:1042B000010000803FFE2000200021042884248487
:1042C0002448224822102210402040409FFE000037
:1042D000D3C300003FF82108210821083FF8210836
:1042E000210821083FF82108210821084108412818
:1042F0008010C5E40000FE0028F82808FE08AA087F
:10430000AA08AAF8AE88C2808280FE808282828259
:10431000FE7E8200CCD7010001007FFC02800440B9
:104320000FF03418C7E6040007E00400FFFE0400A5
:1043300008101FF80008CAB5020001007FFE400205
:10434000888404800480108008800880FFFE01407B
:104350000220041018086004D1E90020F820085059
:104360004850488849044AFA7C00044404241D2427
:10437000E4A8448804102BFE1000BFAA00007FFCB4
:1043800008200820082008200820FFFE0820082018
:10439000082008201020102020204020B7A2010073
:1043A0001110110822003FFC0200040007F80A085F
:1043B0000908111010A0204040A003181C06B0E509
:1043C0001008101C11E01100FD0011FC31443944AB
:1043D00055445528912811101110122812441482A6
:1043E000CABE00003FF80000000000000000FFFE11
:1043F0000100010011101108210441028102050091
:104400000200C0FD1004100417C42214221463D447
:104410006254A45426542554289420942104220440
:1044200024142808CAB9104010401FFE2040204024
:1044300067FC6444A44427FC2040224021402080A3
:10444000214022302C0ECAD00200010000007FFC67
:104450000100010001003FF821082108210821087E
:104460002128211001000100BCBC102010201020C8
:1044700013FEFC201020102015FC18843088D04832
:1044800010501020105051882606CAF50100012056
:10449000011001107FFC0380054005400920111028
:1044A000210841048102010001000100D3D0020073
:1044B0000200FFFE040004000FF0081018102FF097
:1044C000481088100FF00810081008500820CFDEA0
:1044D00000007BF84A08520853F8620852084BF86B
:1044E0004A444A486A3052204210428843064200F9
:1044F000B9AB0080048004800840084010202010E0
:104500004208820604000440082010203FF01010EA
:104510000000CBBE00003FF8000800087FE800085C
:1045200000081F8810881088108810881F8810883D
:1045300000280010BBB600800080FC8004FC05044D
:1045400049082A401440104028A024A0451081109A
:10455000020804040802D3AD00002080133C12249A
:1045600002240224F2241224122412B4132812204A
:104570001020282047FE0000C4FA0900090011FCA1
:104580003204544899501148124414441140108088
:1045900002005104511290120FF0B4BF000000202D
:1045A000102013FE202026244A247A2412242224B8
:1045B00023FC7C20002204227822003CC9AB0000AE
:1045C000000004000FF0102020207FFC20842084B5
:1045D000208420843FF82000200220021FFECCEE21
:1045E00000000000204023FE204079FC220423FC30
:1045F000220423FC220423FC3A0465FA01980204F5
:10460000B3E40000010001007FFE02200410040852
:1046100008043FFC044204400440044208421042A3
:10462000607EBED800000000207E3E80488048802A
:1046300048FE48827F8208820C8214FA128422800B
:10464000218040FED0CE000000007F84220822306E
:1046500022C0220222047FC8223022C22202220467
:10466000220822304040BBAD000000007FFE000069
:104670000FF011101110111051125FF2511251125E
:1046800051124FF240027FFCD4B2000000007FFEC6
:1046900047E24812481247E24FF2501250125112AC
:1046A000511242924472580A3FFCCDBC00000000F7
:1046B0003FFE440247F24C225362408243625E1A3C
:1046C00041824062430240C240223FFCC6AC00002F
:1046D00000402040204020403FFE200020002000DD
:1046E0003FE0201020102010201040104010CFD4A8
:1046F000000000003FFC200420043FFC20042004B4
:104700001FF824441448144814480C5004407FFEF9
:10471000CABE000000003FFC0000000000007FFE59
:1047200000800890088810881084208420824082AD
:104730000780B2CB0000002008207FFE0020007818
:104740003F881108089009207FFE018003400D304A
:10475000310C4002B5A500000010081004203FF8FD
:10476000210421043FFC210421043FF801007FFEC5
:10477000010001000100D6D000000100010001008D
:104780003FFC2104210421042104210421043FFCD5
:104790000100010001000100D3A200000000082078
:1047A0007FFE0820092001003FF821082108210888
:1047B0001FF4014002200C10700ECEC40000010056
:1047C000010000803F7C0810081004100420022023
:1047D00002400180018002601C18E006D7DB000067
:1047E0000000102011FE2202220249FC5800300075
:1047F00013FE2528792401240D24722202A2BACFA7
:1048000000000000018002400430180860061FF814
:1048100000001FF8200420042004200420041FF8B6
:10482000C1C10000010001007FFE00003FF8200828
:104830003FF83FF8400647C24824082008221022CB
:10484000603EB6C80000000000803FFE44105FFCE0
:104850004410441043F040005FF84408423041C027
:104860004360BC1EB2E20000000067C21452055251
:104870000552C55225520552055215521752228231
:1048800022424442483ECAD40000000020141014C2
:1048900017FE00120010601013F01090109010908E
:1048A000149214EA1F0A0006B3CC0000000019FE9F
:1048B0007202120212027DFC18001BFE34205020EE
:1048C00053FE10201020102013FED0F20000000034
:1048D00000803FFE400047FC4208413040C05FFE80
:1048E000404240424044404840404440B5F7000008
:1048F000000023FE122202FA0222E22212FE1272AB
:10490000128A128A128A16BA1A421202040EB9E2E6
:1049100000000100010411080908091009207FFEA8
:104920000440044004400440084208421042607CB5
:10493000B0E60000000048FE4900490049007EFE44
:10494000418241447944452845284510452846443C
:104950000382C8A800001000100013FC7D0411049D
:104960001904188434885048505010201050108872
:1049700013041402CBF9000000003F7C20402040CB
:104980003E40227E2244224422443E8420842084CD
:10499000408441044204D5C50100F9080908091002
:1049A00009207940410047FE414079200920091043
:1049B0000908094451822100D8B70100220824487F
:1049C00027882108224827C8200827C8244827C844
:1049D000244827CA444A444A84C6C3C80820082039
:1049E000FFFE0820000000FC7C84448444FC7C849E
:1049F000448444FC7C84448401140208D5BC010036
:104A00000100010001FE01000100010001003FF86A
:104A1000200820082008200820083FF82008B1C8F6
:104A20000080208020802084208820903EA020C00C
:104A3000208020802080208226823882207E0000F4
:104A4000C7B600000000000000380038381C3838B5
:104A50001C38381C3FFFF800000018E70018E7007A
:104A6000FFFFFE18EEC618ECC618FCCE18FCCE18D8
:104A7000E1DC1FE1E018E1E018E3F018E3F018E7EB
:104A80003818EE1C18FC0E1FF807C8EB00000000D9
:104A9000000000000000F000003800001C00001CB6
:104AA00000001C00003E00003E00003700007700C0
:104AB00000730000E38000E18001C1C00380C003F7
:104AC00080E00700700E00701C003838001C700079
:104AD0000E600007CABD0000000000000001800059
:104AE00007E000077800073C0007007FFFFE000793
:104AF000000003000003000003807FFF8003838029
:104B00000383800381800381C00381C60380C703C0
:104B10008EE703FEE707F0767F007E60003ECFB5AC
:104B20000000000000000001F83FFFC0007000001E
:104B3000E00001C1C00383800F07000FFE60003C4E
:104B40007000F07003C0380F00F81FFFFC00198CD4
:104B50000719CE0718E00E18E01C18701C1838381A
:104B6000183870181C63F81CCDB30000000000005A
:104B70000007000E03800E03800CFFFE1C07001CC4
:104B80000E6039CE70339C38739C38FF3818E67F3E
:104B9000FC0E7EEC1C0EEE1C0EEE39EEE07F8CE07F
:104BA000F81CE7001CE700F8E70FF8E7FEF0EE015D
:104BB000C07ECAB5000000000000003800001C00E4
:104BC0000FFFFC3FFFFF30000731C60631C60E3C29
:104BD000E6000E7600073E00038E0001CE00000EB8
:104BE00000000E00FFFFFF001C00003F800079C0A6
:104BF00000F0F001C0380F801C7C000ED1E90000ED
:104C0000000000000000000003C07F83E001876017
:104C1000318E70319C3833B81C33F80E73FFFF733C
:104C200090007FC0063FC00600FB8E00F98E00FD9D
:104C3000CC07FDDCFEECDC00CEF800CE3800C0383E
:104C40001DFFFF1F8003BFAA00000000000000003E
:104C5000001FFFFE0380E00380E00380E00380E0AC
:104C60000380E00380E00380E07FFFFF7FFFFF031E
:104C700080E00300E00300E00300E00300E0030045
:104C8000E00300E00600E00600E00C00E01C00E0AD
:104C9000B7A20000000000000038000C39C00C3042
:104CA000700C30381C300C1FFFFE0FFFFE00600040
:104CB00000600000600000FFF800F01801D8380123
:104CC0009C30030C70070EE00607C00C03801C0725
:104CD000C0381C7070703C03C00FB0E500000000CD
:104CE000000006000006001E061FF8061800061841
:104CF000007FD8007FD8000E1FFC0F1C0C0F1E0C6D
:104D00001F9E0C1F9E0C1EDB183E1B18363BB876F0
:104D100031B06630F00630E00671F00663B806EF99
:104D20001C07DC07CAD000000000000000300000B3
:104D3000180000180800001C1FFFE00018000018F1
:104D40002007FFF00418200418200418200418205D
:104D50000418200418200418200418200418200423
:104D600018E0041840001800001800000000D6D019
:104D7000000000000000000000000000001800001B
:104D800018000018000018003FFFFE301806301809
:104D9000063018063018063018063FFFFE30180699
:104DA000001800001800001800001800001800008B
:104DB0000000000000000000CEC400000000000061
:104DC000000000003800001C00000600FFFFFF0686
:104DD00000300600300300600300600180C000C1A5
:104DE0008000E300003600001C0000770003C1E0F3
:104DF0001E003C60000700000000000000000000F2
:104E00000000B2E20000000000000000000000000E
:104E100040000321FF33398333118333019B33C1B6
:104E20009B33719B33199B33019B33019B33119B44
:104E30003319B333303033306C0330C6036383032C
:104E40002E01BE000000000000000000CAD40000D7
:104E5000000000000000000000004000D83000CE3C
:104E60001800C21C00C001FFFF0000C0F800C018FD
:104E700000C019FFC01818401818601918601B18D6
:104E8000611E18311C1FB139F01910000F0000000D
:104E9000000000000000D7D600000000000600005F
:104EA000000300000000C0000001C0C0000107C0F6
:104EB0000001FF00021FFE0007F01C0007C0700089
:104EC0000F00E0000E03F0001C0FF0003C0F70001C
:104ED0003C00E0001800C0000000C0000000C0005E
:104EE0000000600000002000000037000001FF000B
:104EF000007FF80007F830001F803000008030008D
:104F000000C03000006060000018E000000FC0002A
:104F10000006000000000000CCE5000000000000DA
:104F20000000000000C0000000E0002001B8007098
:104F30003FF80061FFC000C3030001C60600038CF8
:104F4000060003080C0006080C000E18183F1E107F
:104F50001BF31F903F0700803C1C0190707C019068
:104F600060FE01A0C3F801A00FD803A008180360D9
:104F700000180340001803C0001803800018030045
:104F800000180000001800000010000000300000B1
:104F900000300000000000000000B2E2000000004D
:104FA000000000000000000000000000020C1008DB
:104FB000071FF80403BFF00201BC300303EC300309
:104FC000015C600300D8600300D86003809862032E
:104FD00061B8430771B14306313243063376C306E5
:104FE0003A64C7063EECC0063E78C0063C30400638
:104FF0007C70000678E060067BFFF006F7C00006D4
:10500000E400000640000006000000060000007CEE
:1050100000008FF000007C0000000000CAD40000F7
:105020000000000000000000000000003F00000041
:105030007F8000000180000000C0000000C0000070
:1050400000CE038000CFFFC000DD41800FFE0007CF
:10505000FFFC000C00F000180FC03E19FF40F311D8
:10506000BC6083307FE003B1FE20033380200370F7
:105070000030036000100360001807C0000C07C078
:10508000000407800002010000030000000100008E
:105090000000000000000000000000000000C7B693
:1050A0000000000000000000000000000000000000
:1050B00000000000000000000000000100000000EF
:1050C00001F000000000F000000000E00C0008000B
:1050D000E00F000700E00E000700E01C000300FFE7
:1050E000F80007FFE030000FE0008000060000E05D
:1050F00000001E00E000001E01C000000C01830043
:105100001C0C039F001C0DC7E1000DFFC60303FE2E
:105110000C090207FC0C11C0000C0C01C0000FECC4
:105120000180000FCC01E0000C0C03B0000C0C0758
:105130001C000C1C0E0F000FFC1807001FFC700158
:10514000001C19800000081800000000000000008A
:10515000000000000000000000000000000000004F
:105160000000000000000000C8EB0000000000008C
:10517000000000000000000000000000000000002F
:10518000000000000000000000000000000000001F
:1051900000000000000000000078000000001F0078
:1051A000000000038000000001C000000000E000DB
:1051B000000000F000000001F800000003DC000027
:1051C00000038C000000070E0000000F0700000025
:1051D0001E038000003C01C000007800E00000F0E9
:1051E00000780001E0007C000380003E0007000022
:1051F0001F001C00000F007800000700C000000323
:10520000030000000000000000000000000000009B
:10521000000000000000000000000000000000008E
:10522000000000000000000000000000000000007E
:105230000000CABD000000000000000000000000E7
:10524000000000000000000000000000000000015D
:10525000E000000000F83C000000781F000000386B
:1052600007000000380100000038000000001800AE
:1052700000000018000000001FF8000000FFC00040
:10528000001FFC00000FFF0E0000000006000000E1
:105290000007000000000300000001838000001FE1
:1052A000C1800003FE01C000019C00E000001C0062
:1052B0006000001C00700000183C3800001FC01C7B
:1052C0000000FE000E00FFE00007007F000003006A
:1052D00018000001000000000000000000000000B5
:1052E00000000000000000000000000000000000BE
:1052F000000000000000000000000000CFB500002A
:10530000000000000000000000000000000000009D
:105310000000000000000000000001C000000007C5
:10532000F00000003FF8000007FC000000FE6000F5
:105330000000007800000000F000000001C07000D4
:10534000000700F800001C01F80000F007C0000191
:10535000FFFE000000E07800000001E040000007D0
:10536000807800001C003E0000F0003F000FC1FFED
:10537000C7000FFE70030007003800000000300077
:105380000001003078000300301F000700300F00DC
:105390001F003003003E003001003C0030000000E0
:1053A00007F000000001F000000000F00000000025
:1053B000600000000000000000000000000000008D
:1053C000000000000000CDB300000000000000005D
:1053D00000000000000000000000000000000000CD
:1053E00000000000000000000001C000020001F801
:1053F0000003C000780003C00038000380000000F4
:1054000007000000000600000F000C0E01FF00184E
:105410001E3FC000301C01C000E038038401FFE0E3
:10542000070701C0C00C0300018038FD000700FF22
:1054300010000E7C6018003FC00618007E000E1899
:105440000070000C100000061C100000383810001E
:1054500003E07010001F80E01003FC03801801F0CF
:1054600007001800001C000C000060000F00000086
:105470000003000000000000000000000000000029
:10548000000000000000000000000000000000001C
:10549000C7B600000000000000000000000000008F
:1054A000000000000003E000000000000003E00036
:1054B000000000000003E000000000000003E00026
:1054C0000000007C0003E0001E00007C0003E00000
:1054D0001E00007C0003E0001E00007C0003E000D2
:1054E0001E00007C0003E0001E00007C0003E000C2
:1054F0001E00007C0003E0001E00007FFFFFFFFF96
:10550000FE00007FFFFFFFFFFE00007FFFFFFFFFA9
:10551000FE00007FFFFFFFFFFE0000000000000014
:10552000000000000000008000000000000000F00B
:105530000000000000F800FC0000007C00F800F80B
:105540000000007C00F801F80000007C00F801F089
:105550000000007C00F801F00000007C00F803E08F
:105560000000007C00F803FFFFF0007C00F807FF5C
:10557000FFF03FFFFFFF87FFFFE03FFFFFFF8FFFD1
:10558000FFE03FFFFFFF8F8003E03FFFFFFF9F0033
:1055900003C0007C00F83F0007C0007C00F83E001C
:1055A0000780007C00F87E000F80007C00F87C1EE5
:1055B0000380007C00F8181F0000007C00F8081F22
:1055C0000000007C00F8001F0000007FFFF8001FB3
:1055D0000000007FFFF8003F0000007FFFF8003F61
:1055E0000000007FFFF8003F0000007C00F8003F53
:1055F0000000007C00F8003F8000007C00F8007F85
:105600008000007C00F8007BC000007C00F800FBFC
:10561000C000007C00F800FBE000007C00F801F115
:10562000F000007FFFF801F0F800007FFFF803E0D2
:10563000FC00007FFFF807E07E00007FFFF80FC04E
:105640007F00007C00F81F803F80007C00F83F80D6
:105650001FC0007C00F87F000FF0007C00F9FE0006
:1056600007F8007C00F9FC0003F0007C00007800E3
:1056700001E0007C0000300000C0000000000000DD
:10568000000000000000000000000000000000001A
:105690000000C8EB00000000000000000000000057
:1056A00000000000000000000000000000000000FA
:1056B00000000000000006000000000000000F00D5
:1056C0000000000000001F800000000000003FC03C
:1056D0000000000000003FF00000000000000FF894
:1056E00000000000000003FC00000000000001FEBC
:1056F00000000000000000FF000000000000007F2C
:10570000000000000000003F800000000000001FBB
:10571000C00000000000000FC00000000000000FEB
:10572000E000000000000007E000000000000003AF
:10573000F000000000000007F80000000000000773
:10574000F800000000000007F80000000000000F53
:10575000FC0000000000000FFC0000000000001F23
:105760007E0000000000001F3E0000000000003F1F
:105770003F0000000000003E3F0000000000007EEF
:105780001F8000000000007C1F800000000000FC63
:105790000F800000000000F80FC00000000001F8BA
:1057A0000FC00000000003F007E00000000003F05D
:1057B00007E00000000007E003F0000000000FE039
:1057C00003F0000000000FC001F8000000001FC03F
:1057D00001FC000000003F8000FC000000003F00D2
:1057E00000FE000000007F00007F00000000FE00BF
:1057F000007F80000001FC00003FC0000003F800B3
:10580000001FE0000007F800001FF000000FF0008C
:10581000000FF800001FE0000007FE00003FC0007E
:105820000003FF00007F80000001FFC001FF0000B7
:105830000000FFE003FE000000007FF80FFC000006
:1058400000003FF03FF8000000001FE01FF00000E4
:1058500000000FC00FE00000000007C007C00000FC
:105860000000018003000000000000800000000034
:105870000000000000000000000000000000000028
:105880000000000000000000000000000000000018
:1058900000000000CABD0000000000000000000081
:1058A00000000000000000000000000000000000F8
:1058B0000000FE00000000000000FE0000000000EC
:1058C0000000FE07000000000000FC0F8000000048
:1058D00000007C1FC000000000007C0FE000000002
:1058E00000007C07F000000000007C03F8000000CE
:1058F00000007C03F800000000007C01F8000000BC
:1059000000007C00E000000000007C00400000007F
:1059100000007C0000001FFFFFFFFFFFFFC01FFF14
:10592000FFFFFFFFFFC01FFFFFFFFFFFFFC01FFFC5
:10593000FFFFFFFFFFC01FFFFFFFFFFFFFC00000D3
:1059400000003E000000000000003E0000000000DB
:1059500000003E000000000000003E0000000000CB
:1059600000003E000000000000003F0000000000BA
:1059700000001F000000000000001F00000001FFE9
:10598000FFFF1F00000001FFFFFF1F00000001FFDD
:10599000FFFF1F80000001FFFFFF0F80000001FFDD
:1059A000FFFF0F80000000007C000F80000000005F
:1059B0007C000FC0000000007C0007C00000000059
:1059C0007C0007C0000000007C0007E00000000031
:1059D0007C0003E0000000007C0003E00000000009
:1059E0007C0003F0000000007C0001F000000000DB
:1059F0007C0001F8000000007C0001F800000000BD
:105A00007C0000FC000000007C0040FC01800000E5
:105A10007C07C07E01E000007C7FC07E01F80000B2
:105A20007FFFC03F01F800007FFFC03F81F8000FFB
:105A3000FFFC001FC1F801FFFFC0000FE1F807FFE6
:105A4000FC00000FF3F807FFE0000007FFF003FF82
:105A500000000003FFF003F800000001FFF003C0A6
:105A600000000000FFE00100000000007FE00000F7
:105A7000000000001FC00000000000000000000047
:105A80000000000000000000000000000000000016
:105A9000000000000000CFB5000000000000000082
:105AA00000000000000000000000000000000000F6
:105AB0000000000000001800000000000003FC00CF
:105AC00000000000007FFE0000000000FFFFFF005C
:105AD00001FFFFFFFFFFFF8000FFFFFFFFFFF00060
