:020000040800F2
:10000000980C002065010008A9120008990B00084F
:10001000A7120008D1010008291B000800000000F9
:10002000000000000000000000000000ED130008C8
:100030006704000800000000AB120008ED1500087E
:100040007F0100087F0100087F0100087F01000890
:100050007F0100087F0100087F0100087F01000880
:100060007F0100087F0100087F0100087F01000870
:100070007F0100087F0100087F0100087F01000860
:100080007F0100087F0100087F0100087F01000850
:100090007F0100087F0100087F0100087F01000840
:1000A0007F0100084D1600087F0100087F0100084D
:1000B00095160008DD1600087F0100087F01000882
:1000C0007F0100087F0100087F0100087F01000810
:1000D0007F0100087F0100087F0100087F01000800
:1000E0007F0100087F0100087F0100080000000078
:1000F0000000000000000000000000000000000000
:1001000000000000000000007F0100087F010008DF
:100110007F0100087F0100087F0100087F010008BF
:100120007F0100087F0100087F0100087F010008AF
:100130007F0100087F0100087F0100087F0100089F
:100140007F0100087F0100087F0100087F0100088F
:10015000DFF80CD000F02AF8004800471526000808
:10016000980C00200648804706480047FEE7FEE757
:10017000FEE7FEE7FEE7FEE7FEE7FEE7FEE7FEE757
:10018000F11500085101000840EA01039B0703D064
:1001900009E008C9121F08C0042AFAD203E011F8C6
:1001A000013B00F8013B521EF9D27047064C074D47
:1001B00006E0E06840F0010394E807009847103437
:1001C000AC42F6D3FFF7C8FFB08D0008D08D000811
:1001D000FEE70000044B01228240186809B1104379
:1001E00000E09043186070470074004000B50121A2
:1001F00085B0480701F066F80121052001F07AF882
:100200002020ADF8100018208DF8130003208DF881
:10021000120004A90C4800F025FA00F023F80C2085
:10022000009000200190022003906946102000F009
:1002300025F801211020FFF7CDFF0121102000F04B
:1002400031F805B000BD000000080140044B9A14CD
:100250008240186809B1104300E09043186070476D
:100260000074004010B501214C07204601F036F81B
:100270002046BDE81040002101F030B830B5084CF0
:10028000236840F6FE7282409343D1E900252A4359
:10029000D1E902510D432A4382401A43226030BD06
:1002A000007400400209054B0120904000291968A4
:1002B00001D0014300E0814319607047047400409D
:1002C0000029016802D041F0010102E04FF6FE7200
:1002D000114001607047000010B58CB00121022070
:1002E00000F0E4FF154C204600F02EF814482022C0
:1002F000002100680090134801901020CDE902020F
:100300008020CDE90410400006908000CDE907026E
:10031000C000CDE909016946204600F087F80121B7
:100320002046FFF7CDFF01211020FFF753FF0121E9
:100330001020FFF78BFF0CB010BD000044040240FA
:10034000000000207400002001684FF6FE7211408A
:1003500001600021016041608160C1603149314A22
:100360000839904203D1486840F00F0006E02D4A5A
:100370001432904204D1486840F0F0004860704761
:10038000284A2832904203D1486840F47060F5E76B
:10039000244A3C32904203D1486840F47040EDE773
:1003A000204A5032904203D1486840F47020E5E77B
:1003B0001C4A6432904203D1486840F47000DDE783
:1003C000184A7832904203D1486840F07060D5E70F
:1003D000154A111F904203D1086840F00F0006E053
:1003E000114A1432904204D1086840F0F0000860CD
:1003F00070470D4A2832904203D1086840F470607B
:10040000F5E7094A3C32904203D1086840F4704055
:10041000EDE7054A50329042EAD1086840F4702076
:10042000E5E70000080002400804024030B5026819
:1004300047F6F0739A430C6A8B682343D1E904456D
:100440002C4323438C692343CC6923434C6A2343C5
:100450008C6A234313430360CA6842600A6882605F
:100460004968C16030BD704710B56FF0040001F0FD
:10047000B1F807490878C008487000EB4002C2EBA9
:10048000C0104FF6FF7202EAC000488010BD0000A5
:10049000380000200849498848434FF0E02148616E
:1004A00000238B61012008610869C20701D0C003E5
:1004B000FAD50B618B617047380000200149C86094
:1004C000704700000020024070B505464FF430260A
:1004D000304600F059F8042811D1094C206940F049
:1004E000020020616561206940F0400020613046D3
:1004F00000F04AF8216941F6FD721140216170BD9A
:100500000020024008490420CA68D20701D0012017
:100510007047CA68520701D502207047C968C906EA
:10052000FBD503207047000000200240024801690B
:1005300041F080010161704700200240F0B506469D
:100540004FF400570D46384600F01EF804280CD131
:10055000064C206940F0010020613580384600F0EB
:1005600013F82169BA1E11402161F0BD002002403C
:1005700003480249416003494160704723016745D0
:1005800000200240AB89EFCD00B50346FFF7BAFF6C
:1005900002E0FFF7B7FF5B1E012803D0002B00D15C
:1005A000052000BD002BF4D1FAE700002DE9F84347
:1005B00001213C2000F09EFE9C20ADF800000320AD
:1005C0008DF80200DFF88C8010268DF803606946F4
:1005D000404600F047F88020ADF8000069461E480C
:1005E00000F040F84FF4C050ADF8000048248DF8FA
:1005F00003406946404600F035F87002ADF800004F
:10060000164F8DF803406946384600F02BF8012557
:10061000ADF800508DF803606946384600F022F8C6
:10062000ADF800508DF8034069460D4800F01AF807
:100630000421404600F06DF80821404600F069F8BA
:100640001021404600F065F88021404600F061F836
:10065000BDE8F88300140140000C01400010014087
:1006600000080140F0B5CC78002204F00F03E40646
:1006700001D58C7823430C784FF00F0C14F0FF0F4A
:100680004FF0010E1BD005680E880EFA02F42640CA
:10069000A64210D196000CFA06F725EA070703FADE
:1006A00006F5CE783D43282E02D0482E02D002E037
:1006B000446100E00461521C082AE5D305600A8801
:1006C000FF2A1CD94468002202F108060EFA06F53A
:1006D0000E882E40AE420ED196000CFA06F7BC43AF
:1006E00003FA06F7CE783C43282E00D14561CE7838
:1006F000482E00D10561521C082AE5D34460F0BDA4
:100700000246002092680A4200D0012070474161F1
:1007100070470161704700002DE9FF4F82B0054628
:100720008346E120924689464FF000080190304907
:100730000F9A08EB081011F81030127893423CD150
:1007400001EB4000009041780F984078814234D10D
:1007500009F10F0083B205F10F0082B24946284625
:1007600000F072FC0026009800248719109890B1C0
:1007700020498020E040A1F800A0B978014203D0D0
:100780004946284600F072FA6D1CADB2A5EB0B008D
:10079000102827D009E0B9788020E040014201D03C
:1007A000504600E0059800F043FD641CE4B2082CBC
:1007B000DCD3761CF6B2202ED5D308F101000199C6
:1007C0001FFA80F88845B2D30B494888401E83B28F
:1007D000088806B0401EBDE8F04F82B200210846EE
:1007E00000F032BC09F101005D461FFA80F9E0E734
:1007F000AC48000864000020840800202DE9FF4F69
:1008000082B0054683460F2001900020924689461B
:10081000804600EB800101EB48102F490F9A11F838
:100820001030127893423CD101EB400000904178A7
:100830000F984078814234D109F1170083B205F155
:10084000170082B24946284600F0FEFB00260098B9
:1008500000248719109890B120498020E040A1F829
:1008600000A0B978014203D04946284600F0FEF9BD
:100870006D1CADB2A5EB0B00182827D009E0B978A4
:100880008020E040014201D0504600E0059800F091
:10089000CFFC641CE4B2082CDCD3761CF6B2482EE4
:1008A000D5D308F1010080B2019980468842B0D3C7
:1008B0000B494888401E83B2088806B0401EBDE838
:1008C000F04F82B20021084600F0BEBB09F10100E2
:1008D0005D461FFA80F9E0E78E660008640000209C
:1008E000840800202DE9FF4F82B00546834604208E
:1008F000924689464FF00008019030490F9A08EB64
:10090000881011F81030127893423CD101EB40006E
:10091000009041780F984078814234D109F11F004E
:1009200083B205F11F0082B24946284600F08CFBD5
:100930000026009800248719109890B12049802043
:10094000E040A1F800A0B978014203D0494628460A
:1009500000F08CF96D1CADB2A5EB0B00202827D060
:1009600009E0B9788020E040014201D0504600E023
:10097000059800F05DFC641CE4B2082CDCD3761C06
:10098000F6B2802ED5D308F1010001991FFA80F844
:100990008845B2D30B494888401E83B2088806B008
:1009A000401EBDE8F04F82B20021084600F04CBB6B
:1009B00009F101005D461FFA80F9E0E7E46A0008EA
:1009C00064000020840800202DE9FF4F82B0054616
:1009D00083460520924689464FF000080190652124
:1009E00008FB01F02F490F9A11F81030127893424A
:1009F0003CD101EB4000009041780F984078814253
:100A000034D109F1270083B205F1270082B24946AB
:100A1000284600F019FB002600980024871910983A
:100A200090B121498020E040A1F800A0B9780142AE
:100A300003D04946284600F019F96D1CADB2A5EB6C
:100A40000B00282827D009E0B9788020E040014237
:100A500001D0504600E0059800F0EAFB641CE4B2C7
:100A6000082CDCD3761CF6B2C82ED5D308F10100D1
:100A700001991FFA80F88845B1D30C494888401E77
:100A800083B2088806B0401EBDE8F04F82B2002154
:100A9000084600F0D9BA09F101005D461FFA80F955
:100AA000E0E70000EC6C00086400002084080020EF
:100AB0002DE9FF4F82B005468346082092468946BD
:100AC0004FF00008019031490F9A08EB082011F807
:100AD0001030127893423DD101EB400000904178F4
:100AE0000F984078814235D109F13F0083B205F17A
:100AF0003F0082B24946284600F0A6FA0026009838
:100B000000248719109890B121498020E040A1F875
:100B100000A0B978014203D04946284600F0A6F863
:100B20006D1CADB2A5EB0B00402828D009E0B978C8
:100B30008020E040014201D0504600E0059800F0DE
:100B400077FB641CA4B2082CDCD3761CB6B2B6F5D5
:100B5000007FD4D308F1010001991FFA80F888457D
:100B6000B1D30C494888401E83B2088806B0401EA5
:100B7000BDE8F04F82B20021084600F065BA09F1E5
:100B800001005D461FFA80F9DFE70000DE70000813
:100B90006400002084080020FEE7000070B50C4DC2
:100BA0000646002468882146401E83B22888401EDD
:100BB00082B2204600F048FA03E0304600F038FBED
:100BC000641C288869884843A042F6D870BD00009C
:100BD000840800202DE9FE4F0026A2EB0008824683
:100BE0005F1A701E35468946B8F1000F02DD4FF0DE
:100BF000010102E003D14FF00001019102E0C8F1D0
:100C000000080190002F02DD4FF0010002E003D147
:100C10004FF00000009002E0C7F10007009040464E
:100C2000B84501DD044600E03C46601C4FF0000B77
:100C3000029015E01FFA89F11FFA8AF000F016F809
:100C400046443D44A64202DD0199361B8A44A54232
:100C500002DD00992D1B89440BF101001FFA80FB76
:100C600002998B45E6DDBDE8FE8F000000B500F07F
:100C7000BBF9034800885DF804EB00F0D9BA000026
:100C800064000020F0B51C4615460E4607460B468C
:100C9000FFF7A0FF3A46234631461046FFF79AFF7A
:100CA00023462A4619463846FFF794FF2A4623462C
:100CB0003146BDE8F0401046FFF78CBF2DE9F0410A
:100CC000141A641CA6B25C1A641C5B1E521EA7B2E6
:100CD0009BB292B2DDF8188000F0B6F900250AE068
:100CE000002404E0404600F0A3FA641CA4B2B4421D
:100CF000F8D36D1CADB2BD42F2D3064841880088DE
:100D0000491EBDE8F041401E8BB282B20021084668
:100D100000F09AB98408002038B50121792000F04C
:100D2000E9FA4FF4EB54ADF8004010208DF80300C1
:100D30000320194D8DF8020069462846FFF792FC02
:100D400021462846FFF7E5FC144D4FF46044ADF80A
:100D5000004069462846FFF785FC21462846FFF7F4
:100D6000D8FC0F4D4FF48044ADF80040694628464A
:100D7000FFF778FC21462846FFF7CBFC094D4FF6DC
:100D8000FF74ADF8004069462846FFF76BFC21462A
:100D90002846FFF7BEFC38BD00100140001401409A
:100DA000000C01400018014010B5FFF7B5FFCF203F
:100DB00000F054FA002000F03BFAC12000F038FAAD
:100DC000302000F035FAED2000F048FA642000F001
:100DD0002FFA032000F02CFA122000F029FA8120CB
:100DE00000F026FAE82000F039FA852000F020FA19
:100DF000102000F01DFA7A2000F01AFACB2000F043
:100E00002DFA392000F014FA2C2000F011FA0020FD
:100E100000F00EFA342000F00BFA022000F008FA7D
:100E2000F72000F01BFA202000F002FAEA2000F080
:100E300015FA002000F0FCF9002000F0F9F9C020BC
:100E400000F00CFA1B2000F0F3F9C12000F006FAC4
:100E5000012000F0EDF9C52000F000FA302000F08C
:100E6000E7F9302000F0E4F9C72000F0F7F9B720E7
:100E700000F0DEF9362000F0F1F9482000F0D8F952
:100E80003A2000F0EBF9552000F0D2F9B12000F043
:100E9000E5F9002000F0CCF91A2000F0C9F9B620DD
:100EA00000F0DCF90A2000F0C3F9A22000F0C0F93C
:100EB000F22000F0D3F9002000F0BAF9262000F06B
:100EC000CDF9012000F0B4F9E02000F0C7F90F20BF
:100ED00000F0AEF92A2000F0ABF9282000F0A8F9C4
:100EE000082000F0A5F90E2000F0A2F9082000F07B
:100EF0009FF9542000F09CF9A92000F099F94320B3
:100F000000F096F90A2000F093F90F2000F090F914
:100F1000002000F08DF9002000F08AF9002000F098
:100F200087F9002000F084F9E12000F097F9002013
:100F300000F07EF9152000F07BF9172000F078F919
:100F4000072000F075F9112000F072F9062000F07A
:100F50006FF92B2000F06CF9562000F069F93C2065
:100F600000F066F9052000F063F9102000F060F948
:100F70000F2000F05DF93F2000F05AF93F2000F00B
:100F800057F90F2000F054F92B2000F067F90020EA
:100F900000F04EF9002000F04BF9012000F048F974
:100FA0003F2000F045F92A2000F058F9002000F019
:100FB0003FF9002000F03CF9002000F039F9EF2063
:100FC00000F036F9112000F049F97820FFF762FAB5
:100FD000292000F043F900F023F802490120C1F86C
:100FE000A80110BD0000224270B50C4E05460C460B
:100FF000708900F033F9280A00F01AF9E8B200F01D
:1010000017F9B08900F02AF9200A00F011F9E0B2CE
:1010100000F00EF9BDE8704000F036B984080020F9
:1010200008482C21018100218171F02101804FF4B9
:10103000A07141802A2141812B218181C921362043
:1010400000F028B9840800202DE9F041DFF8508035
:1010500007461C4615460E46B8F80A0000F0FEF892
:10106000380A00F0E5F8F8B200F0E2F8280A00F0DB
:10107000DFF8E8B200F0DCF8B8F80C0000F0EEF8A9
:10108000300A00F0D5F8F0B200F0D2F8200A00F0F3
:10109000CFF8E0B200F0CCF8BDE8F04100F0F4B8D1
:1010A000840800202DE9FF4F81B091460EAA8346A7
:1010B00092E83100203800F0FF0802989A46204458
:1010C0003649401E83B20BEB54000988401E009144
:1010D00082B258460299FFF7B7FF4FF000067DBB7A
:1010E0002F4908EB480001EB800B01F2744101EB42
:1010F000081817E00C2C03D018F8065000270CE055
:101100001BF80650FAE7E80701D0484600E05046D1
:1011100000F08EF86D087F1CFFB2B7EB540FF2D3CE
:10112000761CF6B2A642E5D327E00C2C09D01D4868
:1011300000EB08100025875D029800EB060A15E019
:1011400019E0174808EB480100EB8100F2E713496A
:10115000F807A1F8009006D00BEB05001FFA8AF102
:1011600080B2FFF783FD7F086D1CEDB2B5EB540F25
:10117000EDD3761CF6B2A642D7D308490098088072
:1011800009494888401E83B2088805B0401EBDE862
:10119000F04F82B200210846FFF756BF64000020DE
:1011A000483E0008BC420008840800202DE9FF4F9B
:1011B00083B00027DDF840801D4681463C46BB4693
:1011C0004FEA5806DFF864A02BE0281B401EC1B28E
:1011D0000A2001F0D8FC0599B1FBF0F00A21B0FB20
:1011E000F1F201FB120027B9691E8C4201DA48B105
:1011F00001273030C0B28DE8010906FB049080B2AF
:10120000514606E0202206FB04908DE8040980B2D6
:101210005146BAF800204B880499FFF743FF641C3D
:10122000E4B2AC42D1D307B0BDE8F08F6400002037
:10123000074A10B54FF400511160064940234B6135
:10124000054C20601802141D206010600B6110BD59
:1012500010140140001001400C180140074A10B55D
:101260004FF400511160064B40215961054C20603C
:1012700008021060121F1060196110BD14140140A3
:10128000001001400C18014001480089FFF7E6BF3B
:101290008408002010B50C46FFF7E0FF2046BDE8AB
:1012A0001040FFF7C5BFFEE770477047044A0029AA
:1012B000516901D0014300E0814351617047000052
:1012C00000100240044A0029D16901D0014300E026
:1012D0008143D1617047000000100240044A002998
:1012E000116901D0014300E08143116170470000A2
:1012F00000100240044A0029916901D0014300E036
:10130000814391617047000000100240044A0029A7
:10131000D16801D0014300E08143D16070470000F3
:1013200000100240F0B52C4B59682C4A11F00C010A
:101330004FF00F0604D02A4C042903D0082903D00B
:10134000026028E0046026E059685A6806EA914184
:1013500002F480320D2901D0891C00E00621BAB1C7
:10136000DA6A12F4803FDA6A02F00F0202F1010237
:101370000AD0DD6AC5F30317DD6A7F1CB4FBF7F4FE
:10138000C5F30325AD1C6C43B4FBF2F24A43D7E727
:10139000144A514301605968134A06EA1111545C1A
:1013A0000168E14041605C68072505EA1424145D8A
:1013B00021FA04F484605C6805EAD424125DD1400B
:1013C000C1605A68032303EA9232074B1B1F9A5CE1
:1013D000B1FBF2F10161F0BD0010024000127A0091
:1013E00040787D0100093D0040000020704700006A
:1013F0000CB500222E4800920192016841F4803120
:1014000001604FF4A063016801F40031019100997B
:10141000491C0091019911B900999942F3D10168D1
:10142000890342D50121019122490A6842F0100244
:101430000A600A6822F003020A600A6842F00202A7
:101440000A604168416041684160416841F48061DF
:101450004160C16A184A1140C162C16A174A11430A
:10146000C162016841F08061016001680901FCD539
:10147000416821F47C114160416841F4E811416008
:10148000016841F08071016001688901FCD5416803
:1014900021F003014160416841F00201416041686F
:1014A000C1F381010229FAD10CBD01920CBD0000EB
:1014B000001002400020024000F0FEFF4406010040
:1014C0002DE9FF4F83B08846DDE910540646824679
:1014D0004FF00009DFF8F8B0129F21E0B9F1000FDA
:1014E00024D0BBF80010091BB1421CDBBBF8020082
:1014F000011B414517DB4FF00009402C4AD0282C36
:1015000051D0202C58D0CDE90057DDE90523182C07
:101510004146304659D0FFF7FFF8301986B2AD1C6E
:1015200028780028DAD107B0BDE8F08FBBF800209A
:10153000A2EB5402B242F6DBBBF802100A1B414692
:101540004245F0DB802802D94FF00109E8E70D2879
:101550000DD0102C12D910218DE88300DDE9052370
:1015600041463046FFF79EFD0836B6B210E008EB64
:1015700004001FFA80F856466D1C09E08DE89100C2
:10158000DDE905233046FFF78DFD06EB540086B2FA
:101590006D1CC5E7CDE90057DDE90523414630461E
:1015A000FFF786FAB9E7CDE90057DDE905234146A3
:1015B0003046FFF709FAB0E7CDE90057DDE905232A
:1015C00041463046FFF78EF9A7E7FFF717F9A4E782
:1015D000840800204FF0E0210428086903D020F09F
:1015E00004000861704740F00400FAE7704700000B
:1015F000124810B5016841F0010101604168104ACC
:101600001140416001680F4A11400160016821F4F6
:1016100080210160416821F4FE014160016821F0F0
:10162000A05101604FF47F0181600021C162FFF78A
:10163000DFFE05494FF00060086010BD0010024059
:101640000000FFF0FFFFF6FE08ED00E010B50E4CC5
:101650000121204600F058F9002814D0012120462D
:1016600000F060F809490878401C0870C107084874
:101670004FF0040103D0BDE81040FFF748B8BDE8C3
:101680001040FFF746B810BD002C01403400002088
:101690000014014010B501218C07204600F034F9F8
:1016A000002815D00121204600F03CF80948417877
:1016B000491C41700078C10707484FF0080103D06A
:1016C000BDE81040FFF723B8BDE81040FFF721B890
:1016D00010BD0000340000200014014010B50E4C75
:1016E0000121204600F010F9002814D001212046E5
:1016F00000F018F809498878401C8870C10708482C
:101700004FF0100103D0BDE81040FFF700B8BDE86E
:101710001040FEF7FEBF10BD000400403400002062
:1017200000140140C943018270470029018802D09A
:1017300041F0010101E021F001010180704700004A
:101740003EB5040022D001210220FFF7BBFD104D61
:10175000284600F021F80F48694600684009B0FBB0
:10176000F4F0401EADF804000020ADF80000ADF824
:101770000600ADF80200284600F0DAF820212846DD
:1017800000F0CEF801212846FFF7CFFF3EBD000054
:1017900000040040500000204B4910B5884202D19F
:1017A0000121C41486E0B0F1804F09D04749884236
:1017B0000DD101210220FFF791FD0021022064E0FC
:1017C00001210846FFF78AFD002101205DE0404924
:1017D000884206D101210420FFF780FD002104206A
:1017E00053E03C49884206D101210820FFF776FDED
:1017F0000021082049E03849884206D10121102003
:10180000FFF76CFD002110203FE03449884206D1EB
:1018100001212020FFF762FD0021202035E0304922
:10182000884202D10121441444E02E49884202D169
:101830000121CC043EE02C49884202D101210C0553
:1018400038E02A49884202D101214C0532E028497A
:10185000884206D101214020FFF740FD00214020B1
:1018600013E02449884206D101218020FFF736FD8C
:101870000021802009E0204988420AD184150121F5
:101880002046FFF72BFD00212046BDE81040FFF762
:1018900025BD1A49884202D101210C040AE01849E9
:1018A000884202D101214C0404E0164988420AD141
:1018B00001218C042046FFF729FD2046BDE8104099
:1018C0000021FFF723BD10BD002C014000040040A3
:1018D00000080040000C00400010004000140040D0
:1018E00000340140004C01400050014000540140D0
:1018F00000180040001C0040002000400040014053
:10190000004401400048014002460020138A9289A9
:101910000B4202EA010202D0002A00D001207047E7
:10192000828822F07002828082880A438280704717
:1019300030B502881B4C1C4DA0420DD0A8420BD0E4
:10194000B0F1804F08D0194B984205D0184B9842FF
:1019500002D0184B984203D122F070034A881A43F0
:10196000154B984206D0154B984203D022F4407391
:10197000CA881A4302808A8882850A880285A04222
:101980000AD0A84208D00E4A904205D00D4A904293
:1019900002D00D4A904201D1097A0186012181824B
:1019A00030BD0000002C0140003401400004004024
:1019B00000080040000C00400010004000140040EF
:1019C00000400140004401400048014010B586B08D
:1019D000012144F20400FFF78DFC4FF40070ADF8D4
:1019E000100018208DF813000320154C8DF81200FC
:1019F00004A92046FEF736FE2115ADF8101004218B
:101A00008DF8131004A92046FEF72CFE4FF4E130A8
:101A100000900020ADF80400ADF80600ADF8080015
:101A2000ADF80C000C20074CADF80A0069462046C2
:101A300000F01CF80121204600F006F806B010BDA9
:101A400000080140003801400029818902D041F49A
:101A5000005101E021F400518181704702460020CD
:101A600012880A4200D001207047000030B50446B9
:101A7000008A85B00D464CF6FF710840E9880143A5
:101A80002182A0894EF6F3110840A9882A891143C2
:101A90006A8902431143A181A08A4FF6FF410840A1
:101AA000A9890143A1826846FFF73CFC194884429A
:101AB00001D1039800E00298A189090400EBC0015C
:101AC00001EB0010296801D5490000E08900B0FB56
:101AD000F1F06422B0FBF2F109010B096FF0180577
:101AE0006B4300EB8300A3891D044FF0320306D53E
:101AF00003EBC000B0FBF2F000F0070005E003EBE1
:101B00000010B0FBF2F000F00F000843208105B098
:101B100030BD0000003801408088C0F308007047E5
:101B2000C1F3080181807047FEE702E008C8121F78
:101B300008C1002AFAD170477047002001E001C1B6
:101B4000121F002AFBD1704710B578B1FFF7F8FDDE
:101B500001211020FEF73EFB01211020FEF776FB4D
:101B6000BDE8104001210448FEF7AABBBDE81040C3
:101B700000210248FFF7D9BD4404024000040040A0
:101B80000248002101700F214170704704000020BD
:101B900000210148FFF7C9BD0004004008B500203E
:101BA00040F23F13EF22FC210090FFF787F808BDB9
:101BB00038B53348334A0178137840785278C91AD7
:101BC000A0EB020001D54A4200E00A46002801DAF3
:101BD000434200E003469A421DDB002901DD032257
:101BE00000E002228DF80020002802DD4FF0010005
:101BF00001E04FF000008DF8010002DC4FF0010021
:101C000001E04FF000008DF80200002901DD022004
:101C10001EE003201CE0002801DD012200E000227C
:101C20008DF80020002902DD4FF0030101E04FF0A4
:101C300002018DF8011002DD4FF0020101E04FF0CA
:101C400003018DF80210002801DC012000E00020D3
:101C50008DF8030000246D46285D00F015F800287B
:101C60000DD1641CE4B2042CF6D30024204600F00D
:101C70000BF8002803D1641CE4B2042CF6D338BD61
:101C800028000020F400002070B504002648274DED
:101C90000168A87906D0012C07D0022C07D0032CAC
:101CA00008D009E001283CD006E0A8B304E00328EE
:101CB00037D001E0022834D09CB1012C14D0022C82
:101CC00017D0481C60F30701184AC8B224321378B1
:101CD000984210D15278C1F3072393420BD10122CD
:101CE0000AE0080A401E01E0080A401C60F30F21C8
:101CF000EAE7481EE6E70022C1F30721162810D2C2
:101D000016290ED24AB1002201F0FCF938B10020A8
:101D100010B1EC71012070BD03E00122F4E7012055
:101D2000F6E70020F7E70000F400002004000020A0
:101D300008B548F230400090F923E5221E210A2020
:101D4000FEF7BCFF08BD00002DE9F84340F6410056
:101D50000090E626FA25F923E5221E210A20FEF747
:101D6000ADFFDFF8749041F282010124A9F8001060
:101D70004FF00A086F1E04EB840108EB4100BBB270
:101D800002461E21FEF726FF641CE4B2162CF2D395
:101D900001244FF01E08771E04EB840108EB41017B
:101DA000BAB20B460A20FEF715FF641CE4B2162CEB
:101DB000F2D345F25841A9F800106B1C721C1D218A
:101DC0000920FEF75FFFAB1CB21C01B01C21BDE86F
:101DD000F0430820FEF756BF6400002008B500EB72
:101DE00080000A2303EB400040F6410201EB810131
:101DF0001E2303EB4101009201F1080300F10802E8
:101E0000401C491CFEF75AFF08BD00000EB50848EB
:101E1000407E00280BD00022102106A08DE807008C
:101E2000134647F6FF721A210020FFF749FB0EBD4B
:101E3000040000205B41492044454D4F5D000000F7
:101E4000F8B5044642F2041000901F4616460D46AF
:101E50002046FEF733FF0B4945F258403B460880C9
:101E6000324629462046FEF70DFF7F1E761E6D1C6A
:101E7000641C01B0BBB2B2B2A9B2A0B2BDE8F040DE
:101E8000FEF700BF64000020F8B500EB80020A23D3
:101E900003EB420501EB81021E2303EB42040D4AD2
:101EA000527C12B14FF6E07601E04FF6FF76FFF775
:101EB00095FF4FF478400090E31DEA1DA11CA81C7B
:101EC000FEF7FCFEA31DAA1DE11CE81C0096FEF710
:101ED000F5FEF8BD04000020FEB542F20416002114
:101EE0001823EF2208460096FEF7E8FE164945F251
:101EF000584019230880EF2219460020FEF76AFE99
:101F0000102512A0CDE9000500244FF6E0773346F6
:101F10003A46042102940220FFF7D2FA0DA0CDE93F
:101F2000000533463A46042102946220FFF7C8FABE
:101F300009A0CDE9000533463A46042102949620D3
:101F4000FFF7BEFAFEBD00006400002053434F526D
:101F5000450000004C56000042455354000000006C
:101F6000FEB542F2041600211823EF22084600961F
:101F7000FEF7A4FE0F4945F2584019230880EF22CE
:101F800019460020FEF726FE002510240AA08DE841
:101F9000310033464FF4FC6204210220FFF790FA2F
:101FA00006A08DE8310033461F2204217620FFF77A
:101FB00087FAFEBD6400002050310000503200005E
:101FC000FEB542F2041540F23F13EF22FC2100203F
:101FD0000095FEF773FE124945F25840FC23088035
:101FE000EF2219460020FEF7F5FD10260DA0CDE9E1
:101FF0000006002447F6FF772B463A464FF48271DD
:1020000002940820FFF75CFA0CA0CDE900062B46ED
:102010003A464FF48C7102940820FFF751FAFEBD46
:10202000640000204B312F4B32206F7220572F530A
:102030003A2053454C454354000000004B332F4B8E
:1020400034206F72204A3A204348414E47452F4F73
:102050004B0000007CB5044D0024AD79CDE900456E
:1020600000F004F87CBD0000040000202DE9F84FCA
:1020700015468A46044600EB84000A2202EB40091A
:10208000DDE90A180AEB8A021E2000EB420611B1B4
:102090006DB11F2012E015B14FF4FC600EE0D807BF
:1020A00002D048F21F4009E04FF4487006E0D8071C
:1020B00002D040F2DF4001E040F29F3009F1080217
:1020C000009006F10803711CD01FFEF7F7FD002DEC
:1020D00058D00AEB8A021E2000EB420304EB840076
:1020E0000A2202EB4004201DE21CE51DDB1CA41D9E
:1020F0004FF6FF71B8F1000F23D00AEB8A061E27B6
:1021000007EB4606F71DB61DB8F1010F29D00AEB03
:102110008A004FF01E0C0CEB400CB8F1020F0CF1D2
:10212000040C884600912FD0194663462A46204663
:10213000FEF7C4FD3B4631462A46CDF800802046D6
:102140001EE017468946B61C009102469846314665
:102150003846FEF7B3FD43462A463146CDF8009097
:10216000EDE794468846024600913B46314660467C
:10217000FEF7A4FD2A4620463B463146CDF80080B6
:10218000FEF79CFDBDE8F88F194609F102051446DB
:1021900028466346FEF792FD3B46224631462846D6
:1021A000CDF80080ECE700002DE9FE43064610253F
:1021B000CDE9001500201F46904642F2041402901B
:1021C00023464FF6E07231462420FFF779F907499C
:1021D0004FF6FF703B460880054842463146048072
:1021E0006E200095FEF7E2FFBDE8FE83640000204C
:1021F000660000202DE9F04F334F87B000260546DA
:102200007E7300F0D1F97D76FE76BE760220B8703E
:102210003C20B8730DB10A2000E03220F87300F0C2
:1022200021FDFFF7ADFC00F0B9FF202140F641038E
:102230004FF6E0725DB125A08DE8430078213C2087
:10224000FFF73EF94FF41670FEF724F92BE0214812
:1022500003AA894690E8111182E8111100249846DA
:1022600092464FF4E17BA523912278215F20CDF89F
:102270000080FEF723FD5AF82420CDE900294346CB
:1022800002964FF6E07280216C20FFF719F9032CBB
:1022900001D2584601E04FF48C70FEF7FBF8641C45
:1022A000E4B2042CDFD300F04DFF3879002808D0C9
:1022B000002D06D107B04FF45C70BDE8F04FFFF77A
:1022C00043BC07B0BDE8F08F040000204149204422
:1022D000454D4F00243E00083EB5154C0025657362
:1022E00000F062F965760120E076A5760220A07004
:1022F0003C20A0732820E07300F0B4FCFFF740FC02
:1023000001F058FB20200BA1CDE9001040F641035D
:102310004FF6E072029578212820FFF7D1F84FF4AC
:102320002F70FEF7B7F8BDE83E4001F0F9BA0000A3
:102330000400002032502046494748542100000044
:102340002DE9FE434C4E04200024B0703473FFF797
:102350001FFC707E4FF018084FF6FF7942F2041709
:10236000102538B32D20B076FFF7E2FCC823E62213
:1023700064210A20FFF764FD40A1CDE900183B4627
:102380004FF6E072029476213020FFF799F83EA0D4
:10239000CDE900053B464A469E2102942420FFF7E2
:1023A0008FF8B28B03B00423BDE8F0433AA1B2200A
:1023B000FFF7FABEF07E00285CD1FFF7B9FCFF23DF
:1023C000E6224B210A20FFF73BFD35A1CDE900189D
:1023D0003B464FF47842029458213A20FFF770F8B8
:1023E000B08B60B1F18B884209D330A0CDE90005F4
:1023F00076213B4647F6FF720294382016E0707D46
:1024000045F25842012802D0022808D010E02AA044
:10241000CDE9000576213B460294442006E029A040
:10242000CDE900053B46762102943E20FFF748F8AF
:102430000423B28B18A18E20FFF7B6FE0223727917
:1024400023A1A220FFF7B0FE0323328C22A1B620E5
:10245000FFF7AAFE0423F28B20A1CA20FFF7A4FEF7
:1024600020A0CDE900053B464A46E4210294142011
:10247000FFF726F8BDE8FE830400002044454D4FD9
:10248000204F564552000000524553544152544982
:102490004E472E2E2E00000053434F5245000000A1
:1024A00047414D45204F5645520000004E455720AC
:1024B0005245434F524421004849542057414C4C07
:1024C0000000000048495420424F445900000000D9
:1024D0004C4556454C0000004C454E004245535477
:1024E000000000004A3A524554525920204B332FE5
:1024F0004B3A4D454E55000070B50D4C0025A07B64
:1025000010B1401EA07304E001210A48FEF7F8F85C
:1025100010B16573002070BD607BFF2801D2401CA4
:102520006073C0B21928F5D36573012070BD000037
:10253000040000200008014070B5174C4FF4006102
:102540002046FEF7DDF8154D78B1A1142046FEF7C0
:10255000D7F860B161141248FEF7D2F848B10121F2
:102560001048FEF7CDF830B111E0012404E0022458
:1025700002E0032400E00424287C08B13CB108E018
:102580000C20FDF787FF01202874204670BD002035
:102590002874002070BD00000014014004000020D9
:1025A00000100140000801402DE9F047154C4FF4A0
:1025B0000069A5146614144FDFF8508004E000F0A1
:1025C0007BFB0A20FDF766FF49462046FEF798F898
:1025D0000028F4D029462046FEF792F80028EED0D5
:1025E00031463846FEF78CF80028E8D001214046F5
:1025F000FEF786F80028E2D0054900200874BDE8FF
:10260000F087000000140140001001400008014064
:10261000040000200EB50025FEF7EAFFFDF724FFB9
:10262000FDF7C4FFFFF7D2F9FDF7E0FDFEF7BCFBB5
:10263000BF4BC04A002033F8101001EB014142F8B3
:102640002010401CC0B22028F5D3FDF745FE4FF402
:102650005C70FFF775F8FDF7C9FDFFF799FAB6480A
:102660000188801C0088B54FA1F5A6424B3A04D1E1
:1026700042F20F71884200D8F883B1A001F048F807
:10268000BBA001F045F80026BE7000F04FFB4FF0F4
:1026900003084FF0020B4FF0010900F00DFB387EEC
:1026A00008B1401E387600F0F7FEFFF745FF040042
:1026B0000AD1BC7DBE753CB9387ED8B9F87DC8B1A9
:1026C0000A20FE7538760524B878A8B101281BD0F9
:1026D000022868D003286ED00428DED1787E002836
:1026E0006AD0B87E0028FBD0401E10F0FF00B876FC
:1026F00070D018E10024E7E7002CCED087F80290D4
:10270000284600F08BFBC8E7052C15D0012C15D00E
:10271000022C16D0032C01D0042CBED1EDB1012D1A
:102720001FD0022D2CD0032D37D0042DB5D1042C71
:10273000B3D1FFF7D1FDB0E70424EFE72A46281D07
:1027400001E02A46681C0521B0FBF1F301FB1305EB
:102750002946104600F001FA9FE7042C9DD1002085
:102760001EE0F878042C414608D0801CB0FBF1F242
:1027700008FB1200F87000F037F98EE7401CF5E70F
:10278000387918B10020387110B103E00120FAE760
:10279000FFF7FEF900F090F97FE7042CB3D1012098
:1027A000FFF728FD79E7FFF7A7FE8246F87B20B107
:1027B000401EF8732AE086E09EE0F87E08B3052C00
:1027C00029D0012C07D0022C0AD0032C0DD0042CC8
:1027D00011D01DE089E0B879012819D0FE7117E009
:1027E000B879A8B187F8079012E0B87903280FD01C
:1027F00087F807B00CE0B879022809D087F807807D
:1028000006E0787E0028DAD0FFF7D2F9052C02D056
:10281000BAF1000F06D087F802803E73FFF7B8F9CF
:1028200000F08CFBF87A401CC0B2F872B97A88428A
:1028300007D3FE72F87E10B101F02CF901E000F030
:10284000F1FCB87C401CC0B2B87408280DD3BE742B
:10285000787C80F001007874B878022805D1374878
:10286000243041780078FFF70FFBF87E38BB387DC5
:1028700040B1401E10F0FF00387503D100F094FE07
:10288000F87EE0B9F87CD0B19E23C82276212820BA
:10289000FFF7D6FA182043A1CDE9001042F2041345
:1028A0004FF6E072029680213420FEF709FEF87C94
:1028B000401E10F0FF00F87401D100F043FC00F05E
:1028C00093F9142030E0052C02D0FFF715FE20B15B
:1028D00000F062F9FFF768FE25E0032C23D17E7635
:1028E000FE7687F802903E731AE000F0BBF900F024
:1028F00055FC87F802B016E0042C04D0052C02D059
:10290000032C09D00FE0F87E10B1FFF7E5FC0AE0D8
:102910000020FFF76FFC06E07E76FE7687F80290D7
:10292000284600F07BFA1E20FDF7B4FDB5E6000056
:10293000583D00087400002000F80308040000203F
:10294000536E616B652072656164792E2057415327
:10295000443D6D6F76652C204A3D4F4B2F7061755D
:1029600073652C203131353230300D0A0000000003
:1029700032502056533A206D656E75206974656D2E
:1029800020352C2050313D4B312D4B34286772655A
:10299000656E292050323D5741534428626C75655D
:1029A000290D0A004C4556454C2055502100000089
:1029B0003EB542F204148923E6227921A520009431
:1029C000FEF77CF90022102105A08DE807002346C0
:1029D0004FF4FC627B21AA20FEF772FD3EBD000091
:1029E0004155544F000000003EB542F204156323E8
:1029F000E6225321A5200095FEF760F90B4800213F
:102A00001024C0784FF4FC6258B101280BD008A004
:102A10000090CDE901412B465521AA20FEF750FD3B
:102A20003EBD05A0F4E706A0F2E700000400002088
:102A30004841524400000000454153590000000045
:102A40004E4F524D414C0000F0B5044600EB44009F
:102A500000EB04153E3589B0002902D042F612374A
:102A600001E042F2041702D04FF0000601E04FF6F9
:102A7000FF764FF014020F4903A8FDF785FB052CE4
:102A800015D2A81E81B205F110039E2214200097D2
:102A9000FEF714F903A8002250F8240010218DE855
:102AA00007003B46324629461E20FEF709FD09B0C5
:102AB000F0BD0000343E00083EB542F20414762317
:102AC000E6226621A5200094FEF7F8F809480021C7
:102AD0001022007908B108A000E008A0CDE90002AA
:102AE000029123464FF4FC626821AA20FEF7E8FC1D
:102AF0003EBD0000040000204F4E00004F4646003F
:102B00003EB542F204149C23E6228C21A5200094B9
:102B1000FEF7D4F80022102105A08DE80700234617
:102B20004FF4FC628E21AA20FEF7CAFC3EBD0000D5
:102B300050312B5032000000012807D0022807D066
:102B4000032807D0042807D1FFF7DABFFFF74CBFEF
:102B5000FFF7B2BFFFF72CBF704770B50D460446B4
:102B6000052802D20021FFF76FFF052D03D20121B6
:102B70002846FFF769FF2046FFF7DEFF2846BDE83D
:102B80007040FFF7D9BF0346012000E05843491EBB
:102B9000C9B2FBD27047000010B5114C0220A070E2
:102BA0000020207360731E20A0731420E073E07E69
:102BB00010B100F0B5FE01E000F0C4FA2079002861
:102BC0000DD0607E00280AD1E07E002807D105489C
:102BD000217830F81100BDE81040FEF7B5BF10BDF8
:102BE00004000020983D000870B5124C207930B1E7
:102BF000A078022803D1607E08B9E07E18B1BDE854
:102C00007040FEF7C5BF6078401CC0B260700F28EE
:102C10000ED3002565700848217830F81100FEF7C2
:102C200093FF2078401CC0B22070452800D3257047
:102C300070BD000004000020983D0008064A074BC4
:102C4000916A5943064B19449162B1FBF0F200FBC3
:102C50001210C0B270470000040000200D66190079
:102C60005FF36E3C2DE9F0410F4E10480024F56AE9
:102C70004FF0E0274540DFF8388000F01DF8B869D4
:102C80000C496840641C00FB0185E4B2082CF4D3B5
:102C9000F08BF17A85EA002090EA014000D1012012
:102CA000B062BDE8F08100000400002001EEFFC02A
:102CB0005FF36E3C0D6619004FF0E0208069074914
:102CC000CA6A5040064A126880EA4210054A1268F1
:102CD00080EAC2204FEAF040C8627047040000203A
:102CE000080801400814014070B50E4D287910B154
:102CF000A878022810D000244FF45C70FEF724FF5F
:102D00002820FDF7C7FB4CB10748297830F811009F
:102D1000BDE87040FEF718BF0124EDE7BDE8704044
:102D2000FEF736BF04000020983D0008FEB50020E5
:102D3000FDF734FFEB23E62237210A20FFF780F866
:102D40001F4D47F6FF7220202A801EA1CDE90010FA
:102D5000002442F204163346029448212A20FEF74A
:102D6000AFFB4FF6FF722A80102519A0CDE90005B0
:102D70003346762102942620FEF7A2FB18A0CDE967
:102D8000000545F2584733463A468E2102941820F2
:102D9000FEF796FB17A0CDE9000533463A46A4217D
:102DA00002941820FEF78CFB18A0CDE900053346ED
:102DB0004FF6E072C82102942620FEF781FBFEBD8B
:102DC00064000020534E414B452047414D450000D3
:102DD0004E55414120434D332D3130370000000026
:102DE0004B312D4B34202F20554152542057415305
:102DF000444A000057415344204D4F564520204A35
:102E0000204F4B2F50415553450000005052455321
:102E10005320414E59204B45590000002DE9FE43F7
:102E200004460020FDF7BAFE4FF010083BA1CDE9A3
:102E300000180026334647F6FF72029614213E2002
:102E4000FEF73EFB42F20415C623E12237210F2094
:102E50000095FDF733FF344F45F25840C6233880C4
:102E6000E12237210F20FDF70DFFC523E022382195
:102E70001020FDF707FF002C46D000210020FFF7AF
:102E8000E3FD012C42D000210120FFF7DDFD022CE3
:102E90003ED000210220FFF7D7FD032C3AD00021BD
:102EA0000320FFF7D1FD042C36D000210420FFF7CA
:102EB000CBFDFFF799FDFFF7FFFDFFF779FDFFF76A
:102EC0001FFE1A484FF6E074B52305803C80782237
:102ED000A5211E200095FDF7F1FE15A0CDE9000803
:102EE00047462B462246A52102961E20FEF7E8FA09
:102EF000114800970423C28BA5215020FEF756F9F4
:102F0000BDE8FE43FFF75CB80121B7E70121BBE74D
:102F10000121BFE70121C3E70121C7E7534E414B20
:102F200045204D454E5500006400002066000020FD
:102F30004245535400000000040000202DE9FE43E8
:102F40003E4C207B002873D1FEF7F2FEFF23E622E1
:102F50004B210A20FEF774FF182039A1CDE900109B
:102F6000002542F204174FF6E0783B4642460295B0
:102F700058214E20FEF7A4FAE07E1026A8B10323C4
:102F8000228C31A17E20FFF70FF90323628C30A140
:102F90009220FFF709F930A0CDE90006B0213B46A9
:102FA00045F258420295142028E00423A28B2FA159
:102FB0007E20FFF7F9F8022362792EA19220FFF715
:102FC000F3F80323228C2DA1A620FFF7EDF82CA007
:102FD000CDE900063B464246BA2102952420FEF781
:102FE0006FFAE07830B3022826D027A0CDE900069A
:102FF0003B464FF4FC62BA2102956E20FEF760FA60
:1030000023A0CDE900064FF6FF783B464246D22189
:1030100002951420FEF754FA23A0CDE900063B46A2
:103020004246E82102951420FEF74AFA0120207357
:10303000BDE8FE8321A0D9E722A0D7E70400002045
:1030400050415553454400005031204C454E00003E
:103050005032204C454E000050313A4B312D4B340C
:103060002050323A574153440000000053434F521E
:10307000450000004C4556454C0000004C454E00B4
:103080004D4F4445000000004E4F524D414C000052
:103090004A202F204B34484F4C443A20434F4E5443
:1030A000494E5545000000004B333A204241434B06
:1030B00020544F204D454E550000000045415359C6
:1030C00000000000484152440000000030B50C4CA4
:1030D00000220A4B248C0CE013F81250854206D1D2
:1030E00003EB42056D788D4201D1012030BD521CA9
:1030F00092B2A242F0D3002030BD0000F4000020C4
:103100000400002030B50D4B1B8C1AB11A0001D001
:10311000531E9BB200220A4C0CE014F81250854258
:1031200006D104EB42056D788D4201D1012030BDFE
:10313000521C92B29A42F0D3002030BD040000200D
:10314000F400002070B5FEF7C7FE00F02DFAFEF780
:10315000FBFDFEF723FD00240E4D0F4E0BE0E3B206
:10316000B4B1002205EB4400417815F81400FEF7D5
:1031700071FF641CA4B2308C8442F0D30648243022
:1031800041780078FEF780FEBDE87040FEF73EBE55
:103190000122E7E7F40000200400002070B50020C1
:1031A000FDF7FCFCFEF798FEFEF7CEFDFEF7F6FC01
:1031B0001A4D1B4E03222A84052030700A2171709B
:1031C0000423B370F17032717171AA71EA71002336
:1031D0000122FEF73FFF01240AE006EB4400E3B2C0
:1031E000417816F814000022FEF734FF641CA4B2E4
:1031F000288C8442F1D30024AC8301206871EC74E4
:103200002C756C7500F058FA00F0CEF900F0E6F875
:10321000FEF7FCFD2C73EC7270BD00000400002072
:10322000F40000202DE9FE4F694D684F288C396865
:1032300007EB400030F8020CADF80400E879A87103
:103240000091B0B1012818D002289DF800001AD0D2
:10325000401C8DF800005E489DF800602430017825
:103260008E4212D19DF80110407881420DD1012487
:103270000CE09DF80100401E02E09DF80100401C9A
:103280008DF80100E7E7401EE3E70024162E04D284
:103290009DF801008346162801D3012007E05CB9A0
:1032A000012259463046FFF72DFF28B102206875EC
:1032B000BDE8FE4FFFF744B8288C024606E007EB56
:1032C0004001401E31F8023C0B8080B20028F6D14C
:1032D000BDF800003880ECB36C79B2F5F17F01D80D
:1032E000521C2A84A88B0A3080B2A883697E29BB2D
:1032F000E98B884222D9DFF8DC80E883B8F8002027
:1033000008F1020ABAF8001045F24B394A4501D1DA
:10331000814213D0FDF72CF93420FDF7CFF8404659
:10332000FDF7D2F8042807D149464046FDF706F9D3
:10333000E98B5046FDF702F9FDF7F8F8A88B6421F8
:10334000B0FBF1F201FB120030B96879142803D206
:10335000401C00E01FE068716879A04201D9232079
:10336000E8741420287500F0A7F900F01DF9287DF5
:1033700060B10022102118A08DE8070042F204136A
:103380004FF6E07204213420FEF79AF8FFF7ACFC08
:1033900000F024F805E09DF805109DF80400FEF704
:1033A0001DFD0023012259463046FEF753FE288CAE
:1033B000012808D9F978B87803B00123BDE8F04FA7
:1033C0000022FEF747BEBDE8FE8F0000F40000209B
:1033D0000400002000F803082B3130002DE9F041F3
:1033E00000244FF4F2751620FFF728FC064616203D
:1033F000FFF724FC0746641C0146A4B23046FFF7E1
:1034000065FE08B1AC42EED30448394606704770F9
:103410003046BDE8F041FEF737BD0000280000202F
:103420002DE9F047DFF868901A4F00244FF4167A20
:103430001620FFF703FC06461620FFF7FFFB0546A4
:10344000641C0146A4B23046FFF740FE98B93146ED
:1034500000204B46B7F822C00AE013F810208A4239
:1034600004D103EB40025278AA4204D0401C80B23F
:103470006045F2D301E05445DAD3064829462430AA
:10348000067045703046BDE8F047FEF7FDBC000011
:10349000BC040020040000202DE9F047022601258D
:1034A0004FF000093E4C0327DFF8F8806FE04046FC
:1034B000FEF732FBC0B2612841D00EDC4B2862D04F
:1034C00006DC41283BD044284AD04A285FD158E046
:1034D000532823D057285AD10BE06B2853D004DC53
:1034E00064283DD06A2852D14BE0732816D0772843
:1034F0004DD1A078022801D1E07B08B1A57546E046
:10350000E07E28B1207A012841D084F809903EE07D
:10351000A07901283BD084F8079038E0A0780228F1
:1035200001D1E07B08B1A67531E0E07E18B1207AC8
:1035300008B365722BE0A079E8B1E57127E0A078C7
:10354000022824D1E07BB0B9E07E20B1207A0328A4
:103550001DD066721BE0A079032818D0E67116E032
:10356000A078022813D1E07B28B9E07E20B1207A30
:1035700002280CD067720AE0A079022807D0E77110
:1035800005E0E57503E0A078042800D1A7752021A7
:103590004046FEF763FA002889D1BDE8F0870000B5
:1035A0000400002000380140F8B5294842F2041414
:1035B000284904804FF6FF70088014235E220421FE
:1035C00030200094FDF77AFB14238E22042176200C
:1035D0000094FDF773FB1423EA220421BC2000941D
:1035E000FDF76CFB1C4D102604230096AA8B194690
:1035F0003220FDF7DBFD009602236A7904217A2050
:10360000FDF7D4FD04230096EA8B1946BE20FDF792
:10361000CDFDA98B6420B1FBF0F200FB1211462214
:103620005143B1FBF0F0C5B2162348221421022009
:103630000094FDF743FB002D08D047F6FF70009083
:103640001623AA1C14210220FDF738FBF8BD000048
:1036500066000020640000200400002038B51348F4
:1036600042F20414124904804FF6FF7008801423BC
:103670003C2204211C200094FDF720FB1423B022DF
:10368000042190200094FDF719FB0A4C10250095A9
:103690000323228C04211E20FDF788FD00950323BF
:1036A000628C04219220FDF781FD38BD6600002068
:1036B00064000020040000200B4AD07868B1012883
:1036C0000DD00520517901290CD9491EC9B28B1C96
:1036D000984206D9401AC0B204E00920F2E7072058
:1036E000F0E70220907270470400002070B5074C8C
:1036F000054680212046FEF7B1F90028F9D0294679
:103700002046BDE87040FEF70BBA000000380140CB
:1037100010B5044602E0641CFFF7E8FF207800289B
:10372000F9D110BD03B59DF8010059B101290BD0A5
:103730009DF8000002290BD0401C8DF80000BDF858
:1037400000000CBD401E00E0401C8DF80100F6E7B3
:10375000401EF2E730B5039C1CB90C0001D0611E7D
:1037600089B200240CE010F81450954206D100EB09
:1037700044056D789D4201D1012030BD641CA4B286
:103780008C42F0D3002030BD2DE9F74FDFF82081C7
:1037900084B0042188F8021000249346074688F874
:1037A0000C40FEF7F5F9FEF7C3FAFF23E6224B21A2
:1037B0000A20FEF745FB1820102545F2584942F231
:1037C00004164FF6FF7A012F3BD0022F50D039A1BB
:1037D000CDE9001033464FF6E072029458213E20A6
:1037E000FDF76EFE35A0CDE90005334652467C213B
:1037F00002942420FDF764FE03234746B8F82020F6
:1038000031A19420FEF7D0FC03237A8C30A1A820AC
:10381000FEF7CAFC30A0CDE9000533464A46C82170
:1038200002941420FDF74CFE30A0CDE9000533468C
:103830005246E42102941420FDF742FE07B0BDE891
:10384000F08F2FA1CDE9001033464FF4FC620294B3
:1038500058213420FDF734FE2CA0CDE90005334675
:103860004A467C2102941820FDF72AFE584614E0AF
:1038700027A1CDE9001033461F220294582134209D
:10388000FDF71EFE25A0CDE9000533464A467C2102
:1038900002941820FDF714FE059800F031FACDE9E6
:1038A00000057C213346524602943820A2E70000EE
:1038B0000400002044524157210000004845414483
:1038C00020435241534800005031204C454E0000E7
:1038D0005032204C454E000050313A4B312D4B3484
:1038E000202050323A574153440000004A3A524592
:1038F00054525920204B332F4B3A4D454E55000022
:1039000050312057494E5321000000005032000032
:1039100050322057494E5321000000005031000022
:103920002DE9FC41FEF71CFBFFF798FEFEF70CFAB1
:10393000FEF734F900241C4D27461C4E0EE0A879F2
:10394000E3B2CDE9007084B1002206EB4400417877
:1039500016F81400FEF78AFB641CA4B2288C84427B
:10396000EDD300240127124E10E00122EDE7287A62
:10397000E3B2CDE90070A4B1002206EB4400417827
:1039800016F81400FEF772FB641CA4B2688C844223
:10399000EDD30548243041780078BDE8FC41FEF7BE
:1039A00073BA0122E9E7000004000020F4000020BF
:1039B000BC0400202DE9FC470020FDF7EFF8FEF7DE
:1039C000CFFAFEF7C1F9FEF7E9F8304D304F03208A
:1039D000288438700B2179700222BA70F9704FF088
:1039E000010987F804907971A871E87107F5727878
:1039F0006884122388F8003088F80110132388F8AF
:103A00000230142388F8031088F8043088F8051071
:103A10002A7200246A722646A879E3B2CDE90060D2
:103A20007CB1002207EB4400417817F81400FEF740
:103A30001DFB641C288CA4B28442EDD300244F46A5
:103A400010E00122EEE7287AE3B2CDE90070DCB1A4
:103A5000002208EB440118F814004978FEF706FB31
:103A6000641CA4B2688C8442EDD3AE836F71EE7493
:103A70002E756E75FFF7F2FDFFF7D2FC2E73EE7216
:103A80000720A872BDE8FC870122E2E704000020BD
:103A9000F40000202DE9F04FDFF858A287B000278E
:103AA0009AF807108AF806109AF809008AF80800B0
:103AB00091483E46B946B84654460068FFF732FE84
:103AC00002908E48217A806CFFF72CFE9DF808103A
:103AD0000AF12402039005911078814206D19DF8E5
:103AE00009105378994201D1012400E000249DF887
:103AF0000C108B46814206D19DF80D105078814202
:103B000001D1012500E000250598584509D19DF80F
:103B100009009DF80D10884203D1042211460320AC
:103B200057E00598162803D29DF80900162801D3FE
:103B30000127B946BBF1160F03D29DF80D001628D8
:103B400001D30126B04667B900949DF80930BAF850
:103B500020106948059AFFF7FDFD10B101274FF0CD
:103B600002096EB9654800959DF80D305A46BAF8BD
:103B700022104830FFF7EEFD10B101264FF0020889
:103B80006FB900955D489DF80930BAF822104830A9
:103B9000059AFFF7DFFD10B101274FF0030966B961
:103BA00000949DF80D305A46BAF820105248FFF79D
:103BB000D1FD10B101264FF0030837B14246494606
:103BC000002EACD14FF0020003E03EB14246494620
:103BD000012007B0BDE8F04FFFF7D6BDDFF818C1F0
:103BE000BAF820300CF572770CEB4300564630F8EB
:103BF000020CADF80400BAF8221007EB410030F8CF
:103C0000020CADF81000184607E00CEB4002401E15
:103C100032F8028CA2F8008080B20028F5D1BDF8FD
:103C20000820E046ACF8002006E007EB4102491E00
:103C300032F8020C108089B20029F6D12F48BDF865
:103C40000C104FF4F179A0F8481024B14B4508D876
:103C50005B1C338405E09DF805109DF80400FEF719
:103C6000BDF82DB1708C484508D8401C708405E023
:103C70009DF811109DF81000FEF7B0F82C4305D008
:103C8000FFF732F8FFF7CCFBFFF7E8FCB079002430
:103C9000CDE900409DF80910234601220598FEF762
:103CA000E5F9308C01280AD9B0790123CDE900402B
:103CB00098F8031098F802000022FEF7D7F9307A3E
:103CC0000124CDE900409DF80D10002322465846FE
:103CD000FEF7CCF9708C012808D9307A0123CDE9A0
:103CE0000040F978B8780022FEF7C0F907B0BDE8C7
:103CF000F08F000004000020F40000207404002075
:103D0000012807D0022807D0032807D0042807D0AD
:103D100004A0704704A0704706A0704708A0704731
:103D20000AA07047000000004849542057414C4CFD
:103D3000000000004849542053454C460000000054
:103D400048495420524956414C00000048454144DE
:103D50002043524153480000FF078F090F0B710C9D
:103D6000AA0DA60E630FD80FFF0FD80F630FA60E74
:103D7000A70D710C0F0B8F09FF076F06EF048D0362
:103D8000570258019B002600000026009B005801A6
:103D900057028D03EF046F06700370037003700306
:103DA000700370037003100393020B024B020000B8
:103DB0004B0293021003100310031003100370034F
:103DC000100393020000700370037003700370030C
:103DD00070037003100393020B024B0200004B02AE
:103DE0009302100310031003100310037003100359
:103DF000930200000B020B020B020B020B020B02E0
:103E00000B024B0293021003000070037003700357
:103E10007003700370037003100393020B024B02D4
:103E200000000000788D0008748D0008708D000877
:103E3000848D0008988D0008A08D00087C8D0008F6
:103E4000888D0008908D0008000000000000000030
:103E50000000000000000404040404040004000046
:103E600000140A0A00000000000000000000141402
:103E70003F140A3F0A0A000000041E1505060C1430
:103E8000150F0400000012150D0A142C2A12000050
:103E90000000040A0A1E151509360000000202017E
:103EA00000000000000000000020100808080808BA
:103EB000081020000002040808080808080402008E
:103EC00000000004150E0E1504000000000004049C
:103ED000041F0404040000000000000000000000B3
:103EE0000002020100000000001F000000000000AE
:103EF00000000000000000000002000000100808A0
:103F0000080404020202010000000E111111111137
:103F1000110E00000000040604040404040E000056
:103F200000000E1111080402011F000000000E1114
:103F3000100C1010110E00000000080C0A0A091ED7
:103F40000818000000001F01010F1010110E0000E2
:103F500000000E09010F1111110E000000001F09D1
:103F6000080404040404000000000E11110E1111D5
:103F7000110E000000000E1111111E10120E000093
:103F80000000000004000000000400000000000029
:103F900000040000000404000020100804020408CB
:103FA00010200000000000001F00001F00000000A3
:103FB00000020408102010080402000000000E1186
:103FC000110804040004000000000E111915151D4D
:103FD000011E0000000004040C0A0A1E1233000037
:103FE00000000F12120E1212120F000000001E111C
:103FF00001010101110E000000000F121212121235
:10400000120F000000001F120A0E0A02121F000009
:1040100000001F120A0E0A020207000000001C1214
:1040200001013911120C000000003312121E12128D
:104030001233000000001F0404040404041F0000E5
:1040400000003E08080808080809070000003712A9
:104050000A060A0A123700000000070202020202E2
:10406000223F000000001B1B1B1B1515151500002F
:1040700000003B1216161A1A1217000000000E114B
:1040800011111111110E000000000F12120E020288
:104090000207000000000E1111111117190E18006F
:1040A00000000F12120E0A121237000000001E113B
:1040B00001060810110F000000001F15040404047D
:1040C000040E00000000331212121212120C000033
:1040D00000003312120A0A0C040400000000151537
:1040E000150E0A0A0A0A000000001B0A0A04040A44
:1040F0000A1B000000001B0A0A040404040E00004E
:1041000000001F0908040402121F0000001C040420
:104110000404040404041C0000020202040408084D
:1041200008100000000E08080808080808080E001B
:1041300000040A0000000000000000000000000071
:10414000000000000000003F00040000000000002C
:104150000000000000000000000C121C123C0000D7
:1041600000000302020E1212120E000000000000F6
:10417000001C1202021C000000001810101C121279
:10418000123C000000000000000C121E021C000087
:1041900000003804041E0404041E00000000000097
:1041A000003C120C021E221C00000302020E12121E
:1041B000123700000000040000060404040E000092
:1041C00000000800000C08080808080700000302A7
:1041D000023A0A0E12370000000007040404040427
:1041E000041F000000000000000F15151515000049
:1041F00000000000000F1212123700000000000043
:10420000000C1212120C000000000000000F12122D
:10421000120E020700000000001C1212121C1038BF
:1042200000000000001B0602020700000000000062
:10423000001E020C101E000000000004040E040406
:104240000418000000000000001B1212123C0000C5
:10425000000000000037120A0C04000000000000FB
:104260000015150E0A0A000000000000001B0A04D9
:104270000A1B0000000000000037120A0C040403AF
:1042800000000000001E0804041E000000180808BA
:10429000080408080808180008080808080808089A
:1042A00008080808000604040408040404040600BE
:1042B00002251800000000000000000000000000BF
:1042C00000000000000000000000000000000008E6
:1042D00008080808080800001818000000486C24A6
:1042E0001200000000000000000000000000002498
:1042F00024247F1212127F12121200000000081CE8
:104300002A2A0A0C1828282A2A1C08080000002239
:10431000251515152A585454542200000000000C8D
:104320001212120A76252911916E00000006060469
:10433000030000000000000000000000004020100A
:10434000100808080808081010204000000204089F
:1043500008101010101010080804020000000000DF
:1043600008086B1C1C6B080800000000000000001F
:10437000080808087F08080808000000000000007E
:10438000000000000000000006060403000000001A
:1043900000000000FE00000000000000000000001F
:1043A0000000000000000000060600000000804041
:1043B0004020201010080804040202000000001829
:1043C00024424242424242422418000000000008B7
:1043D0000E08080808080808083E00000000003C15
:1043E0004242422020100804427E00000000003CAF
:1043F0004242201820404042221C000000000020C1
:104400003028242422227E20207800000000007E14
:104410000202021A26404042221C0000000000381E
:104420002402021A26424242241800000000007EA4
:104430002222101008080808080800000000003CAC
:104440004242422418244242423C0000000000182C
:104450002442424264584040241C000000000000F6
:1044600000001818000000001818000000000000EC
:1044700000000008000000000008080400000040E0
:104480002010080402040810204000000000000072
:1044900000007F0000007F0000000000000000021C
:1044A0000408102040201008040200000000003C16
:1044B0004242464020101000181800000000001C66
:1044C000225A555555552D42221C00000000000867
:1044D00008181414243C224242E700000000001F88
:1044E0002222221E22424242221F00000000007CA3
:1044F0004242010101010142221C00000000001F94
:104500002242424242424242221F00000000003F3B
:104510004212121E12120242423F00000000003FEF
:104520004212121E12120202020700000000003C9A
:104530002222010101712122221C0000000000E75B
:10454000424242427E42424242E700000000003EB8
:104550000808080808080808083E00000000007C59
:1045600010101010101010101010110F0000007714
:1045700022120A0E0A1212222277000000000007FF
:104580000202020202020202427F000000000077E3
:10459000363636362A2A2A2A2A6B0000000000E323
:1045A00046464A4A52525262624700000000001CCE
:1045B0002241414141414141221C00000000003F95
:1045C000424242423E020202020700000000001C7A
:1045D0002241414141414D53321C60000000003FE7
:1045E0004242423E1212222242C700000000007CDA
:1045F0004242020418204042423E00000000007F78
:104600004908080808080808081C0000000000E71E
:104610004242424242424242423C0000000000E725
:104620004242222424141418080800000000006BE1
:10463000494949495555362222220000000000E729
:10464000422424181818242442E7000000000077B0
:104650002222141408080808081C00000000007E2C
:104660002120101008040442423F0000007808088E
:10467000080808080808080808087800000002026E
:10468000040408080810102020204040001E1010CC
:10469000101010101010101010101E0000384400E0
:1046A000000000000000000000000000000000000A
:1046B0000000000000000000000000FF00060800ED
:1046C00000000000000000000000000000000000EA
:1046D0000000003C4278444242FC0000000000031D
:1046E0000202021A26424242261A0000000000007E
:1046F000000000384402020244380000000000605C
:10470000404040784442424264D80000000000002B
:104710000000003C427E0202423C0000000000F02B
:104720008808087E08080808083E0000000000000D
:104730000000007C22221C023C42423C000000039C
:104740000202023A4642424242E700000000000CE8
:104750000C00000E08080808083E000000000030A9
:1047600030000038202020202020221E00000003DE
:1047700002020272120A1612227700000000000ED6
:104780000808080808080808083E000000000000A3
:104790000000007F9292929292B700000000000009
:1047A0000000003B4642424242E700000000000099
:1047B0000000003C42424242423C00000000000037
:1047C0000000001B26424242221E02070000000099
:1047D0000000007844424242447840E0000000007B
:1047E000000000774C040404041F000000000000D7
:1047F0000000007C42023C40423E000000000000FD
:104800000008083E08080808083000000000000002
:10481000000000634242424262DC000000000000EF
:10482000000000E7422424140808000000000000F3
:10483000000000EB4949555522220000000000000D
:104840000000007624181818246E000000000000F4
:10485000000000E7422424141808080700000000A4
:104860000000007E22100808447E000000C02020C6
:1048700020202010202020202020C0001010101008
:104880001010101010101010101010100006080852
:104890000808081008080808080806000C32C200BA
:1048A000000000000000000000000000BCF22040FA
:1048B0003F7E4890850810000BF8200827C8244840
:1048C000244827C82448244827C820082018C6D7C9
:1048D0000208411027FC20A004A402A8EFFE20003B
:1048E00023F82208220823F82A08320823F80208AD
:1048F000B4AB08400840084013F81040308037FE41
:104900005080910013F81008111010A010401020D2
:104910001020D5FD00007FFC010001000100010016
:10492000110011F811001100110011001100110007
:10493000FFFE0000CFD20040F82008200BFE084008
:1049400078404088410843F07820084008880904EE
:104950000BFC51042000B2A800202020102013FEE0
:10496000822242244A200BFC12841288E248225000
:104970002220245024880906CDA31080104017FC63
:10498000200023F8620863F8A0002FFE280223F815
:1049900020402040204021402080D6B90100010065
:1049A000010001001100110011F8110011001100A7
:1049B0001100110011001100FFFE0000D1DD008088
:1049C000204017FC1404800043F8404013F81248BC
:1049D00023F8E24823F82000211022080404D7E03D
:1049E000010001007FFC01003FF80200FFFE0440CF
:1049F000082037D8C1061FF0010002C00C30300873
:104A0000B6AB0200020002007FFC040009001100A6
:104A100021003FF801000920111021084104050080
:104A20000200B7BD020001000100FFFE0400040007
:104A3000040007F0041004100410081008101010EF
:104A400020A04040BAEC1000100021FC242044209B
:104A5000F820102020204020FC20402000201C2096
:104A6000E02043FE0000C0D6002000F01F00100030
:104A70001100210021003FFC01000920091011084C
:104A80002104410405000200C7FA04400440044028
:104A900004407FFC44444444444444447FFC444434
:104AA0004444444444447FFC4004D0A1010001003C
:104AB000010001000100111011081104210421025C
:104AC000410281020100010005000200C8ED104012
:104AD00010401040FE7C2084288849207E20082039
:104AE00008500E50F8504888088809040A02BCFE95
:104AF000082008200920112011FC322032205420E7
:104B0000902017FE102010201020102010201020C0
:104B1000B4A520202020782049FC91247D24552410
:104B200055247DFC552454207C28542457FE4502EE
:104B30008C00D3C901000100010001003FF82108E9
:104B40002108210821083FF821082108210821080F
:104B50003FF82008CFE0080008FC08840884FE84A1
:104B600008FC18841C842A842AFC488488840884CD
:104B7000088408FC0884CBAE010001000100010894
:104B800001087D9005A0094009401120111021085D
:104B90004106810005000200C9EE000027FC140454
:104BA00014A4811042084040104017FC2040E0E06F
:104BB000215022482C4620400040B3AC080009FC9C
:104BC00008447E4408440894FF0808FC288428848C
:104BD0002E8428FC280058004FFE8000CEC2000022
:104BE00023F81208120883F84208420813F810004C
:104BF00027FCE4A424A424A424A42FFE0000CEB403
:104C00000100010001003FF8010001000100FFFE6A
:104C100003800540092011102108C1060100010090
:104C2000C1AC0040204017FE108000A00120F3FC22
:104C300010201020102017FE10201020282047FEE2
:104C40000000BDD31080104013FC1000FD08109030
:104C500017FE1040184037FED088110810901060E1
:104C600051982604C4DA0100010001007FFC4104D0
:104C700041044104428442444424481450144004F2
:104C8000400440144008CDE2104010401040104055
:104C90003E40226042504248A44414440840084028
:104CA0001040204040408040B2BF1000083E7FA22C
:104CB000002421241228FFE4002400223F22212284
:104CC000213421283F2021200020A1E6600091F41A
:104CD000960C6C040804180018001800180018003E
:104CE000180008000C04060801F00000D6AE02000F
:104CF0000100010000007FF800100020004000804B
:104D00000100020004001800240043FE0000CEC28F
:104D1000000023F81208120883F84208420813F82A
:104D2000100027FCE4A424A424A424A42FFE000043
:104D3000B1BB201010100010F9FE0912111415104B
:104D400039FC55449144112811281110122812449D
:104D50001482B0B410401020102013FEFA02144444
:104D600010401BFE3088D088110810D01020105041
:104D700050882304BCFC201020103B7C211441FEF1
:104D80007A14A27C2710F97C251025FE22102A1007
:104D9000350028FE0000B5C002082110100017FCE5
:104DA000008003F8F20813F8120813F8120813F839
:104DB0001208280047FE0000BBF9082008207FFCED
:104DC00008200FE008200FE00820FFFE0820111047
:104DD0002108CFE6010001003FF8D7BC0140412087
:104DE000212023FE022016201BFC1220222023FC5F
:104DF000E2202220222023FE22000200B5E701004B
:104E0000010001003FF82108210821083FF821088E
:104E1000210821083FF8210A0102010200FED1B950
:104E200000003FFE200020802080208020802FFC7A
:104E30002080208020902088208840805FFE800095
:104E4000B6E00200020007F008203840048003406A
:104E50000C8071F802080C103220014001800E0015
:104E60007000CDA8000047F8201021A0004007FCEA
:104E7000E444244427FC2444244427FC24442454AC
:104E800054088FFEB5C002082110100017FC0080E6
:104E900003F8F20813F8120813F8120813F81208AE
:104EA000280047FE0000B7BD020001000100FFFE20
:104EB00004000400040007F004100410041008109B
:104EC0000810101020A04040CABD00480044004413
:104ED0000040FFFE004000403E40084008400820DF
:104EE00008220F12780A20060002B5E7010001002F
:104EF00001003FF82108210821083FF82108210876
:104F000021083FF8210A0102010200FECEBB088001
:104F100008400840100017FC300030085208920882
:104F2000111011101110112010201FFE1000C6F7D3
:104F300000003E7C224422443E7C01200110FFFE02
:104F400002800C603018C0063E7C224422443E7C25
:104F5000B6D40010001000107E1002FE02102410C3
:104F600014900850085014101210221040100050D5
:104F70000020BDE110201020202027FE4420F82032
:104F800011FC20004000FDFC410401041D04E1046B
:104F900041FC0104B9FB00001FF0111011101FF0BB
:104FA000111011101FF011100100FFFE0540092023
:104FB0003118C1060100B1E402000100FFFE044007
:104FC00014502448444400003FF00820044002806C
:104FD000010006C01830E00EBBBB1080108010F836
:104FE0001108FA1015FC112419243124D12417FEBC
:104FF00010501050108851042602B5E7010001003E
:1050000001003FF82108210821083FF82108210864
:1050100021083FF8210A0102010200FED1B9000077
:105020003FFE200020802080208020802FFC2080D8
:10503000208020902088208840805FFE8000D6B5A8
:10504000084008400FFC1040104033F8320853F875
:10505000920813F8120813F8120812081FFE100025
:10506000CAFD082049202A20083EFF442A4449441A
:1050700088A41028FE2822104210642818283444DE
:10508000C282D7D6020001007FFE400280041FE0EA
:10509000004000800100FFFE01000100010001004E
:1050A00005000200C1BF00001FF010101FF010101B
:1050B000FFFE00001FF011101FF011101FF0010083
:1050C0001FF001007FFCCDA8000047F8201021A0B0
:1050D000004007FCE444244427FC2444244427FCE7
:1050E0002444245454088FFEB5C002082110100037
:1050F00017FC008003F8F20813F8120813F81208DE
:1051000013F81208280047FE0000C4A31110111064
:1051100017FC1110FC0013F832083BF8560853F83E
:10512000904017FC10A0111012081406C4E21008D9
:10513000108810481228FA28120812081A08320893
:10514000D208121012981324122450422082CAE46A
:10515000204020A02110FA0825F6400053C49254A4
:10516000FA5413D41A54F25453D41244125412C899
:10517000C8EB04000200010001000100028002806F
:10518000028004400440082008201010201040082D
:105190008006CAE4204020A02110FA0825F640002D
:1051A00053C49254FA5413D41A54F25453D412449C
:1051B000125412C8B3F60100010021082108210889
:1051C00021083FF8010801000100410441044104A5
:1051D00041047FFC0004BDD31080104013FC10007C
:1051E000FD08109017FE1040184037FED0881108B7
:1051F0001090106051982604BFDA000000003FF8BC
:10520000200820082008200820082008200820085E
:10521000200820083FF820080000CEB9000003F85D
:105220007A484A484BF84A484A484BF848004FFEEB
:105230007A404A440228029003080206CEAA0100DE
:1052400021001100110001007FF802080208028805
:105250000448044808081008200840508020C3EB88
:1052600008201C20F02010A810A4FCA2112231203C
:105270003A245424542890081010102010C0130011
:10528000BFB400F87F0001003FF80200FFFE0400F9
:1052900008001FF028104FF088100FF008100FF0D2
:1052A0000810C3C5200013FC10044004400440044F
:1052B00040044004400440044004400440044004CE
:1052C00040144008B9B700804480290011FC2A042A
:1052D0004C0489E409241924292449E48924080474
:1052E000080450282010D2E70208210811101000ED
:1052F00087FC400041101208140423F8E2A822A8F9
:1053000022A822A82FFE0000B3F601000100210808
:105310002108210821083FF801080100010041048B
:105320004104410441047FFC0004B8FC0000FFFE7E
:10533000010001003FF8210821083FF82108210859
:105340003FF811000A00060019C0E03ED0C210006C
:1053500008047F78004022401440FF7E0848084837
:105360007F4808482A484948888828881108B6A8EC
:10537000020001007FFE4002800400003FF80100AF
:105380000100110011F811001100290047FE8000F2
:10539000CAB1000800087C08440845FE44084408D7
:1053A0007C0844884448444844087C084408002851
:1053B0000010C6F700003E7C224422443E7C0120BF
:1053C0000110FFFE02800C603018C0063E7C2244B3
:1053D00022443E7CBCE4200013FC1004400447C47B
:1053E00044444444444447C444444444444447C477
:1053F000400440144008D5E60060004000FC03C0B3
:1054000000F003100390039003D0031007FF39004E
:105410000210060C00040000B2CA0000008601065B
:10542000064C0BC80C8303C61F0C23C305030906D7
:10543000310C031C003000600000D2BA0000006094
:105440000460067C01C009B8197C1368159015F03A
:1054500015CE09070000000000000000BEA70000F4
:1054600000E0033003B0023003B002700F3C094C7F
:105470001D6C094C0F6C001C000000000000C6C130
:105480000000007C018C0178018C03D804BC07D893
:1054900008FF1FE824880088018800080008000031
:1054A000C0B608200820FFFE08200480248024FCC9
:1054B00024A0251000003FF8244824482448FFFE7B
:1054C0000000D1C000003FFC0040004010401040F0
:1054D00020403FFE01400240044008401040604030
:1054E00001400080BFD810401020102013FEFA02A7
:1054F000149411081A043000D1FC10201020102040
:10550000102057FE2000D6C60404240424043FA41F
:1055100044240424FFE4042404243FA424A424A455
:105520002684250404140408CDA8000047F82010A0
:1055300021A0004007FCE444244427FC24442444E4
:1055400027FC2444245454088FFEB9FD0010201079
:10555000101017FE00100010F21011101110101092
:10556000101010501020280047FE0000BDD31080FE
:10557000104013FC1000FD08109017FE104018405A
:1055800037FED08811081090106051982604CAD5B3
:10559000084008404840488048FE49084A884888F2
:1055A00048885850685048200850088809040A0262
:1055B000B5C41040104020407E7C428442844304A5
:1055C00042447E2442244204420442047E0442288F
:1055D0000010C3FC0100010002800440082037D8FD
:1055E000C00600003EF82288228822883EA8229029
:1055F00000800080C1EE01000100028004400A200A
:1056000011102108C0061FF0001000200440028085
:10561000010000800080CAFD082049202A20083EA1
:10562000FF442A44494488A41028FE28221042102E
:10563000642818283444C282BEDD200023FC2204E2
:105640002204FBFC222022202BFE3220E22022FC1E
:10565000228422842484A4FC4884CDA8000047F836
:10566000201021A0004007FCE444244427FC2444EB
:10567000244427FC2444245454088FFED0C50840F9
:1056800008200BFE1000100031FC3000500091FC8F
:105690001000100011FC1104110411FC1104BBB620
:1056A00000800080FC8004FC050449082A40144066
:1056B000104028A024A0451081100208040408020C
:1056C000D3AD00002080133C122402240224F224D3
:1056D0001224122412B4132812201020282047FE6E
:1056E0000000CAB9104010401FFE2040204067FC57
:1056F0006444A44427FC20402240214020802140D3
:1057000022302C0ED3C300003FF8210821082108C5
:105710003FF82108210821083FF821082108210825
:10572000410841288010C4CF01000100FFFE0100A4
:1057300001007FFC482444444FE4410441045FF4E9
:105740004104410441144008BEA902000100FFFECB
:10575000000000001FF01010101010101FF00100CA
:1057600011101108210445040200BABD1040202088
:105770007C0045FC6400540054F0FC90449064901C
:105780005490549244924512550E8A00BFD502009F
:1057900001007FFE400288241010200800001FF046
:1057A000010001000100010001007FFC0000CCECC1
:1057B00000003FF80100010001000100FFFE0100B0
:1057C0000280028004400440082010102008C00617
:1057D000B4F301000100010001000100FFFE01001F
:1057E00001000280028004400440082010102008BC
:1057F000C006D1A722081108111000207FFE400228
:1058000080041FE000400180FFFE01000100010054
:1058100005000200C7B60100210821083FF800205A
:105820002220223EFF42229422103E1022102228E3
:105830003E2822440082C8EB04000200010001005F
:1058400001000280028002800440044008200820F9
:105850001010201040088006CABD004800440044D3
:105860000040FFFE004000403E4008400840082045
:1058700008220F12780A20060002CFB500F83F0078
:105880000400082010403F800100061018087FFC2B
:10589000010409201110210845040200CDB3104075
:1058A0001020202023FE4840F888110423FE409257
:1058B000F890409000901912E112420E0400D4AD0D
:1058C00000003FFE2080210027F02410241027F044
:1058D0002410241027F020802490488852848100CE
:1058E000C0ED000001FCFD24112411FC1124112441
:1058F0007DFC1020102011FC10201C20E02043FE15
:105900000000BCB000003FE008200820084008402C
:105910000CF80A080A080910111010A0204020A055
:1059200043188C06D3A6010000803FFE2000200013
:105930002104288424842448224822102210402054
:1059400040409FFE0000D3C300003FF8210821081B
:1059500021083FF82108210821083FF821082108E3
:105960002108410841288010C5E40000FE0028F805
:105970002808FE08AA08AA08AAF8AE88C280828071
:10598000FE8082828282FE7E8200CCD701000100EE
:105990007FFC028004400FF03418C7E6040007E0E3
:1059A0000400FFFE040008101FF80008CAB502003A
:1059B00001007FFE400288840480048010800880FB
:1059C0000880FFFE01400220041018086004D1E99D
:1059D0000020F82008504850488849044AFA7C00C2
:1059E000044404241D24E4A8448804102BFE100061
:1059F000BFAA00007FFC08200820082008200820FB
:105A0000FFFE082008200820082010201020202059
:105A10004020B7A201001110110822003FFC020033
:105A2000040007F80A080908111010A0204040A03F
:105A300003181C06B0E51008101C11E01100FD0051
:105A400011FC314439445544552891281110111046
:105A5000122812441482CABE00003FF80000000061
:105A600000000000FFFE01000100111011082104D8
:105A70004102810205000200C0FD1004100417C499
:105A80002214221463D46254A45426542554289416
:105A900020942104220424142808CAB9104010407C
:105AA0001FFE2040204067FC6444A44427FC2040A3
:105AB000224021402080214022302C0ECAD00200FA
:105AC000010000007FFC0100010001003FF82108F7
:105AD0002108210821082128211001000100BCBC57
